:100000000C9446000C9463000C9463000C94630001
:100010000C9463000C9463000C9463000C946300D4
:100020000C9463000C9463000C9463000C946300C4
:100030000C9463000C94F7090C9463000C94630017
:100040000C9435040C9463000C9463000C946300CE
:100050000C941C0B0C94740B0C9463000C946300B4
:100060000C9463000C9463000C9463000C94630084
:100070000C94CE0B0C94260C0C9463008A028E0216
:1000800095029902A002A402AB02AF0211241FBE86
:10009000CFEFD8E0DEBFCDBF11E0A0E0B1E0E8E4F3
:1000A000F7E302C005900D92AC34B107D9F725E013
:1000B000ACE4B1E001C01D92A13DB207E1F70E949E
:1000C00078030C94A21B0C940000CF93DF9300D014
:1000D00000D01F92CDB7DEB79C838B836D8385E004
:1000E00090E09A8389838D81882381F48B819C8120
:1000F000FC018081282F30E089819A8102C0880F1D
:10010000991F2A95E2F79A83898312C08B819C817B
:10011000FC018081882F90E09C0121503109898168
:100120009A8102C0880F991F2A95E2F79A838983E2
:1001300080914E0190914F0120E04AE050E060E054
:1001400070E00E94FC0E20910C0130910D0189811C
:100150009A818227932790930D0180930C018091BF
:100160004E0190914F0120E040E050E060E070E0EF
:100170000E94EB0D0F900F900F900F900F90DF915A
:10018000CF910895CF93DF9300D0CDB7DEB79A8398
:10019000898386E290E0FC018081882F90E0807462
:1001A0009927892B61F580910A0190910B0118160E
:1001B00019062CF5809150019091510120E04AE000
:1001C00050E060E070E00E94FC0E80910A01909186
:1001D0000B01019790930B0180930A0180915001CC
:1001E0009091510120E040E050E060E070E00E941A
:1001F000EB0D60E08AE091E00E94650034C086E289
:1002000090E0FC018081882F90E081709927892BF4
:1002100051F580910A0190910B01089724F5809186
:1002200050019091510120E04AE050E060E070E020
:100230000E94FC0E80910A0190910B01019690930F
:100240000B0180930A01809150019091510120E0AF
:1002500040E050E060E070E00E94EB0D61E08AE079
:1002600091E00E94650082E390E00E94891391CFA3
:10027000CF93DF9300D000D01F92CDB7DEB79B8322
:100280008A830E94411B23E030E0B9010E94781963
:10029000898389818D5F89838A819B81FC0180812B
:1002A0009981890F89838981877089838A819B815C
:1002B0002981FC0120830F900F900F900F900F90D9
:1002C000DF91CF910895CF93DF9300D000D000D07D
:1002D000CDB7DEB79C838B837E836D838B819C81BE
:1002E0000196FC018081282F30E081E090E002C07F
:1002F000880F991F2A95E2F79A83898389819A81C9
:10030000809590959A8389838B819C81FC01808163
:100310008823A9F580914E0190914F0120E04AE099
:1003200050E060E070E00E94FC0E8B819C81FC013B
:100330008081882F90E02B813C81F9012081222F40
:1003400030E0220F331F245F3E4FF901408151817D
:1003500029813A8124233523880F991F845F9E4F7A
:10036000FC013183208380914E0190914F0120E068
:1003700040E050E060E070E00E94EB0D1EC08B8119
:100380009C81FC018081882F90E02B813C81F901C8
:100390002081222F30E0220F331F245F3E4FF901CE
:1003A0004081518129813A8124233523880F991F67
:1003B000845F9E4FFC01318320838D819E81FC01EF
:1003C00020818B819C81FC0120838B819C81019603
:1003D0002D813E81F9012181FC0120838B819C814B
:1003E0000196FC018081282F30E081E090E002C07E
:1003F000880F991F2A95E2F79A8389838B819C81C4
:10040000FC0180818823A9F580914E0190914F01D4
:1004100020E04AE050E060E070E00E94FC0E8B813A
:100420009C81FC018081882F90E02B813C81F90127
:100430002081222F30E0220F331F245F3E4FF9012D
:100440004081518129813A81242B352B880F991FB6
:10045000845F9E4FFC013183208380914E019091F7
:100460004F0120E040E050E060E070E00E94EB0DC2
:100470001EC08B819C81FC018081882F90E02B81A4
:100480003C81F9012081222F30E0220F331F245FAD
:100490003E4FF9014081518129813A81242B352B2E
:1004A000880F991F845F9E4FFC013183208326961D
:1004B0000FB6F894DEBF0FBECDBFDF91CF91089588
:1004C000CF93DF93CDB7DEB727970FB6F894DEBF93
:1004D0000FBECDBF9F838E8387E0898385E08A83AB
:1004E0001B8289818C838A818D838B81882F90E008
:1004F000092E000CAA0BBB0B40E050E027E030E0D7
:10050000841B950B2817390788F1825C9F4FFC01EB
:100510000C94AE198D8181508D8328C08C818F5FA2
:100520008C838D8181508D8321C08C818F5F8C83E2
:100530001DC08C818F5F8C838D818F5F8D8316C0F2
:100540008D818F5F8D8312C08C8181508C838D81D2
:100550008F5F8D830BC08C8181508C8307C08C8111
:1005600081508C838D8181508D8300008C818D30F2
:1005700018F48D818A3028F0CE0103960E9438014C
:1005800024C08C818823D1F48D81282F30E0809184
:100590000A0190910B012817390759F08D81282FF6
:1005A00030E080910A0190910B01019628173907DC
:1005B00029F4CE0103960E94380107C0CE010496AB
:1005C000BC01CE0101960E9463018CE390E00E9481
:1005D000891387CFCF93DF93CDB7DEB780915201D8
:1005E00090915301892B49F48BE290E02BE230E0AB
:1005F000F90120812460FC0120838BE290E02BE252
:1006000030E0F90120812062FC0120838BE290E040
:100610002BE230E0F90120812F7DFC0120838BE269
:1006200090E02BE230E0F90120812061FC01208381
:100630008BE290E02BE230E0F90120812F7EFC017B
:10064000208382E290E02091520130915301220FE9
:10065000331F245F3E4FF901208131812095FC0139
:10066000208385E290E025E230E0F90120812360DB
:10067000FC01208385E290E025E230E0F901408131
:100680002091520130915301220F331F245F3E4FBE
:10069000F90120813181232F3327237020952423D2
:1006A000FC0120838BE290E02BE230E0F901208115
:1006B0002B7FFC0120838091520190915301019680
:1006C0009093530180935201809152019091530174
:1006D0000E9724F01092530110925201DF91CF91A6
:1006E0000895CF93DF93CDB7DEB7DF91CF91089513
:1006F000EF92FF920F93CF93DF93CDB7DEB70E94B7
:100700006B048BE290E02BE230E0F90120812F7B3B
:10071000FC0120838EE140E061E00E94140D909383
:100720004D0180934C0181E00E94CB0D90934F01CD
:1007300080934E0181E00E94CB0D909351018093F4
:10074000500180914C0190914D010E94F103E12CE8
:10075000F12C03E020E030E045E550E06CE371E08F
:1007600082EC90E00E94AF11E12CF12C04E020E03B
:1007700030E045E550E061E471E080E692E00E94FF
:10078000AF118AEE92E00E9403040E94AB13FFCFE8
:10079000CF93DF9300D000D0CDB7DEB79B838A83A1
:1007A0006C838091560190915701892B99F01982A1
:1007B0008091560190915701BE016C5F7F4F20E000
:1007C000AE014F5F5F4F0E949D0E8981882311F01B
:1007D0000E94E0080F900F900F900F90DF91CF9143
:1007E0000895CF93DF9300D0CDB7DEB79A83898386
:1007F00089819A8190935701809356010F900F90B1
:10080000DF91CF910895CF93DF9300D0CDB7DEB7BE
:100810009A83898389819A819093590180935801A1
:1008200087E490E02AE0FC01208384E490E024E463
:1008300030E0F90120812260FC0120838EE690E007
:100840002EE630E0F90120812260FC01208385E45E
:1008500090E025E430E0F90120812560FC0120834F
:100860000F900F90DF91CF9108951F920F920090FB
:100870005F000F9211242F933F934F935F936F93D9
:100880007F938F939F93AF93BF93EF93FF93CF93F8
:10089000DF93CDB7DEB78091580190915901892B34
:1008A00031F08091580190915901FC010995DF9137
:1008B000CF91FF91EF91BF91AF919F918F917F91D8
:1008C0006F915F914F913F912F910F9000925F0038
:1008D0000F901F9018958F929F92AF92BF92CF92D8
:1008E000DF92EF920F93CF93DF93CDB7DEB78AE518
:1008F00091E00E94FD048DE691E00E94FD040F2E20
:10090000F8EC8F2EF3E09F2EF02D0F2EFDE6AF2E8C
:10091000F1E0BF2EF02D0F2EFAE5CF2EF1E0DF2E05
:10092000F02DE12C00E023E040E052EC61E070E0CB
:1009300080E00E945B0A909355018093540188E205
:1009400090E028E230E0F9012081236CFC01208353
:100950008BE290E02BE230E0F90120812860FC017D
:1009600020838AE290E02AE230E0F90120812467C6
:10097000FC0120838BE290E02BE230E0F901208142
:100980002064FC01208381E290E0FC01808181E20F
:1009900090E02FEFFC01208384E290E024E230E03D
:1009A000F90120812360FC01208384E290E024E2AD
:1009B00030E0F90120812C63FC012083DF91CF918D
:1009C0000F91EF90DF90CF90BF90AF909F908F905E
:1009D0000895CF93DF931F92CDB7DEB789830F9031
:1009E000DF91CF910895CF93DF931F92CDB7DEB7FC
:1009F00089830F90DF91CF910895CF93DF9300D03B
:100A0000CDB7DEB79A83898389819A81FC01108AE8
:100A100089819A81FC01118A89819A81FC01128A5B
:100A20000F900F90DF91CF910895CF93DF9300D077
:100A300000D0CDB7DEB79A8389837C836B838981AD
:100A40009A81FC018289882381F189819A81FC0144
:100A50008189882F90E029813A81820F931FFC01C0
:100A600020818B819C81FC01208389819A81FC01FA
:100A70008189882F90E001968F709078992324F4D3
:100A80000197806F9F6F0196282F89819A81FC01C1
:100A9000218B89819A81FC0182892FEF280F89811E
:100AA0009A81FC01228B80E001C081E00F900F90C1
:100AB0000F900F90DF91CF910895CF93DF9300D0E7
:100AC0001F92CDB7DEB79A8389836B8389819A8120
:100AD000FC018289803168F589819A81FC018089D5
:100AE000882F90E029813A81820F931F2B81FC018E
:100AF000208389819A81FC018089882F90E001966A
:100B00008F709078992324F40197806F9F6F0196DE
:100B1000282F89819A81FC01208B89819A81FC018F
:100B2000828921E0280F89819A81FC01228B80E053
:100B300001C082E00F900F900F90DF91CF91089548
:100B4000CF93DF9300D0CDB7DEB79A8389838981B5
:100B50009A819C012D5F3F4F89819A81FC013283EC
:100B6000218389819A812FEF3FEFFC013483238316
:100B700089819A819C012D5F3F4F89819A81FC0177
:100B80003683258389819A819C012D5F3F4F89811E
:100B90009A81FC013087278389819A81FC01108228
:100BA0000F900F90DF91CF910895CF93DF9300D0F6
:100BB000CDB7DEB79A83898389819A81FC0111863A
:100BC00010860F900F90DF91CF910895CF93DF9310
:100BD00000D000D000D0CDB7DEB79C838B837E835E
:100BE0006D838B819C81FC01818192819A838983B1
:100BF0008D819E8129813A81FC0133832283898101
:100C00009A81FC01248135818D819E81FC0135838F
:100C1000248389819A81FC01848195812D813E8183
:100C2000FC013383228389819A812D813E81FC01DD
:100C3000358324838D819E812B813C81FC0131870A
:100C400020878B819C81FC01808121E0280F8B8192
:100C50009C81FC01208326960FB6F894DEBF0FBE60
:100C6000CDBFDF91CF910895CF93DF93CDB7DEB79E
:100C700028970FB6F894DEBF0FBECDBF9E838D833D
:100C800078876F838F819885FC01808191819C8317
:100C90008B838B819C81019641F48D819E81FC0127
:100CA000878190859A8389831AC08D819E8103965E
:100CB0009A83898307C089819A81FC01828193810B
:100CC0009A83898389819A81FC0182819381FC01C5
:100CD000208131818B819C818217930760F7898104
:100CE0009A81FC01228133818F819885FC013383B5
:100CF00022838F819885FC01828193812F813885A1
:100D0000FC01358324838F81988529813A81FC01F8
:100D10003583248389819A812F813885FC0133832F
:100D200022838F8198852D813E81FC013187208728
:100D30008D819E81FC01808121E0280F8D819E8123
:100D4000FC01208328960FB6F894DEBF0FBECDBFFE
:100D5000DF91CF910895CF93DF9300D000D0CDB72E
:100D6000DEB79C838B838B819C81FC018085918580
:100D70009A8389838B819C81FC01828193812B8161
:100D80003C81F90124813581FC01358324838B81E9
:100D90009C81FC01848195812B813C81F901228118
:100DA0003381FC013383228389819A81FC01218173
:100DB00032818B819C812817390751F48B819C816A
:100DC000FC012481358189819A81FC013283218350
:100DD0008B819C81FC011186108689819A81FC019E
:100DE00080812FEF280F89819A81FC0120838981DE
:100DF0009A81FC0180810F900F900F900F90DF91EE
:100E0000CF910895CF93DF93CDB7DEB728970FB674
:100E1000F894DEBF0FBECDBF9C838B837E836D8332
:100E200058874F838B819C8121E1FC0120838B813A
:100E30009C8101979C838B838B819C8122E2FC01A6
:100E400020838B819C8101979C838B838B819C81E8
:100E500023E3FC0120838B819C8101979C838B83FE
:100E60008D819E819A83898329818B819C81FC015C
:100E700020838B819C8101979C838B8389819A81BC
:100E8000892F99279A83898329818B819C81FC01F1
:100E900020838B819C8101979C838B838B819C8198
:100EA000FC0110828B819C8101979C838B838B81B9
:100EB0009C8120E8FC0120838B819C8101979C838D
:100EC0008B838B819C81FC0110828B819C8101979B
:100ED0009C838B838B819C8122E0FC0120838B810E
:100EE0009C8101979C838B838B819C8123E0FC01F7
:100EF00020838B819C8101979C838B838B819C8138
:100F000024E0FC0120838B819C8101979C838B834F
:100F10008B819C8125E0FC0120838B819C81019742
:100F20009C838B838B819C8126E0FC0120838B81B9
:100F30009C8101979C838B838B819C8127E0FC01A2
:100F400020838B819C8101979C838B838B819C81E7
:100F500028E0FC0120838B819C8101979C838B83FB
:100F60008B819C8129E0FC0120838B819C810197EE
:100F70009C838B838B819C8120E1FC0120838B816E
:100F80009C8101979C838B838B819C8121E1FC0157
:100F900020838B819C8101979C838B838B819C8197
:100FA00022E1FC0120838B819C8101979C838B83B0
:100FB0008B819C8123E1FC0120838B819C810197A3
:100FC0009C838B838B819C8124E1FC0120838B811A
:100FD0009C8101979C838B838B819C8125E1FC0103
:100FE00020838B819C8101979C838B838B819C8147
:100FF00026E1FC0120838B819C8101979C838B835C
:101000008B819C8127E1FC0120838B819C8101974E
:101010009C838B838B819C8128E1FC0120838B81C5
:101020009C8101979C838B838B819C8129E1FC01AE
:1010300020838B819C8101979C838B838B819C81F6
:1010400020E2FC0120838B819C8101979C838B8310
:101050008B819C8121E2FC0120838B819C81019703
:101060009C838B838B819C8122E2FC0120838B817A
:101070009C8101979C838B838B819C8123E2FC0163
:1010800020838B819C8101979C838B838F819885A2
:101090009A83898329818B819C81FC0120838B81A8
:1010A0009C8101979C838B8389819A81892F9927C1
:1010B0009A83898329818B819C81FC0120838B8188
:1010C0009C8101979C838B838B819C8126E2FC0110
:1010D00020838B819C8101979C838B838B819C8156
:1010E00027E2FC0120838B819C8101979C838B8369
:1010F0008B819C8128E2FC0120838B819C8101975C
:101100009C838B838B819C8129E2FC0120838B81D2
:101110009C8101979C838B838B819C8120E3FC01C4
:1011200020838B819C8101979C838B838B819C8105
:1011300021E3FC0120838B819C8101979C838B831D
:101140008B819C8128960FB6F894DEBF0FBECDBF71
:10115000DF91CF910895CF93DF93CDB7DEB70E9493
:101160009609A0917005B0917105CD91CDBFDD912B
:10117000DEBFFF91EF91DF91CF91BF91AF919F9132
:101180008F917F916F915F914F913F912F911F911F
:101190000F91FF90EF90DF90CF90BF90AF909F9016
:1011A0008F907F906F905F904F903F902F901F9007
:1011B0000F900FBE0F90089581E0DF91CF910895B9
:1011C0000F920FB6F8940F921F9211242F923F9214
:1011D0004F925F926F927F928F929F92AF92BF9247
:1011E000CF92DF92EF92FF920F931F932F933F9333
:1011F0004F935F936F937F938F939F93AF93BF931F
:10120000CF93DF93EF93FF93A0917005B091710599
:101210000DB60D920EB60D920E946E15A09170053E
:10122000B0917105CD91CDBFDD91DEBFFF91EF9102
:10123000DF91CF91BF91AF919F918F917F916F91EE
:101240005F914F913F912F911F910F91FF90EF90E0
:10125000DF90CF90BF90AF909F908F907F906F90D6
:101260005F904F903F902F901F900F900FBE0F9068
:1012700008950F920FB6F8940F921F9211242F9297
:101280003F924F925F926F927F928F929F92AF9216
:10129000BF92CF92DF92EF92FF920F931F932F9303
:1012A0003F934F935F936F937F938F939F93AF93EE
:1012B000BF93CF93DF93EF93FF93A0917005B0910D
:1012C00071050DB60D920EB60D920E948214882300
:1012D00011F00E946E15A0917005B0917105CD912D
:1012E000CDBFDD91DEBFFF91EF91DF91CF91BF9137
:1012F000AF919F918F917F916F915F914F913F91AE
:101300002F911F910F91FF90EF90DF90CF90BF90A2
:10131000AF909F908F907F906F905F904F903F9095
:101320002F901F900F900FBE0F900895CF93DF93D3
:1013300000D000D000D0CDB7DEB789E999E3A0E0B6
:10134000B0E089839A83AB83BC8389819A81AB8126
:10135000BC81689415F8B695A795979587951694CE
:10136000D1F789839A83AB83BC8389819A81AB81CE
:10137000BC810197A109B10989839A83AB83BC839E
:1013800089818D8389819A81AB81BC81892F9A2F34
:10139000AB2FBB2789839A83AB83BC8389818E83E0
:1013A00089E890E02E81FC01208388E890E02D817F
:1013B000FC0120838BE08D8381E890E02D81FC018E
:1013C00020838FE690E0FC0180818D838D81826097
:1013D0008D838FE690E02D81FC01208326960FB649
:1013E000F894DEBF0FBECDBFDF91CF9108950E946C
:1013F00039091895CF93DF9300D000D0CDB7DEB771
:101400009C838B831A8219820E94DF1380916A0564
:1014100090916B05892B31F481E891E090936B05F5
:1014200080936A0520916805309169058B819C81C4
:10143000820F931F873E934038F5209168053091C5
:1014400069058B819C81280F391F809168059091D7
:10145000690582179307C0F420916A0530916B05E6
:101460008091680590916905820F931F9A83898303
:1014700020916805309169058B819C81820F931FB3
:1014800090936905809368050E94EB1389819A8186
:101490000F900F900F900F90DF91CF910895CF9301
:1014A000DF9300D0CDB7DEB79A8389830F900F907A
:1014B000DF91CF9108958F929F92AF92BF92CF927A
:1014C000DF92EF920F931F93CF93DF93CDB7DEB7E9
:1014D00065970FB6F894DEBF0FBECDBF8C834D83EA
:1014E0005E836F83788729870A87EB86DD86CC86C3
:1014F000BF86AE86998A888A88E090E00E94C819E3
:101500009A8389838C81882F90E0880F991F845952
:101510009A4F29813A81FC01318320838C81882F65
:1015200090E0880F991F885D9E4FFC0120813181DA
:1015300089819A81FC013183208389819A812E855A
:101540003F85FC013383228389819A812C853D85E7
:10155000FC013583248389819A8128893989FC019A
:10156000378326838FE590E0FC0180818B83F8949C
:1015700089819A81FC0180819181069729813A8134
:10158000F9012081318126503109F9012081226041
:10159000FC01208389819A81FC01808191818C01E9
:1015A000025011098D819E81AF81B885880F991FE6
:1015B000AA1FBB1F880F991FAA1FBB1F880F991F47
:1015C000AA1FBB1F9C01AD0180E090E0A1EEB0E03E
:1015D000BC01CD010E948C19DA01C9018150F801CA
:1015E000808389819A81FC0180819181059728E916
:1015F000FC01208389819A81FC018081918104977B
:1016000026E0FC0120838FE590E02B81FC01208304
:1016100089819A8165960FB6F894DEBF0FBECDBF63
:10162000DF91CF911F910F91EF90DF90CF90BF90FE
:10163000AF909F908F9008951F920F9200905F003F
:101640000F9211242F933F934F935F936F937F9348
:101650008F939F93AF93BF93EF93FF93CF93DF93BA
:101660001F92CDB7DEB780916C0590916D05892BE7
:1016700031F186EC90E0FC018081898380916C05DA
:1016800090916D05FC018481958169810E945D05C1
:1016900080916C0590916D05FC0186819781892B65
:1016A00071F080916C0590916D05FC012681378168
:1016B00080916C0590916D056981F90109950F90F4
:1016C000DF91CF91FF91EF91BF91AF919F918F915A
:1016D0007F916F915F914F913F912F910F90009269
:1016E0005F000F901F9018951F920F9200905F005F
:1016F0000F9211242F933F934F935F936F937F9398
:101700008F939F93AF93BF93EF93FF93CF93DF9309
:101710001F92CDB7DEB780916C0590916D05892B36
:10172000F9F080916C0590916D05FC0182819381A7
:101730009E012F5F3F4FB9010E941505882331F4A8
:1017400086EC90E02981FC01208313C081EC90E0BD
:1017500021EC30E0F90120812F7DFC01208309C0BC
:1017600081EC90E021EC30E0F90120812F7DFC013B
:1017700020830F90DF91CF91FF91EF91BF91AF91B7
:101780009F918F917F916F915F914F913F912F9199
:101790000F9000925F000F901F9018951F920F926C
:1017A00000905F000F9211242F933F934F935F930C
:1017B0006F937F938F939F93AF93BF93EF93FF9319
:1017C000CF93DF931F92CDB7DEB780916E059091D6
:1017D0006F05892B31F18EEC90E0FC0180818983CB
:1017E00080916E0590916F05FC01848195816981DE
:1017F0000E945D0580916E0590916F05FC018681C8
:101800009781892B71F080916E0590916F05FC0195
:101810002681378180916E0590916F056981F9016C
:1018200009950F90DF91CF91FF91EF91BF91AF910B
:101830009F918F917F916F915F914F913F912F91E8
:101840000F9000925F000F901F9018951F920F92BB
:1018500000905F000F9211242F933F934F935F935B
:101860006F937F938F939F93AF93BF93EF93FF9368
:10187000CF93DF931F92CDB7DEB780916E05909125
:101880006F05892BF9F080916E0590916F05FC0131
:10189000828193819E012F5F3F4FB9010E94150500
:1018A000882331F48EEC90E02981FC01208313C061
:1018B00089EC90E029EC30E0F90120812F7DFC01DA
:1018C000208309C089EC90E029EC30E0F901208107
:1018D0002F7DFC0120830F90DF91CF91FF91EF913D
:1018E000BF91AF919F918F917F916F915F914F9138
:1018F0003F912F910F9000925F000F901F901895CD
:10190000CF93DF9300D000D01F92CDB7DEB79C837A
:101910008B836D838B819C819A8389830FB6F89426
:101920000F9289819A81FC018081918129813A817C
:10193000F901238D422F50E029813A81F901248D4C
:10194000222F30E0429FB001439F700D529F700DD7
:1019500011249B01280F391F89819A81FC0133834F
:10196000228389819A81FC01128E89819A81FC01EE
:101970002081318189819A81FC0135832483898189
:101980009A81FC018081918129813A81F901238D1D
:10199000222F30E0A9014150510929813A81F901F2
:1019A000248D222F30E0429FB001439F700D529F43
:1019B000700D11249B01280F391F89819A81FC0128
:1019C0003783268389819A812FEFFC01258F8981B6
:1019D0009A812FEFFC01268F8D81882381F48981E4
:1019E0009A81FC0180858823A1F089819A810896DB
:1019F0000E941516882369F00E94E0080AC08981B8
:101A00009A8108960E94A00589819A8141960E9438
:101A1000A0050F900FBE81E00F900F900F900F90D8
:101A20000F90DF91CF9108950F931F93CF93DF9382
:101A3000CDB7DEB729970FB6F894DEBF0FBECDBF86
:101A40008F83688749878885882319F41A821982C9
:101A50000FC08F81482F50E08885282F30E0429FAB
:101A6000C001439F900D529F900D11249A8389834A
:101A700089819A8181960E94FA099C838B838B814C
:101A80009C81892B81F08B819C8181969E838D83A3
:101A90002B813C818D819E8189012985AC016885DE
:101AA0008F810E94600D8B819C8129960FB6F894DE
:101AB000DEBF0FBECDBFDF91CF911F910F91089573
:101AC0000F931F93CF93DF93CDB7DEB727970FB652
:101AD000F894DEBF0FBECDBF89836A835C834B83DE
:101AE0002D831F830E838A81882341F48E819F81F9
:101AF0002E813F81FC013183208307C08E819F812D
:101B00002B813C81FC01318320838E819F8129813F
:101B1000FC01238F8E819F812A81FC01248F8E817D
:101B20009F8161E00E94800C8E819F812D81FC014C
:101B300020A327960FB6F894DEBF0FBECDBFDF916E
:101B4000CF911F910F910895CF93DF9300D0CDB720
:101B5000DEB79A83898389819A81892BB9F089813B
:101B60009A81FC011382128289819A81FC0111827F
:101B7000108289819A81FC01168289819A8120E0F4
:101B800040E050E060E070E00E94EB0D0F900F909D
:101B9000DF91CF910895CF93DF9300D000D01F92B3
:101BA000CDB7DEB78D8381E089831A824D816A814A
:101BB00089810E94140D9C838B838B819C810E9460
:101BC000A40D8B819C810F900F900F900F900F9020
:101BD000DF91CF910895CF93DF93CDB7DEB72E97E6
:101BE0000FB6F894DEBF0FBECDBF998788877B877D
:101BF0006A875D874C872E871982888599859B83A4
:101C00008A830FB6F8940F928A819B81FC01228D02
:101C10008A819B81FC01838D281718F08E85823084
:101C200011F52A853B858A819B814E85B9010E94E9
:101C3000F20F8C838A819B81FC018189882351F07A
:101C40008A819B8141960E941516882341F00E944B
:101C5000E00805C08C81882311F00E94E0080F90F5
:101C60000FBE81E061C08C859D85892B21F40F908A
:101C70000FBE80E059C08981882331F4CE010596DA
:101C80000E94821681E089830F900FBE0E94DF13AD
:101C90000FB6F8940F928A819B81FC01858D8F3F4E
:101CA00021F48A819B81FC01158E8A819B81FC0134
:101CB000868D8F3F21F48A819B81FC01168E0F90C7
:101CC0000FBE9E01245F3F4FCE010596B9010E94D1
:101CD0009D16882301F58A819B810E948D1188239E
:101CE00099F02C853D858A819B810896B9010E94D7
:101CF000F3158A819B810E9412110E94EB138823A5
:101D000091F40E94E0080FC08A819B810E94121109
:101D10000E94EB1376CF8A819B810E9412110E9450
:101D2000EB1380E001C06DCF2E960FB6F894DEBFA6
:101D30000FBECDBFDF91CF910895CF93DF93CDB785
:101D4000DEB72C970FB6F894DEBF0FBECDBF9F83D2
:101D50008E83798768875B874A872C878E819F81EE
:101D60009B838A831C828A819B81FC01228D8A81CC
:101D70009B81FC01838D281718F08C85823089F5B2
:101D80008A819B81FC01868D8D83288539858A8196
:101D90009B814C85B9010E94F20F8D818F3FB9F470
:101DA0008A819B81FC0181898823C1F08A819B8182
:101DB00041960E941516882389F08A859B85892B78
:101DC00069F08A859B8521E0FC01208307C08D8115
:101DD0008F5F282F8A819B81FC01268F81E0898378
:101DE00001C0198289812C960FB6F894DEBF0FBE10
:101DF000CDBFDF91CF910895CF93DF93CDB7DEB7FD
:101E000060970FB6F894DEBF0FBECDBF9B878A8761
:101E10007D876C875F874E87288B19828A859B8593
:101E20009B838A830FB6F8940F928A819B81FC0171
:101E3000828D8C838C81882309F451C08A819B8197
:101E4000FC01868197819E838D832C853D858A81C7
:101E50009B81B9010E94C2108889882331F58C8149
:101E60002FEF280F8A819B81FC01228F8A819B8121
:101E7000FC0180819181892B41F40E94F7189C011B
:101E80008A819B81FC01338322838A819B81FC01AF
:101E90008085882301F18A819B8108960E9415160E
:101EA0008823C9F00E94E00816C08A819B812D8199
:101EB0003E81FC01378326838A819B81FC018189D5
:101EC000882349F08A819B8141960E9415168823B8
:101ED00011F00E94E0080F900FBE81E07AC08E855D
:101EE0009F85892B21F40F900FBE80E072C08981FD
:101EF000882331F4CE0107960E94821681E08983FF
:101F00000F900FBE0E94DF130FB6F8940F928A81D4
:101F10009B81FC01858D8F3F21F48A819B81FC018F
:101F2000158E8A819B81FC01868D8F3F21F48A81E9
:101F30009B81FC01168E0F900FBE9E01225F3F4FCA
:101F4000CE010796B9010E949D16882399F58A81D2
:101F50009B810E946F11882331F18A819B81FC0152
:101F600080819181892B61F40FB6F8940F928A8158
:101F70009B81FC01828193810E94E3170F900FBE29
:101F80002E853F858A819B814196B9010E94F31578
:101F90008A819B810E9412110E94EB138823C1F455
:101FA0000E94E00815C08A819B810E9412110E9444
:101FB000EB1338CF8A819B810E9412110E94EB1390
:101FC0008A819B810E946F11882311F080E001C0FB
:101FD00029CF60960FB6F894DEBF0FBECDBFDF915C
:101FE000CF910895CF93DF93CDB7DEB727970FB684
:101FF000F894DEBF0FBECDBF9C838B837E836D8341
:102000004F8319828B819C81FC01828D8A838B8115
:102010009C81FC01848D8823B1F48B819C81FC011F
:1020200080819181892B09F09CC08B819C81FC016E
:10203000828193810E947A1889838B819C81FC0123
:10204000138212828EC08F818823D9F58B819C8167
:10205000FC01848D482F50E08B819C81FC018481A0
:1020600095812D813E81B9010E94511B8B819C81FC
:10207000FC01248135818B819C81FC01848D882F1A
:1020800090E0280F391F8B819C81FC0135832483CC
:102090008B819C81FC01248135818B819C81FC0199
:1020A000828193812817390708F45BC08B819C815A
:1020B000FC01208131818B819C81FC01358324834B
:1020C00050C08B819C81FC01848D482F50E08B8116
:1020D0009C81FC01868197812D813E81B9010E94FE
:1020E000511B8B819C81FC01268137818B819C81D6
:1020F000FC01848D882F90E0919581959109280F9E
:10210000391F8B819C81FC01378326838B819C81C5
:10211000FC01268137818B819C81FC01808191812A
:1021200028173907A8F48B819C81FC012281338117
:102130008B819C81FC01848D882F90E09195819505
:102140009109280F391F8B819C81FC0137832683DD
:102150008F81823031F48A81882319F08A818150FD
:102160008A838A8121E0280F8B819C81FC01228F48
:10217000898127960FB6F894DEBF0FBECDBFDF91E1
:10218000CF910895CF93DF9300D000D0CDB7DEB7C5
:102190009A8389837C836B8389819A81FC01848DF6
:1021A0008823C9F189819A81FC012681378189813F
:1021B0009A81FC01848D882F90E0280F391F898136
:1021C0009A81FC013783268389819A81FC012681CB
:1021D000378189819A81FC0182819381281739078F
:1021E00050F089819A81FC012081318189819A8115
:1021F000FC013783268389819A81FC01848D482FD5
:1022000050E089819A81FC01268137818B819C81F4
:10221000B9010E94511B0F900F900F900F90DF910A
:10222000CF910895CF93DF9300D000D0CDB7DEB724
:102230009C838B830FB6F8940F928B819C81FC0159
:10224000868D898314C08B819C81FC0181898823C0
:1022500051F08B819C8141960E941516882321F0B4
:102260000E94051701C006C0898181508983898138
:1022700018164CF38B819C812FEFFC01268F0F9059
:102280000FBE0FB6F8940F928B819C81FC01858D57
:102290008A8314C08B819C81FC018085882369F02E
:1022A0008B819C8108960E941516882311F00E944C
:1022B00005178A8181508A8301C003C08A8118165C
:1022C0004CF38B819C812FEFFC01258F0F900FBE6B
:1022D0000F900F900F900F90DF91CF910895CF93B3
:1022E000DF9300D01F92CDB7DEB79B838A830FB6F2
:1022F000F8940F928A819B81FC01828D882319F4C6
:1023000081E0898301C019820F900FBE89810F90EF
:102310000F900F90DF91CF910895CF93DF9300D06E
:102320001F92CDB7DEB79B838A830FB6F8940F92C6
:102330008A819B81FC01228D8A819B81FC01838D96
:10234000281719F481E0898301C019820F900FBE0C
:1023500089810F900F900F90DF91CF9108958F9208
:102360009F92AF92BF92CF92DF92EF92FF920F9324
:102370001F93CF93DF93CDB7DEB760970FB6F89476
:10238000DEBF0FBECDBF9F838E83798768875B8753
:102390004A873D872C870E87F88AEF868A859B853A
:1023A0000E94FA099D838C838C819D81892BB9F0D1
:1023B0008CE290E00E94FA099A83898389819A814C
:1023C000892B41F089819A812C813D81FC01308FDC
:1023D000278B07C08C819D810E944F0A02C01A8200
:1023E000198289819A81892B09F18A859B85CC0183
:1023F000A0E0B0E009811A814F8558892C853D8580
:1024000068857985EE81FF81812C912C58016A01C4
:10241000EE8489019C01AD01CF010E942C128981BB
:102420009A810E94061381E08B8302C08FEF8B8319
:102430008B8160960FB6F894DEBF0FBECDBFDF91E3
:10244000CF911F910F91FF90EF90DF90CF90BF90B1
:10245000AF909F908F9008958F929F92AF92BF926E
:10246000CF92DF92EF920F931F93CF93DF93CDB76D
:10247000DEB764970FB6F894DEBF0FBECDBF9D8365
:102480008C837F836E83288739874A875B871D8784
:102490000C87EE86D88ACF86BA8AA98A9C8A8B8ACC
:1024A0002885398589899A89FC018789908DA901B8
:1024B00065EA70E00E945A1B89899A89FC01278984
:1024C000308D888599850197820F931F9B838A831E
:1024D000198222C08981882F90E02981222F30E043
:1024E0004E815F81240F351FF901408129893A8986
:1024F000820F931F4996FC0140838981882F90E0C9
:102500002E813F81820F931FFC018081882309F473
:1025100006C089818F5F898389818830D8F2898953
:102520009A89FC0110A28E85843010F083E08E879A
:1025300089899A892E85FC01268B89899A892E851D
:10254000FC0123A389899A89FC0114A289899A89AB
:1025500002960E94D50589899A890C960E94D50514
:1025600089899A8929893A89FC01318720878E8552
:10257000882F90E024E030E0281B390B89899A8964
:10258000FC013587248789899A8929893A89FC0140
:10259000338B228B89899A89FC0116A215A289891D
:1025A0009A89FC0117A210A611A612A689899A89F8
:1025B000FC0113A64C855D852C813D818A819B8120
:1025C000B9010E9402079C0189899A89FC01318323
:1025D00020838F859889892B39F08F85988929895F
:1025E0003A89FC013183208364960FB6F894DEBFEC
:1025F0000FBECDBFDF91CF911F910F91EF90DF9074
:10260000CF90BF90AF909F908F900895CF93DF931E
:1026100000D0CDB7DEB79A8389830FB6F8940F92B6
:102620008091BF058F5F8093BF0580917005909169
:102630007105892B69F489819A8190937105809342
:1026400070058091BF058130C9F40E94211716C022
:102650008091C305882391F4809170059091710554
:10266000FC01268989819A81FC018689821730F0D4
:1026700089819A8190937105809370058091C70537
:102680008F5F8093C7052091C70589819A81FC01DE
:1026900021A389819A81FC0196898091C2058917BD
:1026A00030F489819A81FC0186898093C2058981F1
:1026B0009A81AC014E5F5F4F89819A81FC018689C6
:1026C000282F30E0C901880F991F880F991F880FA4
:1026D000991F820F931F8E589A4FBA010E94E605E8
:1026E0000F900FBE8091C305882371F08091700513
:1026F00090917105FC01268989819A81FC01868966
:10270000281710F40E94E0080F900F90DF91CF91EE
:102710000895CF93DF9300D01F92CDB7DEB79B8390
:102720008A8319828A819B81892B51F00E94DF1351
:102730008A819B8160E00E9411190E94EB138983BA
:102740008981882311F40E94E0080F900F900F9068
:10275000DF91CF910895EF92FF920F93CF93DF9384
:102760001F92CDB7DEB70F2EFAECEF2EF5E0FF2E5D
:10277000F02D00E020E030E045E550E066E471E057
:102780008FE097E10E94AF1189838981813081F4C4
:10279000F8948FEF9FEF9093C9058093C80581E06F
:1027A0008093C3051092C1051092C0050E94AB082A
:1027B0000F90DF91CF910F91FF90EF900895CF93FD
:1027C000DF93CDB7DEB78091CC058F5F8093CC05CA
:1027D000DF91CF910895CF93DF9300D000D0CDB794
:1027E000DEB71A8219821B820FB6F8940F9280917D
:1027F000CC0581508093CC058091CC05882309F0CD
:1028000077C08091BF05882309F472C049C08091C8
:10281000B1059091B205FC01868197819A838983E5
:1028200089819A810C960E94AB0689819A810296D1
:102830000E94AB0689819A81FC0196898091C2052C
:10284000891730F489819A81FC0186898093C205B9
:1028500089819A81AC014E5F5F4F89819A81FC0129
:102860008689282F30E0C901880F991F880F991F8A
:10287000880F991F820F931F8E589A4FBA010E949A
:10288000E60589819A81FC012689809170059091E5
:102890007105FC018689281718F081E08093C50531
:1028A0008091AC05882309F0B2CF89819A81892B68
:1028B00011F00E94B5178091C4058C838C81882308
:1028C00079F00E948214882319F081E08093C50575
:1028D0008C8181508C838C81882399F71092C40558
:1028E0008091C505882321F081E08B830E94E00858
:1028F0000F900FBE8B810F900F900F900F90DF9174
:10290000CF910895CF93DF93CDB7DEB729970FB658
:10291000F894DEBF0FBECDBF19828091CC0588230D
:1029200009F0C7C08091C0059091C10501969B83B5
:102930008A838A819B819093C1058093C0058A8197
:102940009B81892BD9F48091A8059091A9059D833D
:102950008C838091AA059091AB059093A9058093F3
:10296000A8058C819D819093AB058093AA058091E9
:10297000C6058F5F8093C6050E94B5178091C80574
:102980009091C9052A813B812817390708F477C03F
:102990008091A8059091A905FC018081882339F4D4
:1029A0008FEF9FEF9093C9058093C80568C0809111
:1029B000A8059091A905FC0185819681FC0186817D
:1029C00097819F838E838E819F81FC018281938179
:1029D000998788872A813B818885998528173907B7
:1029E00038F4888599859093C9058093C80547C0B8
:1029F0008E819F8102960E94AB068E819F81FC0191
:102A000084899589892B29F08E819F810C960E945B
:102A1000AB068E819F81FC0196898091C205891742
:102A200030F48E819F81FC0186898093C2058E815E
:102A30009F81AC014E5F5F4F8E819F81FC01868933
:102A4000282F30E0C901880F991F880F991F880F20
:102A5000991F820F931F8E589A4FBA010E94E60564
:102A60008E819F81FC01268980917005909171056E
:102A7000FC018689281710F081E0898389CF809135
:102A8000700590917105FC018689282F30E0C901FD
:102A9000880F991F880F991F880F991F820F931F06
:102AA0008E589A4FFC018081823010F081E089833A
:102AB00005C08091C4058F5F8093C4058091C505D2
:102AC000882311F081E08983898129960FB6F894D3
:102AD000DEBF0FBECDBFDF91CF910895CF93DF93BF
:102AE00000D01F92CDB7DEB78091CC05882321F0AE
:102AF00081E08093C50571C01092C5058091700575
:102B000090917105FC0185A196A10E94F30480912A
:102B1000C205898303C08981815089838981282FD7
:102B200030E0C901880F991F880F991F880F991FDE
:102B3000820F931F8E589A4FFC018081882359F38E
:102B40008981282F30E0C901880F991F880F991FAC
:102B5000880F991F820F931F8E589A4F9B838A83E9
:102B60008A819B81FC0181819281FC0122813381D8
:102B70008A819B81FC01328321838A819B81FC01B4
:102B8000218132818A819B8103962817390769F454
:102B90008A819B81FC0181819281FC0122813381A8
:102BA0008A819B81FC01328321838A819B81FC0184
:102BB00081819281FC018681978190937105809338
:102BC000700589818093C20580917005909171058F
:102BD000FC0185A196A10E94E9040F900F900F902F
:102BE000DF91CF910895CF93DF9300D000D0CDB780
:102BF000DEB79A8389837C836B8380917005909183
:102C000071059C01245F3F4F89819A81B9010E941F
:102C100034068B819C8161E00E9411190F900F9006
:102C20000F900F90DF91CF910895CF93DF9300D055
:102C300000D01F92CDB7DEB79D838C838C819D81A0
:102C4000FC0185819681FC01868197819B838A8323
:102C50008A819B810C960E94AB068091CC058823CB
:102C600069F58A819B8102960E94AB068A819B81CD
:102C7000FC0196898091C205891730F48A819B8175
:102C8000FC0186898093C2058A819B81AC014E5FDD
:102C90005F4F8A819B81FC018689282F30E0C90122
:102CA000880F991F880F991F880F991F820F931FF4
:102CB0008E589A4FBA010E94E60508C08A819B810E
:102CC0000C96BC018CEA95E00E94E6058A819B8106
:102CD000FC0126898091700590917105FC0186891F
:102CE000821730F481E0898381E08093C50501C0BB
:102CF000198289810F900F900F900F900F90DF91A4
:102D0000CF910895CF93DF9300D0CDB7DEB79A83EC
:102D100089832091C60589819A81FC0120832091B5
:102D2000C0053091C10589819A81FC0132832183DC
:102D30000F900F90DF91CF910895CF93DF93CDB790
:102D4000DEB727970FB6F894DEBF0FBECDBF9D83C9
:102D50008C837F836E830FB6F8940F928091C005A9
:102D60009091C1059B838A838C819D81FC01908118
:102D70008091C605981769F08C819D81FC012181A5
:102D800032818A819B818217930718F081E08983C1
:102D900030C08C819D81FC01818192812A813B819F
:102DA000281B390B8E819F81FC018081918128171E
:102DB0003907E8F48E819F81FC01208131818C816B
:102DC0009D81FC01418152818A819B81BA01681BEE
:102DD000790BCB01280F391F8E819F81FC01318334
:102DE00020838C819D810E948216198202C081E01D
:102DF00089830F900FBE898127960FB6F894DEBFA6
:102E00000FBECDBFDF91CF910895CF93DF93CDB7A4
:102E1000DEB781E08093C505DF91CF910895CF9310
:102E2000DF9300D0CDB7DEB79A8389830E945E1707
:102E300080917205823010F00E94E0080E947103B8
:102E4000F5CFCF93DF931F92CDB7DEB7198213C0B2
:102E50008981282F30E0C901880F991F880F991F99
:102E6000880F991F820F931F8E589A4F0E94A005BA
:102E700089818F5F89838981843050F386E995E069
:102E80000E94A0058FE995E00E94A0058CEA95E0DC
:102E90000E94A00585EB95E00E94A00586E995E0DB
:102EA0009093A9058093A8058FE995E09093AB05D1
:102EB0008093AA050F90DF91CF910895CF93DF9370
:102EC00000D01F92CDB7DEB72FC00E94DF139091C4
:102ED000B50581E0992309F080E089830E94EB1316
:102EE0008981882309F50FB6F8940F928091BA056D
:102EF0009091BB05FC01868197819B838A838A819F
:102F00009B8102960E94AB068091BF058150809301
:102F1000BF058091BE0581508093BE050F900FBE06
:102F20008A819B810E949E178091BE05882369F645
:102F30000F900F900F90DF91CF910895CF93DF9373
:102F400000D0CDB7DEB79A83898389819A81FC014D
:102F50008789908D0E944F0A89819A810E944F0A29
:102F60000F900F90DF91CF910895CF93DF9300D012
:102F7000CDB7DEB78091A8059091A905FC018081AD
:102F8000882339F48FEF9FEF9093C9058093C8058C
:102F900015C08091A8059091A905FC0185819681B5
:102FA000FC01868197819A83898389819A81FC01BA
:102FB000828193819093C9058093C8050F900F90EB
:102FC000DF91CF910895CF93DF9300D000D0CDB79C
:102FD000DEB79C838B838B819C819A8389838B81D1
:102FE0009C81892B09F47FC089819A81FC01268903
:102FF0008091700590917105FC018689281708F071
:1030000072C089819A81FC018485958599238CF011
:103010008091700590917105FC018689882F90E060
:1030200024E030E0281B390B89819A81FC01358727
:10303000248789819A81FC014285538589819A81FF
:10304000FC018689282F30E0C901880F991F880F5D
:10305000991F880F991F820F931F8E589A4F4817F8
:103060005907B9F589819A8102960E94AB06809131
:10307000700590917105FC01268989819A81FC0176
:10308000268B89819A81FC0196898091C2058917D6
:1030900030F489819A81FC0186898093C2058981F7
:1030A0009A81AC014E5F5F4F89819A81FC018689CC
:1030B000282F30E0C901880F991F880F991F880FAA
:1030C000991F820F931F8E589A4FBA010E94E605EE
:1030D0000AC08091700590917105FC012689898153
:1030E0009A81FC01268B0F900F900F900F90DF912B
:1030F000CF910895CF93DF9300D000D01F92CDB72A
:10310000DEB79D838C838C819D819B838A8319820A
:103110008C819D81892B09F461C08A819B81FC018E
:1031200084A12FEF280F8A819B81FC0124A38A812F
:103130009B81FC0126898A819B81FC0183A1281740
:1031400009F44CC08A819B81FC0184A1882309F089
:1031500045C08A819B8102960E94AB068A819B8131
:10316000FC0123A18A819B81FC01268B8A819B81A2
:10317000FC018689882F90E024E030E0281B390B81
:103180008A819B81FC01358724878A819B81FC0190
:1031900096898091C205891730F48A819B81FC0150
:1031A00086898093C2058A819B81AC014E5F5F4F07
:1031B0008A819B81FC018689282F30E0C901880F14
:1031C000991F880F991F880F991F820F931F8E5880
:1031D0009A4FBA010E94E60581E0898389810F90A8
:1031E0000F900F900F900F90DF91CF910895CF9394
:1031F000DF93CDB7DEB78091700590917105892B73
:1032000049F08091700590917105FC0124A12F5F18
:10321000FC0124A38091700590917105DF91CF91FD
:103220000895CF93DF93CDB7DEB727970FB6F89405
:10323000DEBF0FBECDBF9E838D836F838091C0059F
:103240009091C1059A838983809170059091710551
:1032500002960E94AB0629813A818D819E81820F60
:10326000931F9C838B8380917005909171052B81B6
:103270003C81FC01338322832B813C8189819A81AB
:103280002817390778F480917005909171059C0199
:103290002E5F3F4F8091AA059091AB05B9010E9426
:1032A00034061DC080917005909171059C012E5FC0
:1032B0003F4F8091A8059091A905B9010E9434065D
:1032C0008091C8059091C9052B813C812817390749
:1032D00030F48B819C819093C9058093C805279613
:1032E0000FB6F894DEBF0FBECDBFDF91CF9108952A
:1032F00097FB072E16F4009407D077FD09D00E94A3
:10330000B41907FC05D03EF4909581959F4F089520
:10331000709561957F4F0895A1E21A2EAA1BBB1BE1
:10332000FD010DC0AA1FBB1FEE1FFF1FA217B30791
:10333000E407F50720F0A21BB30BE40BF50B661FA7
:10334000771F881F991F1A9469F76095709580956B
:1033500090959B01AC01BD01CF010895EE0FFF1FB9
:103360000590F491E02D0994AA1BBB1B51E107C005
:10337000AA1FBB1FA617B70710F0A61BB70B881F05
:10338000991F5A95A9F780959095BC01CD01089594
:10339000CF93DF938230910510F482E090E0E091CA
:1033A000CF05F091D00520E030E0C0E0D0E03097CC
:1033B00011F14081518148175907C0F0481759074A
:1033C00061F482819381209719F09B838A832BC0BB
:1033D0009093D0058093CF0526C02115310519F0B3
:1033E0004217530718F49A01BE01DF01EF01028072
:1033F000F381E02DDCCF2115310509F1281B390BB4
:103400002430310590F412968D919C91139761159B
:10341000710521F0FB019383828304C09093D00552
:103420008093CF05FD01329644C0FD01E20FF31FEA
:1034300081939193225031092D933C933AC020916E
:10344000CD053091CE05232B41F42091020130911E
:1034500003013093CE052093CD05209100013091DA
:1034600001012115310541F42DB73EB7409104010A
:1034700050910501241B350BE091CD05F091CE054F
:10348000E217F307A0F42E1B3F0B2817390778F03B
:10349000AC014E5F5F4F2417350748F04E0F5F1F9A
:1034A0005093CE054093CD058193919302C0E0E007
:1034B000F0E0CF01DF91CF9108950F931F93CF9349
:1034C000DF93009709F48CC0FC01329713821282BB
:1034D0000091CF051091D0050115110581F42081CF
:1034E0003181820F931F2091CD053091CE05281791
:1034F000390779F5F093CE05E093CD0571C0D80179
:1035000040E050E0AE17BF0750F412962D913C9169
:103510001397AD012115310509F1D901F3CF9D01B3
:10352000DA013383228360817181860F971F8217AE
:10353000930769F4EC0128813981260F371F2E5F2C
:103540003F4F318320838A819B8193838283452BE4
:1035500029F4F093D005E093CF0542C01396FC9375
:10356000EE931297ED01499159919E01240F351F59
:10357000E217F30771F480819181840F951F029601
:1035800011969C938E938281938113969C938E9334
:103590001297E0E0F0E0D80112968D919C9113977C
:1035A000009719F0F8018C01F6CF8D919C9198014C
:1035B0002E5F3F4F820F931F2091CD053091CE0596
:1035C0002817390769F4309729F41092D005109222
:1035D000CF0502C0138212821093CE050093CD0551
:1035E000DF91CF911F910F9108958F929F92AF928B
:1035F000BF92CF92DF92EF92FF92CF93DF93EC01D5
:10360000688179818A819B816115710581059105A8
:1036100021F464E279ED8BE597E02DE133EF41E0B1
:1036200050E00E94611B49015A019B01AC01A7EACD
:10363000B1E40E94801B6B017C01ACEEB4EFA501EC
:1036400094010E948E1BDC01CB018C0D9D1DAE1DD3
:10365000BF1DB7FF03C00197A109B04888839983B4
:10366000AA83BB839F77DF91CF91FF90EF90DF908C
:10367000CF90BF90AF909F908F9008950E94F51AC1
:10368000089586E091E00E94F51A0895A0E0B0E068
:103690008093060190930701A0930801B09309015C
:1036A0000895FB01DC0102C001900D924150504091
:1036B000D8F70895DC0101C06D9341505040E0F708
:1036C0000895052E97FB1EF400940E94781B57FD69
:1036D00007D00E948C1907FC03D04EF40C94781B81
:1036E00050954095309521953F4F4F4F5F4F08952E
:1036F00090958095709561957F4F8F4F9F4F08955E
:103700000E94931BA59F900DB49F900DA49F800DC8
:10371000911D11240895B7FF0C94801B0E94801BFB
:10372000821B930B0895A29FB001B39FC001A39F7A
:10373000700D811D1124911DB29F700D811D1124EA
:08374000911D0895F894FFCFDC
:103748000000D10520000100000004003000000046
:103758000000000000000000000000000000000061
:103768000000000000003000C600CE005468656EFE
:10377800207765205374617274210A0067616D6552
:0C3788000062616C6C0049444C4500007C
:00000001FF
