S01500004672656552544F532D546573742E7372656378
S11300000C9446000C9463000C9463000C946300FD
S11300100C9463000C9463000C9463000C946300D0
S11300200C9463000C9463000C9463000C946300C0
S11300300C9463000C94630B0C9463000C946300A5
S11300400C9488050C9463000C9463000C94630076
S11300500C94FF0C0C94570D0C9463000C946300E7
S11300600C9463000C9463000C9463000C94630080
S11300700C94B10D0C94090E0C946300E901EF018A
S1130080FA0100020B0211021C02220211241FBEFB
S1130090CFEFD8E0DEBFCDBF11E0A0E0B1E0EEE2EB
S11300A0FCE302C005900D92A234B107D9F727E012
S11300B0A2E4B1E001C01D92A73CB207E1F70E949F
S11300C01B040C94151E0C940000CF93DF93CDB742
S11300D0DEB789E290E0FC018081882F90E088708F
S11300E09927892B19F486E890E002C085E690E010
S11300F0DF91CF910895CF93DF93CDB7DEB70E9400
S1130100500185E690E0DF91CF910895CF93DF937E
S11301101F92CDB7DEB781E089830FC019820E9498
S1130120C601809145018E3020F4809146018A30C9
S113013020F00E94300281E089838981882371F74D
S11301400E94A30286E890E00F90DF91CF9108957A
S1130150CF93DF9300D0CDB7DEB79A8389838981AB
S11301609A8190934301809342010E94C20080EDE2
S113017097E00E94E5158BE790E00F900F90DF91D8
S1130180CF910895CF93DF93CDB7DEB7809142012D
S1130190909143014A9620EF30E0FC0131832083A3
S11301A08091420190914301489620E531E0FC01A1
S11301B0318320838091420190914301469620E24D
S11301C031E0FC013183208380914201909143010D
S11301D04496FC0111821082809142019091430166
S11301E0429620EE30E0FC0131832083809142016D
S11301F090914301409620E130E0FC01318320835B
S113020080914201909143010E9620EF30E0FC0171
S11302103183208380914201909143010C96FC012B
S11302201182108280914201909143010A9620E646
S113023030E0FC013183208380914201909143019D
S1130240089620E930E0FC0131832083809142014B
S113025090914301069620E630E0FC01318320832F
S1130260809142019091430104962CE030E0FC011E
S1130270318320838091420190914301029622E1CF
S113028030E0FC013183208380914201909143014D
S11302902EEF30E0FC0131832083DF91CF9108956C
S11302A0CF93DF93CDB7DEB78091420190914301A4
S11302B04A96FC011182108280914201909143017F
S11302C04896FC0111821082809142019091430171
S11302D04696FC0111821082809142019091430163
S11302E04496FC0111821082809142019091430155
S11302F04296FC0111821082809142019091430147
S11303004096FC0111821082809142019091430138
S11303100E96FC011182108280914201909143015A
S11303200C96FC011182108280914201909143014C
S11303300A96FC011182108280914201909143013E
S11303400896FC0111821082809142019091430130
S11303500696FC0111821082809142019091430122
S11303600496FC0111821082809142019091430114
S11303700296FC0111821082809142019091430106
S1130380FC0111821082DF91CF910895CF93DF9306
S1130390CDB7DEB780910A018093450180910B01AE
S11303A08093460180914401882F90E0092E000C2F
S11303B0AA0BBB0B40E050E027E030E0841B950B18
S11303C02817390708F449C0825C9F4FFC010C943C
S11303D0211C809146018150809346013EC080914A
S11303E045018F5F80934501809146018150809340
S11303F0460133C0809145018F5F809345012DC034
S1130400809145018F5F80934501809146018F5F04
S11304108093460122C0809146018F5F80934601FC
S11304201CC0809145018150809345018091460113
S11304308F5F8093460111C0809145018150809364
S113044045010BC080914501815080934501809105
S113045046018150809346010000DF91CF910895B9
S1130460CF93DF9300D01F92CDB7DEB780914401C4
S113047081708823B9F40E94B41D23E030E0B901EF
S11304800E94EB1B898389818D5F8983809144015C
S11304909981890F89838981877089838981809370
S11304A044014BC0809146018A3020F1809144017F
S11304B0882F90E08330910581F0843091051CF4FD
S11304C0019739F03AC08530910559F0079769F0E2
S11304D034C083E0809344010CC081E080934401E4
S11304E008C087E08093440104C085E08093440100
S11304F0000023C080914401882F90E0833091054F
S113050081F0843091051CF4019739F016C08530D0
S1130510910559F0079769F010C087E08093440172
S11305200CC085E08093440108C083E080934401BB
S113053004C081E08093440100000F900F900F905D
S1130540DF91CF910895CF93DF93CDB7DEB720919C
S113055042013091430180910A01882F90E0880F75
S1130560991F820F931F40914201509143012091A2
S11305700A01222F30E0220F331F240F351FF90107
S11305804081518120910B01622F70E021E030E025
S113059002C0220F331F6A95E2F761E0232B09F0B2
S11305A060E0262F30E024233523FC0131832083AF
S11305B08091450180930A018091460180930B014B
S11305C0209142013091430180910A01882F90E0EB
S11305D0880F991F820F931F40914201509143014C
S11305E020910A01222F30E0220F331F240F351FE0
S11305F0F9012081318140910B01642F70E041E0C9
S113060050E002C0440F551F6A95E2F7242B352BA6
S1130610FC0131832083DF91CF910895CF93DF9341
S1130620CDB7DEB727970FB6F894DEBF0FBECDBFA8
S11306309F838E831D828DE491E00E94FD049A8342
S113064089830E94DE169C838B8307C08D81298158
S11306503A81F90109959A838983809147019091A0
S11306604801BE016B5F7F4F20E040E050E00E94F4
S1130670DF10882359F7CE01039664E170E00E94ED
S11306806C15E3CFCF93DF93CDB7DEB729970FB6C1
S1130690F894DEBF0FBECDBF998788870E94DE160F
S11306A09F838E8380914D0190914E0120E040E024
S11306B050E0BE016F5F7F4F0E94DF10882331F04E
S11306C08D81682FCE0101960E94BE05CE0106964B
S11306D068E270E00E946C15E5CFCF93DF9300D001
S11306E000D000D0CDB7DEB79E838D838CE091E03F
S11306F00E94A8009A8389830E94DE169C838B83C0
S113070089819A81FC0109959A838983CE01039694
S113071060E570E00E946C15F3CFCF93DF93CDB703
S1130720DEB780914B0190914C01892B49F48BE207
S113073090E02BE230E0F90120812460FC01208369
S11307408BE290E02BE230E0F90120812062FC0191
S113075020838BE290E02BE230E0F90120812F7DB1
S1130760FC0120838BE290E02BE230E0F901208150
S11307702061FC0120838BE290E02BE230E0F90160
S113078020812F7EFC01208382E290E020914B01A6
S113079030914C01220F331F245F3E4FF901208119
S11307A031812095FC01208385E290E025E230E050
S11307B0F90120812360FC01208385E290E025E299
S11307C030E0F901408120914B0130914C01220F1E
S11307D0331F245F3E4FF90120813181232F3327BA
S11307E0237020952423FC0120838BE290E02BE2EC
S11307F030E0F90120812B7FFC01208380914B01A3
S113080090914C01019690934C0180934B018091FF
S11308104B0190914C010E9724F010924C011092D0
S11308204B01DF91CF910895CF93DF93CDB7DEB71E
S1130830DF91CF910895EF92FF920F93CF93DF93BF
S1130840CDB7DEB70E94D7058BE290E02BE230E013
S1130850F90120812F7BFC0120838EE140E061E0DF
S11308600E94F70E909348018093470140E065E0B1
S113087082E00E94F70E90934E0180934D0181E037
S11308800E94AE0F90934A018093490180914701E1
S1130890909148010E944405E12CF12C04E020E0F1
S11308A030E045E550E06CE271E08EE093E00E94B8
S11308B09213E12CF12C03E020E030E045E550E018
S11308C063E371E08DE693E00E949213E12CF12C36
S11308D000E020E030E045E550E068E371E082E4C8
S11308E093E00E9492138DE893E00E9456050E94C3
S11308F00716FFCFCF93DF931F92CDB7DEB789835F
S11309008981813619F487E994E002C08AE794E08A
S11309100F90DF91CF910895CF93DF93CDB7DEB7DA
S11309200E94C7048AE794E0DF91CF910895CF93A2
S1130930DF931F92CDB7DEB7898389818F3F19F486
S113094086EB94E00FC08981813629F40E94E80483
S11309508CE894E007C08981882F90E00E94D0043D
S113096087E994E00F90DF91CF910895CF93DF93BF
S11309701F92CDB7DEB789838981882F90E00E94CA
S1130980D00487E994E00F90DF91CF910895CF933D
S1130990DF93CDB7DEB710925301DF91CF91089565
S11309A0CF93DF931F92CDB7DEB789838091530134
S11309B0882F90E0815B9E4F2981FC0120838091E8
S11309C053018F5F809353010F90DF91CF9108956E
S11309D0CF93DF93CDB7DEB7809154019091550149
S11309E0FC018081918120E041E050E06FE471E0FE
S11309F00E94CE0FDF91CF910895CF93DF9300D063
S1130A00CDB7DEB79A83898389819A819093550102
S1130A108093540110924F01109250011092510191
S1130A2010925201109253018AE794E00F900F90B4
S1130A30DF91CF910895CF93DF9300D000D0CDB74D
S1130A40DEB79B838A836C8380915801909159010E
S1130A50892B99F019828091580190915901BE0116
S1130A606C5F7F4F20E0AE014F5F5F4F0E948010AC
S1130A708981882311F00E944C0A0F900F900F90E7
S1130A800F90DF91CF910895CF93DF9300D0CDB72E
S1130A90DEB79A83898389819A81909359018093DF
S1130AA058010F900F90DF91CF910895CF93DF936A
S1130AB000D0CDB7DEB79A83898389819A819093D8
S1130AC05B0180935A0187E490E02AE0FC012083D3
S1130AD084E490E024E430E0F90120812260FC0108
S1130AE020838EE690E02EE630E0F901208122603A
S1130AF0FC01208385E490E025E430E0F9012081C5
S1130B002560FC0120830F900F90DF91CF91089511
S1130B101F920F9200905F000F9211242F933F9326
S1130B204F935F936F937F938F939F93AF93BF93F1
S1130B30EF93FF93CF93DF93CDB7DEB780915A0144
S1130B4090915B01892B31F080915A0190915B0166
S1130B50FC010995DF91CF91FF91EF91BF91AF9186
S1130B609F918F917F916F915F914F913F912F91C1
S1130B700F9000925F000F901F901895CF93DF9312
S1130B8000D01F92CDB7DEB79A8389836B8380919F
S1130B9056019091570129813A814B81B9010E94F4
S1130BA0A00C0F900F900F90DF91CF9108958F922A
S1130BB09F92AF92BF92CF92DF92EF920F93CF9317
S1130BC0DF93CDB7DEB78CE591E00E9469068FE62E
S1130BD091E00E9469060F2EFBE18F2EF5E09F2E17
S1130BE0F02D0F2EFFE6AF2EF1E0BF2EF02D0F2ECD
S1130BF0FCE5CF2EF1E0DF2EF02DE12C00E023E028
S1130C0040E052EC61E070E080E00E94DF0B9093E2
S1130C1057018093560188E290E028E230E0F90120
S1130C202081236CFC0120838BE290E02BE230E0F6
S1130C30F90120812860FC0120838AE290E02AE205
S1130C4030E0F90120812467FC0120838BE290E0ED
S1130C502BE230E0F90120812064FC01208381E251
S1130C6090E0FC01808181E290E02FEFFC01208381
S1130C7084E290E024E230E0F90120812360FC0169
S1130C80208384E290E024E230E0F90120812C63A7
S1130C90FC012083DF91CF910F91EF90DF90CF90F3
S1130CA0BF90AF909F908F900895CF93DF931F9242
S1130CB0CDB7DEB789830F90DF91CF910895CF939D
S1130CC0DF931F92CDB7DEB789830F90DF91CF9169
S1130CD00895CF93DF9300D0CDB7DEB79A8389838D
S1130CE089819A81FC01108A89819A81FC01118A87
S1130CF089819A81FC01128A0F900F90DF91CF9124
S1130D000895CF93DF9300D000D0CDB7DEB79A8398
S1130D1089837C836B8389819A81FC0182898823FE
S1130D2081F189819A81FC018189882F90E0298150
S1130D303A81820F931FFC0120818B819C81FC01ED
S1130D40208389819A81FC018189882F90E0019612
S1130D508F709078992324F40197806F9F6F019688
S1130D60282F89819A81FC01218B89819A81FC0138
S1130D7082892FEF280F89819A81FC01228B80E0E0
S1130D8001C081E00F900F900F900F90DF91CF91F1
S1130D900895CF93DF9300D01F92CDB7DEB79A8327
S1130DA089836B8389819A81FC018289803168F50A
S1130DB089819A81FC018089882F90E029813A8178
S1130DC0820F931F2B81FC01208389819A81FC016E
S1130DD08089882F90E001968F709078992324F46D
S1130DE00197806F9F6F0196282F89819A81FC015A
S1130DF0208B89819A81FC01828921E0280F8981D5
S1130E009A81FC01228B80E001C082E00F900F9058
S1130E100F90DF91CF910895CF93DF9300D0CDB79A
S1130E20DEB79A83898389819A819C012D5F3F4F24
S1130E3089819A81FC013283218389819A812FEFF0
S1130E403FEFFC013483238389819A819C012D5FC8
S1130E503F4F89819A81FC013683258389819A8158
S1130E609C012D5F3F4F89819A81FC013087278344
S1130E7089819A81FC0110820F900F90DF91CF91AC
S1130E800895CF93DF9300D0CDB7DEB79A838983DB
S1130E9089819A81FC01118610860F900F90DF9151
S1130EA0CF910895CF93DF9300D000D000D0CDB779
S1130EB0DEB79C838B837E836D838B819C81FC0155
S1130EC0818192819A8389838D819E8129813A814E
S1130ED0FC013383228389819A81FC012481358139
S1130EE08D819E81FC013583248389819A81FC0153
S1130EF0848195812D813E81FC0133832283898104
S1130F009A812D813E81FC01358324838D819E81CC
S1130F102B813C81FC01318720878B819C81FC01E2
S1130F20808121E0280F8B819C81FC0120832696FF
S1130F300FB6F894DEBF0FBECDBFDF91CF910895F9
S1130F40CF93DF93CDB7DEB728970FB6F894DEBF03
S1130F500FBECDBF9E838D8378876F838F819885E5
S1130F60FC01808191819C838B838B819C81019680
S1130F7041F48D819E81FC01878190859A838983C8
S1130F801AC08D819E8103969A83898307C08981C3
S1130F909A81FC01828193819A83898389819A81D0
S1130FA0FC0182819381FC01208131818B819C81B0
S1130FB08217930760F789819A81FC01228133812A
S1130FC08F819885FC01338322838F819885FC016E
S1130FD0828193812F813885FC01358324838F811D
S1130FE0988529813A81FC013583248389819A81FA
S1130FF02F813885FC01338322838F8198852D814D
S11310003E81FC01318720878D819E81FC01808196
S113101021E0280F8D819E81FC01208328960FB644
S1131020F894DEBF0FBECDBFDF91CF910895CF936B
S1131030DF9300D000D0CDB7DEB79C838B838B8148
S11310409C81FC01808591859A8389838B819C8115
S1131050FC01828193812B813C81F90124813581BA
S1131060FC01358324838B819C81FC0184819581DF
S11310702B813C81F90122813381FC01338322835A
S113108089819A81FC01218132818B819C8128177D
S1131090390751F48B819C81FC012481358189813C
S11310A09A81FC01328321838B819C81FC0111860E
S11310B0108689819A81FC0180812FEF280F898114
S11310C09A81FC01208389819A81FC0180810F909F
S11310D00F900F900F90DF91CF910895CF93DF93EE
S11310E0CDB7DEB728970FB6F894DEBF0FBECDBFDD
S11310F09C838B837E836D8358874F838B819C81F4
S113110021E1FC0120838B819C8101979C838B834B
S11311108B819C8122E2FC0120838B819C8101973D
S11311209C838B838B819C8123E3FC0120838B81B3
S11311309C8101979C838B838D819E819A83898373
S113114029818B819C81FC0120838B819C81019767
S11311509C838B8389819A81892F99279A83898398
S113116029818B819C81FC0120838B819C81019747
S11311709C838B838B819C81FC0110828B819C815D
S113118001979C838B838B819C8120E8FC012083C5
S11311908B819C8101979C838B838B819C81FC0137
S11311A010828B819C8101979C838B838B819C8192
S11311B022E0FC0120838B819C8101979C838B839B
S11311C08B819C8123E0FC0120838B819C8101978E
S11311D09C838B838B819C8124E0FC0120838B8105
S11311E09C8101979C838B838B819C8125E0FC01EE
S11311F020838B819C8101979C838B838B819C8131
S113120026E0FC0120838B819C8101979C838B8346
S11312108B819C8127E0FC0120838B819C81019739
S11312209C838B838B819C8128E0FC0120838B81B0
S11312309C8101979C838B838B819C8129E0FC0199
S113124020838B819C8101979C838B838B819C81E0
S113125020E1FC0120838B819C8101979C838B83FB
S11312608B819C8121E1FC0120838B819C810197EE
S11312709C838B838B819C8122E1FC0120838B8165
S11312809C8101979C838B838B819C8123E1FC014E
S113129020838B819C8101979C838B838B819C8190
S11312A024E1FC0120838B819C8101979C838B83A7
S11312B08B819C8125E1FC0120838B819C8101979A
S11312C09C838B838B819C8126E1FC0120838B8111
S11312D09C8101979C838B838B819C8127E1FC01FA
S11312E020838B819C8101979C838B838B819C8140
S11312F028E1FC0120838B819C8101979C838B8353
S11313008B819C8129E1FC0120838B819C81019745
S11313109C838B838B819C8120E2FC0120838B81C5
S11313209C8101979C838B838B819C8121E2FC01AE
S113133020838B819C8101979C838B838B819C81EF
S113134022E2FC0120838B819C8101979C838B8307
S11313508B819C8123E2FC0120838B819C810197FA
S11313609C838B838F8198859A83898329818B8140
S11313709C81FC0120838B819C8101979C838B83BE
S113138089819A81892F99279A83898329818B81DD
S11313909C81FC0120838B819C8101979C838B839E
S11313A08B819C8126E2FC0120838B819C810197A7
S11313B09C838B838B819C8127E2FC0120838B811E
S11313C09C8101979C838B838B819C8128E2FC0107
S11313D020838B819C8101979C838B838B819C814F
S11313E029E2FC0120838B819C8101979C838B8360
S11313F08B819C8120E3FC0120838B819C8101975C
S11314009C838B838B819C8121E3FC0120838B81D2
S11314109C8101979C838B838B819C8128960FB63A
S1131420F894DEBF0FBECDBFDF91CF910895CF9367
S1131430DF93CDB7DEB70E94020BA0916607B0918F
S11314406707CD91CDBFDD91DEBFFF91EF91DF91B5
S1131450CF91BF91AF919F918F917F916F915F9148
S11314604F913F912F911F910F91FF90EF90DF903B
S1131470CF90BF90AF909F908F907F906F905F9030
S11314804F903F902F901F900F900FBE0F90089594
S113149081E0DF91CF9108950F920FB6F8940F92E7
S11314A01F9211242F923F924F925F926F927F92DC
S11314B08F929F92AF92BF92CF92DF92EF92FF9260
S11314C00F931F932F933F934F935F936F937F9348
S11314D08F939F93AF93BF93CF93DF93EF93FF9338
S11314E0A0916607B09167070DB60D920EB60D92E6
S11314F00E94E117A0916607B0916707CD91CDBF17
S1131500DD91DEBFFF91EF91DF91CF91BF91AF915C
S11315109F918F917F916F915F914F913F912F9107
S11315201F910F91FF90EF90DF90CF90BF90AF90FD
S11315309F908F907F906F905F904F903F902F90EF
S11315401F900F900FBE0F9008950F920FB6F8944E
S11315500F921F9211242F923F924F925F926F929B
S11315607F928F929F92AF92BF92CF92DF92EF922F
S1131570FF920F931F932F933F934F935F936F9318
S11315807F938F939F93AF93BF93CF93DF93EF9307
S1131590FF93A0916607B09167070DB60D920EB642
S11315A00D920E94F516882311F00E94E117A09174
S11315B06607B0916707CD91CDBFDD91DEBFFF9186
S11315C0EF91DF91CF91BF91AF919F918F917F91D7
S11315D06F915F914F913F912F911F910F91FF90C8
S11315E0EF90DF90CF90BF90AF909F908F907F90BF
S11315F06F905F904F903F902F901F900F900FBE71
S11316000F900895CF93DF9300D000D000D0CDB7D2
S1131610DEB789E999E3A0E0B0E089839A83AB83DC
S1131620BC8389819A81AB81BC81689415F8B69595
S1131630A795979587951694D1F789839A83AB8359
S1131640BC8389819A81AB81BC810197A109B109CD
S113165089839A83AB83BC8389818D8389819A81B1
S1131660AB81BC81892F9A2FAB2FBB2789839A83A7
S1131670AB83BC8389818E8389E890E02E81FC0151
S1131680208388E890E02D81FC0120838BE08D830A
S113169081E890E02D81FC0120838FE690E0FC013D
S11316A080818D838D8182608D838FE690E02D8192
S11316B0FC01208326960FB6F894DEBF0FBECDBF83
S11316C0DF91CF9108950E94A50A1895CF93DF93D7
S11316D000D000D0CDB7DEB79C838B831A821982E9
S11316E00E943B168091600790916107892B31F429
S11316F083E891E0909361078093600720915E07EF
S113170030915F078B819C81820F931F8B3D9540A5
S113171038F520915E0730915F078B819C81280FFB
S1131720391F80915E0790915F0782179307C0F479
S1131730209160073091610780915E0790915F0767
S1131740820F931F9A83898320915E0730915F07EC
S11317508B819C81820F931F90935F0780935E0718
S11317600E94471689819A810F900F900F900F90D5
S1131770DF91CF910895CF93DF9300D0CDB7DEB73B
S11317809A8389830F900F90DF91CF910895CF931F
S1131790DF9300D0CDB7DEB79A83898389819A819C
S11317A0059729813A8125503109F9012081206268
S11317B0FC0120830F900F90DF91CF9108958F92B9
S11317C09F92AF92BF92CF92DF92EF920F931F93AB
S11317D0CF93DF93CDB7DEB765970FB6F894DEBF2E
S11317E00FBECDBF8C834D835E836F83788729873B
S11317F00A87EB86DD86CC86BF86AE86998A888A80
S113180088E090E00E943B1C9A8389838C81882F16
S113181090E0880F991F8E59984F29813A81FC01D5
S1131820318320838C81882F90E0880F991F885DF5
S11318309E4FFC012081318189819A81FC01318391
S1131840208389819A812E853F85FC0133832283FD
S113185089819A812C853D85FC0135832483898186
S11318609A8128893989FC01378326838FE590E0A2
S1131870FC0180818B83F89489819A81FC018081A9
S11318809181069729813A81F9012081318126507D
S11318903109F90120812260FC01208389819A8128
S11318A0FC01808191818C01025011098D819E81FE
S11318B0AF81B885880F991FAA1FBB1F880F991F76
S11318C0AA1FBB1F880F991FAA1FBB1F9C01AD0134
S11318D080E090E0A1EEB0E0BC01CD010E94FF1BCE
S11318E0DA01C9018150F801808389819A81FC0160
S11318F080819181059728E9FC01208389819A815F
S1131900FC0180819181049726E0FC0120838FE50E
S113191090E02B81FC01208389819A8165960FB622
S1131920F894DEBF0FBECDBFDF91CF911F910F9111
S1131930EF90DF90CF90BF90AF909F908F900895DD
S1131940CF93DF9300D000D000D0CDB7DEB79B8318
S11319508A837D836C834E838A819B81FC0182818F
S11319609381892BA9F08E81282F30E08A819B8175
S1131970FC0182819381FC018289882F90E040E1FF
S113198050E0BA01681B790BCB018217930754F01E
S11319908A819B81FC0182819381892B29F48E8128
S11319A0823010F082E022C0198214C08981882F0D
S11319B090E02C813D81820F931FFC0120818A815C
S11319C09B81FC0182819381622F0E94C9068981D7
S11319D08F5F898399818E81981740F38A819B81D7
S11319E0FC01808191810E94C70B80E026960FB68E
S11319F0F894DEBF0FBECDBFDF91CF9108951F9243
S1131A000F9200905F000F9211242F933F934F93F6
S1131A105F936F937F938F939F93AF93BF93EF9352
S1131A20FF93CF93DF931F92CDB7DEB78091620708
S1131A3090916307892B31F186EC90E0FC01808161
S1131A4089838091620790916307FC018481958169
S1131A5069810E94C9068091620790916307FC0125
S1131A6086819781892B71F0809162079091630739
S1131A70FC01268137818091620790916307698117
S1131A80F90109950F90DF91CF91FF91EF91BF91EB
S1131A90AF919F918F917F916F915F914F913F9102
S1131AA02F910F9000925F000F901F9018951F9236
S1131AB00F9200905F000F9211242F933F934F9346
S1131AC05F936F937F938F939F93AF93BF93EF93A2
S1131AD0FF93CF93DF931F92CDB7DEB78091620758
S1131AE090916307892BF9F08091620790916307C5
S1131AF0FC01828193819E012F5F3F4FB9010E94B7
S1131B008106882331F486EC90E02981FC0120834E
S1131B1013C081EC90E021EC30E0F90120812F7DAD
S1131B20FC01208309C081EC90E021EC30E0F90154
S1131B3020812F7DFC0120830F90DF91CF91FF91B5
S1131B40EF91BF91AF919F918F917F916F915F9131
S1131B504F913F912F910F9000925F000F901F9033
S1131B6018951F920F9200905F000F9211242F93EB
S1131B703F934F935F936F937F938F939F93AF9311
S1131B80BF93EF93FF93CF93DF931F92CDB7DEB74D
S1131B908091640790916507892B31F18EEC90E078
S1131BA0FC01808189838091640790916507FC0121
S1131BB08481958169810E94C9068091640790910E
S1131BC06507FC0186819781892B71F080916407F8
S1131BD090916507FC01268137818091640790917B
S1131BE065076981F90109950F90DF91CF91FF9104
S1131BF0EF91BF91AF919F918F917F916F915F9181
S1131C004F913F912F910F9000925F000F901F9082
S1131C1018951F920F9200905F000F9211242F933A
S1131C203F934F935F936F937F938F939F93AF9360
S1131C30BF93EF93FF93CF93DF931F92CDB7DEB79C
S1131C408091640790916507892BF9F0809164076E
S1131C5090916507FC01828193819E012F5F3F4F24
S1131C60B9010E948106882331F48EEC90E0298129
S1131C70FC01208313C089EC90E029EC30E0F901E9
S1131C8020812F7DFC01208309C089EC90E029ECA0
S1131C9030E0F90120812F7DFC0120830F90DF913A
S1131CA0CF91FF91EF91BF91AF919F918F917F91D0
S1131CB06F915F914F913F912F910F9000925F0030
S1131CC00F901F901895CF93DF9300D000D01F92F0
S1131CD0CDB7DEB79C838B836D838B819C819A8384
S1131CE089830FB6F8940F9289819A81FC018081CF
S1131CF0918129813A81F901238D422F50E0298174
S1131D003A81F901248D222F30E0429FB001439F94
S1131D10700D529F700D11249B01280F391F89816A
S1131D209A81FC013383228389819A81FC01128E7A
S1131D3089819A81FC012081318189819A81FC0108
S1131D403583248389819A81FC0180819181298151
S1131D503A81F901238D222F30E0A9014150510924
S1131D6029813A81F901248D222F30E0429FB0016C
S1131D70439F700D529F700D11249B01280F391F32
S1131D8089819A81FC013783268389819A812FEF87
S1131D90FC01258F89819A812FEFFC01268F8D818B
S1131DA0882381F489819A81FC0180858823A1F0AC
S1131DB089819A8108960E948818882369F00E9474
S1131DC04C0A0AC089819A8108960E940C0789816D
S1131DD09A8141960E940C070F900FBE81E00F90EC
S1131DE00F900F900F900F90DF91CF9108950F9364
S1131DF01F93CF93DF93CDB7DEB729970FB6F8942F
S1131E00DEBF0FBECDBF8F8368874987888588234F
S1131E1019F41A8219820FC08F81482F50E08885E7
S1131E20282F30E0429FC001439F900D529F900D98
S1131E3011249A83898389819A8181960E94660BF1
S1131E409C838B838B819C81892B81F08B819C81EA
S1131E5081969E838D832B813C818D819E81890116
S1131E602985AC0168858F810E94430F8B819C81F9
S1131E7029960FB6F894DEBF0FBECDBFDF91CF9188
S1131E801F910F9108950F931F93CF93DF93CDB7B5
S1131E90DEB727970FB6F894DEBF0FBECDBF898398
S1131EA06A835C834B832D831F830E838A818823FB
S1131EB041F48E819F812E813F81FC0131832083F7
S1131EC007C08E819F812B813C81FC01318320835B
S1131ED08E819F812981FC01238F8E819F812A819C
S1131EE0FC01248F8E819F8161E00E94630E8E81AC
S1131EF09F812D81FC0120A327960FB6F894DEBFA5
S1131F000FBECDBFDF91CF911F910F910895CF9355
S1131F10DF9300D0CDB7DEB79A83898389819A8114
S1131F20892BB9F089819A81FC01138212828981FB
S1131F309A81FC011182108289819A81FC011682A6
S1131F4089819A8120E040E050E060E070E00E94E6
S1131F50CE0F0F900F90DF91CF910895CF93DF9321
S1131F6000D000D01F92CDB7DEB78D8381E0898386
S1131F701A824D816A8189810E94F70E9C838B832A
S1131F808B819C810E94870F8B819C810F900F9085
S1131F900F900F900F90DF91CF910895CF93DF931F
S1131FA0CDB7DEB72E970FB6F894DEBF0FBECDBF08
S1131FB0998788877B876A875D874C872E871982F4
S1131FC0888599859B838A830FB6F8940F928A81BA
S1131FD09B81FC01228D8A819B81FC01838D2817C2
S1131FE018F08E85823011F52A853B858A819B8184
S1131FF04E85B9010E94D5118C838A819B81FC0195
S11320008189882351F08A819B8141960E94881896
S1132010882341F00E944C0A05C08C81882311F06A
S11320200E944C0A0F900FBE81E061C08C859D8593
S1132030892B21F40F900FBE80E059C08981882339
S113204031F4CE0105960E94F51881E089830F9042
S11320500FBE0E943B160FB6F8940F928A819B81A3
S1132060FC01858D8F3F21F48A819B81FC01158EB3
S11320708A819B81FC01868D8F3F21F48A819B811B
S1132080FC01168E0F900FBE9E01245F3F4FCE01C0
S11320900596B9010E941019882301F58A819B8154
S11320A00E947013882399F02C853D858A819B8139
S11320B00896B9010E9466188A819B810E94F512D4
S11320C00E944716882391F40E944C0A0FC08A810B
S11320D09B810E94F5120E94471676CF8A819B81CC
S11320E00E94F5120E94471680E001C06DCF2E9623
S11320F00FB6F894DEBF0FBECDBFDF91CF91089528
S1132100CF93DF93CDB7DEB72C970FB6F894DEBF2D
S11321100FBECDBF9F838E83798768875B874A878D
S11321202C878E819F819B838A831C828A819B81D9
S1132130FC01228D8A819B81FC01838D281718F074
S11321408C85823089F58A819B81FC01868D8D8303
S1132150288539858A819B814C85B9010E94D511D6
S11321608D818F3FB9F48A819B81FC018189882309
S1132170C1F08A819B8141960E948818882389F046
S11321808A859B85892B69F08A859B8521E0FC01E2
S1132190208307C08D818F5F282F8A819B81FC015A
S11321A0268F81E0898301C0198289812C960FB61C
S11321B0F894DEBF0FBECDBFDF91CF910895CF93CA
S11321C0DF93CDB7DEB760970FB6F894DEBF0FBECE
S11321D0CDBF9B878A877D876C875F874E87288BD7
S11321E019828A859B859B838A830FB6F8940F9204
S11321F08A819B81FC01828D8C838C81882309F4E4
S113220051C08A819B81FC01868197819E838D8345
S11322102C853D858A819B81B9010E94A5128889FC
S1132220882331F58C812FEF280F8A819B81FC0153
S1132230228F8A819B81FC0180819181892B41F4C9
S11322400E946A1B9C018A819B81FC013383228347
S11322508A819B81FC018085882301F18A819B818D
S113226008960E9488188823C9F00E944C0A16C058
S11322708A819B812D813E81FC01378326838A815B
S11322809B81FC018189882349F08A819B81419645
S11322900E948818882311F00E944C0A0F900FBEE8
S11322A081E07AC08E859F85892B21F40F900FBE23
S11322B080E072C08981882331F4CE0107960E94A0
S11322C0F51881E089830F900FBE0E943B160FB66C
S11322D0F8940F928A819B81FC01858D8F3F21F4B4
S11322E08A819B81FC01158E8A819B81FC01868DEC
S11322F08F3F21F48A819B81FC01168E0F900FBEC3
S11323009E01225F3F4FCE010796B9010E9410192A
S1132310882399F58A819B810E945213882331F185
S11323208A819B81FC0180819181892B61F40FB6A4
S1132330F8940F928A819B81FC01828193810E948F
S1132340561A0F900FBE2E853F858A819B81419638
S1132350B9010E9466188A819B810E94F5120E942D
S113236047168823C1F40E944C0A15C08A819B81B8
S11323700E94F5120E94471638CF8A819B810E94E1
S1132380F5120E9447168A819B810E94521388236A
S113239011F080E001C029CF60960FB6F894DEBF3B
S11323A00FBECDBFDF91CF910895CF93DF93CDB70B
S11323B0DEB727970FB6F894DEBF0FBECDBF9C8360
S11323C08B837E836D834F8319828B819C81FC0177
S11323D0828D8A838B819C81FC01848D8823B1F456
S11323E08B819C81FC0180819181892B09F09CC0A7
S11323F08B819C81FC01828193810E94ED1A8983E7
S11324008B819C81FC01138212828EC08F81882370
S1132410D9F58B819C81FC01848D482F50E08B8100
S11324209C81FC01848195812D813E81B9010E94AA
S1132430C41D8B819C81FC01248135818B819C810D
S1132440FC01848D882F90E0280F391F8B819C819B
S1132450FC01358324838B819C81FC01248135819B
S11324608B819C81FC01828193812817390708F4B0
S11324705BC08B819C81FC01208131818B819C819B
S1132480FC013583248350C08B819C81FC01848DA5
S1132490482F50E08B819C81FC01868197812D819E
S11324A03E81B9010E94C41D8B819C81FC0126815F
S11324B037818B819C81FC01848D882F90E09195DC
S11324C081959109280F391F8B819C81FC013783E9
S11324D026838B819C81FC01268137818B819C81A1
S11324E0FC018081918128173907A8F48B819C8194
S11324F0FC01228133818B819C81FC01848D882F96
S113250090E0919581959109280F391F8B819C81C9
S1132510FC01378326838F81823031F48A818823BA
S113252019F08A8181508A838A8121E0280F8B8166
S11325309C81FC01228F898127960FB6F894DEBF17
S11325400FBECDBFDF91CF910895CF93DF9300D01D
S113255000D0CDB7DEB79A8389837C836B8389816E
S11325609A81FC01848D8823C9F189819A81FC01B7
S11325702681378189819A81FC01848D882F90E09E
S1132580280F391F89819A81FC0137832683898129
S11325909A81FC012681378189819A81FC0182819B
S11325A093812817390750F089819A81FC01208191
S11325B0318189819A81FC013783268389819A81BB
S11325C0FC01848D482F50E089819A81FC01268189
S11325D037818B819C81B9010E94C41D0F900F909B
S11325E00F900F90DF91CF910895CF93DF9300D098
S11325F000D0CDB7DEB79C838B830FB6F8940F92CF
S11326008B819C81FC01868D898314C08B819C8184
S1132610FC018189882351F08B819C8141960E9421
S11326208818882321F00E94781901C006C0898186
S113263081508983898118164CF38B819C812FEFFB
S1132640FC01268F0F900FBE0FB6F8940F928B816A
S11326509C81FC01858D8A8314C08B819C81FC0143
S11326608085882369F08B819C8108960E94881854
S1132670882311F00E9478198A8181508A8301C0CD
S113268003C08A8118164CF38B819C812FEFFC01C7
S1132690258F0F900FBE0F900F900F900F90DF912A
S11326A0CF910895CF93DF9300D01F92CDB7DEB7BB
S11326B09B838A830FB6F8940F928A819B81FC01D5
S11326C0828D882319F481E0898301C019820F90D7
S11326D00FBE89810F900F900F90DF91CF910895D5
S11326E0CF93DF9300D01F92CDB7DEB79B838A834D
S11326F00FB6F8940F928A819B81FC01228D8A8106
S11327009B81FC01838D281719F481E0898301C022
S113271019820F900FBE89810F900F900F90DF9157
S1132720CF9108958F929F92AF92BF92CF92DF92F2
S1132730EF92FF920F931F93CF93DF93CDB7DEB742
S113274060970FB6F894DEBF0FBECDBF9F838E8314
S1132750798768875B874A873D872C870E87F88A45
S1132760EF868A859B850E94660B9D838C838C8172
S11327709D81892BB9F08CE290E00E94660B9A83CC
S1132780898389819A81892B41F089819A812C815D
S11327903D81FC01308F278B07C08C819D810E9475
S11327A0BB0B02C01A82198289819A81892B09F193
S11327B08A859B85CC01A0E0B0E009811A814F8510
S11327C058892C853D8568857985EE81FF81812C2A
S11327D0912C58016A01EE8489019C01AD01CF015D
S11327E00E940F1489819A810E94E91481E08B83ED
S11327F002C08FEF8B838B8160960FB6F894DEBF97
S11328000FBECDBFDF91CF911F910F91FF90EF903D
S1132810DF90CF90BF90AF909F908F9008958F924C
S11328209F92AF92BF92CF92DF92EF920F931F933A
S1132830CF93DF93CDB7DEB764970FB6F894DEBFBE
S11328400FBECDBF9D838C837F836E83288739879A
S11328504A875B871D870C87EE86D88ACF86BA8A1B
S1132860A98A9C8A8B8A2885398589899A89FC0159
S11328708789908DA90165EA70E00E94CD1D898940
S11328809A89FC012789308D888599850197820F63
S1132890931F9B838A83198222C08981882F90E0A9
S11328A02981222F30E04E815F81240F351FF901E9
S11328B0408129893A89820F931F4996FC014083FC
S11328C08981882F90E02E813F81820F931FFC0124
S11328D08081882309F406C089818F5F8983898177
S11328E08830D8F289899A89FC0110A28E858430B7
S11328F010F083E08E8789899A892E85FC01268BC6
S113290089899A892E85FC0123A389899A89FC01E6
S113291014A289899A8902960E94410789899A8911
S11329200C960E94410789899A8929893A89FC0170
S1132930318720878E85882F90E024E030E0281BA3
S1132940390B89899A89FC013587248789899A8971
S113295029893A89FC01338B228B89899A89FC0164
S113296016A215A289899A89FC0117A210A611A69C
S113297012A689899A89FC0113A64C855D852C8150
S11329803D818A819B81B9010E946E089C018989DD
S11329909A89FC01318320838F859889892B39F0AA
S11329A08F85988929893A89FC013183208364962B
S11329B00FB6F894DEBF0FBECDBFDF91CF911F914C
S11329C00F91EF90DF90CF90BF90AF909F908F903A
S11329D00895CF93DF9300D0CDB7DEB79A83898370
S11329E00FB6F8940F928091B5078F5F8093B50767
S11329F08091660790916707892B69F489819A8190
S1132A0090936707809366078091B5078130C9F476
S1132A100E94941916C08091B907882391F480917B
S1132A20660790916707FC01268989819A81FC01D8
S1132A308689821730F089819A8190936707809301
S1132A4066078091BD078F5F8093BD072091BD0706
S1132A5089819A81FC0121A389819A81FC0196894B
S1132A608091B807891730F489819A81FC0186899D
S1132A708093B80789819A81AC014E5F5F4F898149
S1132A809A81FC018689282F30E0C901880F991F9B
S1132A90880F991F880F991F820F931F8859984F89
S1132AA0BA010E9452070F900FBE8091B907882384
S1132AB071F08091660790916707FC0126898981EE
S1132AC09A81FC018689281710F40E944C0A0F9001
S1132AD00F90DF91CF910895CF93DF93CDB7DEB7F9
S1132AE02A970FB6F894DEBF0FBECDBF98878F83A9
S1132AF07A87698719820E943B168091B607909164
S1132B00B7079B838A838F819885FC01208131815B
S1132B1089859A85820F931F9D838C838F819885E5
S1132B20FC01208131818A819B8182179307A0F463
S1132B308F819885FC01208131818C819D81821750
S1132B409307E8F42C813D818A819B818217930746
S1132B50B0F481E0898313C08F819885FC012081C2
S1132B6031818C819D818217930738F02C813D81BE
S1132B708A819B818217930710F481E089838F8176
S1132B8098852C813D81FC013183208389818823B0
S1132B9059F02C813D818A819B81A901481B590BE5
S1132BA0CA0160E00E94841B0E9447168E838E81B6
S1132BB0882311F40E944C0A2A960FB6F894DEBFBB
S1132BC00FBECDBFDF91CF910895CF93DF9300D097
S1132BD01F92CDB7DEB79B838A8319828A819B813A
S1132BE0892B51F00E943B168A819B8160E00E94F0
S1132BF0841B0E94471689838981882311F40E94CB
S1132C004C0A0F900F900F90DF91CF910895EF929F
S1132C10FF920F93CF93DF931F92CDB7DEB70F2EA2
S1132C20F0ECEF2EF7E0FF2EF02D00E020E030E096
S1132C3045E550E06DE371E082E899E10E9492136A
S1132C4089838981813081F4F8948FEF9FEF909389
S1132C50BF078093BE0781E08093B9071092B7073E
S1132C601092B6070E94170A0F90DF91CF910F912F
S1132C70FF90EF900895CF93DF93CDB7DEB78091A7
S1132C80C2078F5F8093C207DF91CF910895CF93DE
S1132C90DF9300D000D0CDB7DEB71A8219821B8231
S1132CA00FB6F8940F928091C20781508093C207A7
S1132CB08091C207882309F077C08091B5078823E3
S1132CC009F472C049C08091A7079091A807FC013C
S1132CD0868197819A83898389819A810C960E943F
S1132CE0170889819A8102960E94170889819A811E
S1132CF0FC0196898091B807891730F489819A81FB
S1132D00FC0186898093B80789819A81AC014E5F62
S1132D105F4F89819A81FC018689282F30E0C9019F
S1132D20880F991F880F991F880F991F820F931F6F
S1132D308859984FBA010E94520789819A81FC01EF
S1132D4026898091660790916707FC018689281778
S1132D5018F081E08093BB078091A207882309F0D3
S1132D60B2CF89819A81892B11F00E94281A80910F
S1132D70BA078C838C81882379F00E94F516882306
S1132D8019F081E08093BB078C8181508C838C8106
S1132D90882399F71092BA078091BB07882321F002
S1132DA081E08B830E944C0A0F900FBE8B810F90A1
S1132DB00F900F900F90DF91CF910895CF93DF93F1
S1132DC000D0CDB7DEB70FB6F8940F928091B60756
S1132DD09091B7079A8389830F900FBE89819A8156
S1132DE00F900F90DF91CF910895CF93DF93CDB7DC
S1132DF0DEB729970FB6F894DEBF0FBECDBF198298
S1132E008091C207882309F0C7C08091B6079091CA
S1132E10B70701969B838A838A819B819093B70726
S1132E208093B6078A819B81892BD9F480919E0770
S1132E3090919F079D838C838091A0079091A10717
S1132E4090939F0780939E078C819D819093A10707
S1132E508093A0078091BC078F5F8093BC070E947A
S1132E60281A8091BE079091BF072A813B812817B9
S1132E70390708F477C080919E0790919F07FC0161
S1132E808081882339F48FEF9FEF9093BF0780935D
S1132E90BE0768C080919E0790919F07FC018581C1
S1132EA09681FC01868197819F838E838E819F8189
S1132EB0FC0182819381998788872A813B81888557
S1132EC099852817390738F4888599859093BF0721
S1132ED08093BE0747C08E819F8102960E94170887
S1132EE08E819F81FC0184899589892B29F08E81AB
S1132EF09F810C960E9417088E819F81FC01968900
S1132F008091B807891730F48E819F81FC018689EE
S1132F108093B8078E819F81AC014E5F5F4F8E8195
S1132F209F81FC018689282F30E0C901880F991FF1
S1132F30880F991F880F991F820F931F8859984FE4
S1132F40BA010E9452078E819F81FC0126898091DB
S1132F50660790916707FC018689281710F081E0C5
S1132F60898389CF8091660790916707FC018689E0
S1132F70282F30E0C901880F991F880F991F880FE7
S1132F80991F820F931F8859984FFC0180818230CA
S1132F9010F081E0898305C08091BA078F5F809328
S1132FA0BA078091BB07882311F081E08983898166
S1132FB029960FB6F894DEBF0FBECDBFDF91CF9137
S1132FC00895CF93DF9300D01F92CDB7DEB78091E1
S1132FD0C207882321F081E08093BB0771C010925F
S1132FE0BB078091660790916707FC0185A196A1B4
S1132FF00E945F068091B807898303C0898181504C
S113300089838981282F30E0C901880F991F880F8F
S1133010991F880F991F820F931F8859984FFC019D
S11330208081882359F38981282F30E0C901880FD2
S1133030991F880F991F880F991F820F931F885912
S1133040984F9B838A838A819B81FC018181928131
S1133050FC01228133818A819B81FC01328321839B
S11330608A819B81FC01218132818A819B81039623
S11330702817390769F48A819B81FC018181928137
S1133080FC01228133818A819B81FC01328321836B
S11330908A819B81FC0181819281FC0186819781D7
S11330A0909367078093660789818093B80780911E
S11330B0660790916707FC0185A196A10E945506B9
S11330C00F900F900F90DF91CF910895CF93DF93DE
S11330D000D000D0CDB7DEB79A8389837C836B831D
S11330E080916607909167079C01245F3F4F898117
S11330F09A81B9010E94A0078B819C8161E00E94A2
S1133100841B0F900F900F900F90DF91CF91089533
S1133110CF93DF9300D000D01F92CDB7DEB79D834D
S11331208C838C819D81FC0185819681FC01868143
S113313097819B838A838A819B810C960E941708BE
S11331408091C207882369F58A819B8102960E9437
S113315017088A819B81FC0196898091B807891799
S113316030F48A819B81FC0186898093B8078A8127
S11331709B81AC014E5F5F4F8A819B81FC018689F4
S1133180282F30E0C901880F991F880F991F880FD5
S1133190991F820F931F8859984FBA010E945207B2
S11331A008C08A819B810C96BC0182EA97E00E9448
S11331B052078A819B81FC01268980916607909140
S11331C06707FC018689821730F481E0898381E0F6
S11331D08093BB0701C0198289810F900F900F90D3
S11331E00F900F90DF91CF910895CF93DF9300D08C
S11331F0CDB7DEB79A8389832091BC0789819A81F0
S1133200FC0120832091B6073091B70789819A8108
S1133210FC01328321830F900F90DF91CF910895A9
S1133220CF93DF93CDB7DEB727970FB6F894DEBF01
S11332300FBECDBF9D838C837F836E830FB6F894BE
S11332400F928091B6079091B7079B838A838C81F4
S11332509D81FC0190818091BC07981769F08C8155
S11332609D81FC01218132818A819B818217930790
S113327018F081E0898330C08C819D81FC018181BB
S113328092812A813B81281B390B8E819F81FC010D
S11332908081918128173907E8F48E819F81FC0190
S11332A0208131818C819D81FC01418152818A81FF
S11332B09B81BA01681B790BCB01280F391F8E81C2
S11332C09F81FC01318320838C819D810E94F518AC
S11332D0198202C081E089830F900FBE89812796ED
S11332E00FB6F894DEBF0FBECDBFDF91CF91089526
S11332F0CF93DF93CDB7DEB781E08093BB07DF9137
S1133300CF910895CF93DF9300D0CDB7DEB79A83E2
S113331089830E94D11980916807823010F00E943D
S11333204C0A0E941404F5CFCF93DF931F92CDB7BC
S1133330DEB7198213C08981282F30E0C901880FB4
S1133340991F880F991F880F991F820F931F8859FF
S1133350984F0E940C0789818F5F8983898184300B
S113336050F38CE897E00E940C0785E997E00E94EF
S11333700C0782EA97E00E940C078BEA97E00E9410
S11333800C078CE897E090939F0780939E0785E94C
S113339097E09093A1078093A0070F90DF91CF91BE
S11333A00895CF93DF9300D01F92CDB7DEB72FC01F
S11333B00E943B169091AB0781E0992309F080E0CD
S11333C089830E9447168981882309F50FB6F894EA
S11333D00F928091B0079091B107FC01868197818B
S11333E09B838A838A819B8102960E94170880911D
S11333F0B50781508093B5078091B40781508093BD
S1133400B4070F900FBE8A819B810E94111A80918C
S1133410B407882369F60F900F900F90DF91CF9136
S11334200895CF93DF9300D0CDB7DEB79A83898315
S113343089819A81FC018789908D0E94BB0B8981C7
S11334409A810E94BB0B0F900F90DF91CF9108954A
S1133450CF93DF9300D0CDB7DEB780919E079091D4
S11334609F07FC018081882339F48FEF9FEF9093AD
S1133470BF078093BE0715C080919E0790919F0758
S1133480FC0185819681FC01868197819A838983D9
S113349089819A81FC01828193819093BF078093F3
S11334A0BE070F900F90DF91CF910895CF93DF93D4
S11334B000D000D0CDB7DEB79C838B838B819C81F9
S11334C09A8389838B819C81892B09F47FC08981AC
S11334D09A81FC0126898091660790916707FC0117
S11334E08689281708F072C089819A81FC01848535
S11334F0958599238CF08091660790916707FC016C
S11335008689882F90E024E030E0281B390B8981DC
S11335109A81FC013587248789819A81FC0142853F
S1133520538589819A81FC018689282F30E0C9015D
S1133530880F991F880F991F880F991F820F931F57
S11335408859984F48175907B9F589819A81029685
S11335500E9417088091660790916707FC012689ED
S113356089819A81FC01268B89819A81FC01968943
S11335708091B807891730F489819A81FC01868982
S11335808093B80789819A81AC014E5F5F4F89812E
S11335909A81FC018689282F30E0C901880F991F80
S11335A0880F991F880F991F820F931F8859984F6E
S11335B0BA010E9452070AC080916607909167077A
S11335C0FC01268989819A81FC01268B0F900F903A
S11335D00F900F90DF91CF910895CF93DF9300D098
S11335E000D01F92CDB7DEB79D838C838C819D81E3
S11335F09B838A8319828C819D81892B09F461C004
S11336008A819B81FC0184A12FEF280F8A819B81F1
S1133610FC0124A38A819B81FC0126898A819B81E8
S1133620FC0183A1281709F44CC08A819B81FC0109
S113363084A1882309F045C08A819B8102960E9457
S113364017088A819B81FC0123A18A819B81FC014B
S1133650268B8A819B81FC018689882F90E024E057
S113366030E0281B390B8A819B81FC013587248734
S11336708A819B81FC0196898091B807891730F46F
S11336808A819B81FC0186898093B8078A819B810A
S1133690AC014E5F5F4F8A819B81FC018689282F94
S11336A030E0C901880F991F880F991F880F991F4F
S11336B0820F931F8859984FBA010E94520781E0E4
S11336C0898389810F900F900F900F900F90DF9155
S11336D0CF910895CF93DF93CDB7DEB7809166077E
S11336E090916707892B49F080916607909167074D
S11336F0FC0124A12F5FFC0124A380916607909113
S11337006707DF91CF910895CF93DF93CDB7DEB7ED
S113371027970FB6F894DEBF0FBECDBF9E838D836F
S11337206F838091B6079091B7079A8389838091BC
S113373066079091670702960E94170829813A81CB
S11337408D819E81820F931F9C838B83809166075A
S1133750909167072B813C81FC01338322832B8169
S11337603C8189819A812817390778F4809166070A
S1133770909167079C012E5F3F4F8091A007909125
S1133780A107B9010E94A0071DC08091660790910E
S113379067079C012E5F3F4F80919E0790919F0782
S11337A0B9010E94A0078091BE079091BF072B81A9
S11337B03C812817390730F48B819C819093BF0793
S11337C08093BE0727960FB6F894DEBF0FBECDBF19
S11337D0DF91CF91089597FB072E16F4009407D03C
S11337E077FD09D00E94271C07FC05D03EF4909574
S11337F081959F4F0895709561957F4F0895A1E23B
S11338001A2EAA1BBB1BFD010DC0AA1FBB1FEE1F56
S1133810FF1FA217B307E407F50720F0A21BB30BA1
S1133820E40BF50B661F771F881F991F1A9469F71D
S113383060957095809590959B01AC01BD01CF0179
S11338400895EE0FFF1F0590F491E02D0994AA1B33
S1133850BB1B51E107C0AA1FBB1FA617B70710F077
S1133860A61BB70B881F991F5A95A9F780959095A9
S1133870BC01CD010895CF93DF938230910510F4FC
S113388082E090E0E091C507F091C60720E030E0C7
S1133890C0E0D0E0309711F14081518148175907B9
S11338A0C0F04817590761F482819381209719F079
S11338B09B838A832BC09093C6078093C50726C039
S11338C02115310519F04217530718F49A01BE0166
S11338D0DF01EF010280F381E02DDCCF21153105FA
S11338E009F1281B390B2430310590F412968D917F
S11338F09C9113976115710521F0FB0193838283D9
S113390004C09093C6078093C507FD01329644C056
S1133910FD01E20FF31F81939193225031092D93FE
S11339203C933AC02091C3073091C407232B41F440
S113393020910201309103013093C4072093C307FF
S113394020910001309101012115310541F42DB779
S11339503EB74091040150910501241B350BE091C1
S1133960C307F091C407E217F307A0F42E1B3F0B23
S11339702817390778F0AC014E5F5F4F24173507DD
S113398048F04E0F5F1F5093C4074093C3078193C1
S1133990919302C0E0E0F0E0CF01DF91CF91089570
S11339A00F931F93CF93DF93009709F48CC0FC010E
S11339B03297138212820091C5071091C607011530
S11339C0110581F420813181820F931F2091C30757
S11339D03091C4072817390779F5F093C407E093A9
S11339E0C30771C0D80140E050E0AE17BF0750F4E0
S11339F012962D913C911397AD012115310509F1D2
S1133A00D901F3CF9D01DA0133832283608171816F
S1133A10860F971F8217930769F4EC012881398177
S1133A20260F371F2E5F3F4F318320838A819B816E
S1133A3093838283452B29F4F093C607E093C5074B
S1133A4042C01396FC93EE931297ED01499159915C
S1133A509E01240F351FE217F30771F480819181D1
S1133A60840F951F029611969C938E938281938165
S1133A7013969C938E931297E0E0F0E0D80112968F
S1133A808D919C911397009719F0F8018C01F6CF52
S1133A908D919C9198012E5F3F4F820F931F20912F
S1133AA0C3073091C4072817390769F4309729F4FC
S1133AB01092C6071092C50702C013821282109397
S1133AC0C4070093C307DF91CF911F910F9108950D
S1133AD08F929F92AF92BF92CF92DF92EF92FF921A
S1133AE0CF93DF93EC01688179818A819B81611591
S1133AF071058105910521F464E279ED8BE597E088
S1133B002DE133EF41E050E00E94D41D49015A01F8
S1133B109B01AC01A7EAB1E40E94F31D6B017C0197
S1133B20ACEEB4EFA50194010E94011EDC01CB01AF
S1133B308C0D9D1DAE1DBF1DB7FF03C00197A109CC
S1133B40B04888839983AA83BB839F77DF91CF9101
S1133B50FF90EF90DF90CF90BF90AF909F908F90A9
S1133B6008950E94681D089586E091E00E94681DF2
S1133B700895A0E0B0E08093060190930701A0931C
S1133B800801B09309010895FB01DC0102C0019012
S1133B900D9241505040D8F70895DC0101C06D9357
S1133BA041505040E0F70895052E97FB1EF4009411
S1133BB00E94EB1D57FD07D00E94FF1B07FC03D09A
S1133BC04EF40C94EB1D50954095309521953F4F44
S1133BD04F4F5F4F089590958095709561957F4FF5
S1133BE08F4F9F4F08950E94061EA59F900DB49F6E
S1133BF0900DA49F800D911D11240895B7FF0C947E
S1133C00F31D0E94F31D821B930B0895A29FB00124
S1133C10B39FC001A39F700D811D1124911DB29FFC
S1113C20700D811D1124911D0895F894FFCF9D
S1133C2E0000C70720000100000007053000000057
S1133C3E0000000000000000000000000000000072
S1133C4E0000000000003000C600CE0073657269EB
S1133C5E616C0067616D65006563686F0049444C73
S1053C6E45000B
S9030000FC
