:100000000C9446000C9463000C9463000C94630001
:100010000C9463000C9463000C9463000C946300D4
:100020000C9463000C9463000C9463000C946300C4
:100030000C9463000C944E0B0C9463000C946300BE
:100040000C948C050C9463000C9463000C94630076
:100050000C94730C0C94CB0C0C9463000C94630004
:100060000C9463000C9463000C9463000C94630084
:100070000C94250D0C947D0D0C9463004B035403DC
:100080006703720385038E03A103AC0311241FBE13
:10009000CFEFD8E0DEBFCDBF11E0A0E0B1E0E2EDF0
:1000A000FAE302C005900D92A635B107D9F725E015
:1000B000A6E5B1E001C01D92AB3DB207E1F70E9499
:1000C000C2040C94671D0C940000CF93DF93CDB74E
:1000D000DEB728970FB6F894DEBF0FBECDBF988766
:1000E0008F8319821E820E9430169D838C832EC0BE
:1000F0008981882F90E08130910561F082309105EF
:10010000B1F0892B09F59E818A81981711F481E05D
:1001100089831CC09E818A81981711F4198206C0B8
:100120009E818B81981711F482E089830FC08091A2
:10013000560190915701BE016A5F7F4F20E040E079
:1001400050E00E94531002C01982000080915601B5
:1001500090915701BE016A5F7F4F20E040E050E080
:100160000E945310882321F6CE01049664E170E0CA
:100170000E94E014BCCFCF93DF9300D000D01F9239
:10018000CDB7DEB79C838B836D8385E090E09A8347
:1001900089838D81882381F48B819C81FC018081FE
:1001A000282F30E089819A8102C0880F991F2A95F3
:1001B000E2F79A83898312C08B819C81FC01808144
:1001C000882F90E09C012150310989819A8102C0D9
:1001D000880F991F2A95E2F79A83898380915801A5
:1001E0009091590120E04AE050E060E070E00E9408
:1001F000531020910C0130910D0189819A81822741
:10020000932790930D0180930C0180915801909158
:10021000590120E040E050E060E070E00E94420FB1
:100220000F900F900F900F900F90DF91CF91089546
:10023000CF93DF9300D000D0CDB7DEB79C838B8304
:100240000E9430169A83898386E290E0FC018081C7
:10025000882F90E080749927892B61F580910A019D
:1002600090910B01181619062CF580915A01909166
:100270005B0120E04AE050E060E070E00E94531033
:1002800080910A0190910B01019790930B0180934B
:100290000A0180915A0190915B0120E040E050E01A
:1002A00060E070E00E94420F60E08AE091E00E940E
:1002B000BB0034C086E290E0FC018081882F90E092
:1002C00081709927892B51F580910A0190910B013A
:1002D000089724F580915A0190915B0120E04AE053
:1002E00050E060E070E00E94531080910A0190910C
:1002F0000B01019690930B0180930A0180915A01A2
:1003000090915B0120E040E050E060E070E00E94EE
:10031000420F61E08AE091E00E94BB0068E270E079
:10032000CE0101960E94E0148FCFCF93DF9300D0CF
:1003300000D000D0CDB7DEB79B838A836C838A81DF
:100340009B81FC01808181708823D9F40E94061D65
:1003500023E030E0B9010E943D1B898389818D5FD4
:1003600089838A819B81FC0180819981890F89839E
:100370008981877089838A819B812981FC012083FF
:100380005EC08C81882371F58A819B81FC0180810C
:10039000882F90E08330910591F0843091051CF412
:1003A000019739F04CC08530910579F0079799F0A5
:1003B00046C08A819B8123E0FC01208312C08A8190
:1003C0009B8121E0FC0120830CC08A819B8127E076
:1003D000FC01208306C08A819B8125E0FC012083EB
:1003E00000002DC08A819B81FC018081882F90E0D4
:1003F0008330910591F0843091051CF4019739F018
:100400001EC08530910579F0079799F018C08A8150
:100410009B8127E0FC01208312C08A819B8125E01B
:10042000FC0120830CC08A819B8123E0FC01208396
:1004300006C08A819B8121E0FC0120830000269672
:100440000FB6F894DEBF0FBECDBFDF91CF910895F8
:10045000CF93DF9300D000D000D0CDB7DEB79C8320
:100460008B837E836D838B819C810196FC018081CF
:10047000282F30E081E090E002C0880F991F2A9574
:10048000E2F79A83898389819A81809590959A83EE
:1004900089838B819C81FC0180818823A9F58091CF
:1004A00058019091590120E04AE050E060E070E08E
:1004B0000E9453108B819C81FC018081882F90E0E9
:1004C0002B813C81F9012081222F30E0220F331F44
:1004D000245F3E4FF9014081518129813A812423D3
:1004E0003523880F991F845F9E4FFC013183208341
:1004F000809158019091590120E040E050E060E087
:1005000070E00E94420F1EC08B819C81FC018081A3
:10051000882F90E02B813C81F9012081222F30E04F
:10052000220F331F245F3E4FF90140815181298101
:100530003A8124233523880F991F845F9E4FFC0145
:10054000318320838D819E81FC0120818B819C8160
:10055000FC0120838B819C8101962D813E81F901D4
:100560002181FC0120838B819C810196FC0180818B
:10057000282F30E081E090E002C0880F991F2A9573
:10058000E2F79A8389838B819C81FC018081882397
:10059000A9F5809158019091590120E04AE050E07E
:1005A00060E070E00E9453108B819C81FC0180818F
:1005B000882F90E02B813C81F9012081222F30E0AF
:1005C000220F331F245F3E4FF90140815181298161
:1005D0003A81242B352B880F991F845F9E4FFC0195
:1005E00031832083809158019091590120E040E0AF
:1005F00050E060E070E00E94420F1EC08B819C8141
:10060000FC018081882F90E02B813C81F9012081C1
:10061000222F30E0220F331F245F3E4FF90140812B
:10062000518129813A81242B352B880F991F845FB2
:100630009E4FFC013183208326960FB6F894DEBFCF
:100640000FBECDBFDF91CF910895CF93DF9300D040
:1006500000D000D0CDB7DEB79A8389837C836B83CB
:100660005E834D838D819E81FC018081882F90E087
:10067000092E000CAA0BBB0B40E050E027E030E055
:10068000841B950B2817390708F479C0825C9F4FAB
:10069000FC010C94731B8B819C810196FC012081D1
:1006A0002150FC0120836BC08B819C81FC018081E7
:1006B00021E0280F8B819C81FC0120838B819C8110
:1006C0000196FC0120812150FC01208358C08B81C0
:1006D0009C81FC01808121E0280F8B819C81FC01A1
:1006E00020834DC08B819C81FC01808121E0280FFB
:1006F0008B819C81FC0120838B819C810196FC0174
:1007000020812F5FFC0120833AC08B819C81019660
:10071000FC0120812F5FFC01208331C08B819C81F3
:10072000FC0180812FEF280F8B819C81FC012083AD
:100730008B819C810196FC0120812F5FFC0120832D
:100740001EC08B819C81FC0180812FEF280F8B8143
:100750009C81FC01208313C08B819C81FC018081E2
:100760002FEF280F8B819C81FC0120838B819C8142
:100770000196FC0120812150FC0120830000269677
:100780000FB6F894DEBF0FBECDBFDF91CF910895B5
:10079000CF93DF93CDB7DEB72A970FB6F894DEBFBD
:1007A0000FBECDBF9A87898787E08C8385E08D83D4
:1007B0001E820E9430169B838A838C818F838D8159
:1007C000888781E0898345C01982AE014A5F5F4F07
:1007D0009E01295F3F4FCE010496B9010E94250377
:1007E0008F818D3030F0CE01069661E00E94950138
:1007F00030C088858A3030F0CE01069660E00E94D5
:10080000950127C08F818823D9F48885282F30E06F
:1008100080910A0190910B012817390759F08885BA
:10082000282F30E080910A0190910B010196281742
:10083000390731F4CE01069661E00E94950109C0A6
:100840009E01295F3F4FCE010496B9010E94280204
:1008500019828981882309F0B7CFCE01029660E51D
:1008600070E00E94E014A9CFCF93DF93CDB7DEB73D
:1008700080915C0190915D01892B49F48BE290E0BD
:100880002BE230E0F90120812460FC0120838BE21F
:1008900090E02BE230E0F90120812062FC0120830E
:1008A0008BE290E02BE230E0F90120812F7DFC010A
:1008B00020838BE290E02BE230E0F901208120617F
:1008C000FC0120838BE290E02BE230E0F9012081F3
:1008D0002F7EFC01208382E290E020915C01309128
:1008E0005D01220F331F245F3E4FF90120813181CA
:1008F0002095FC01208385E290E025E230E0F901BB
:1009000020812360FC01208385E290E025E230E035
:10091000F901408120915C0130915D01220F331F6C
:10092000245F3E4FF90120813181232F332723702B
:1009300020952423FC0120838BE290E02BE230E021
:10094000F90120812B7FFC01208380915C01909133
:100950005D01019690935D0180935C0180915C0143
:1009600090915D010E9724F010925D0110925C0150
:10097000DF91CF910895CF93DF93CDB7DEB7DF91AD
:10098000CF910895EF92FF920F93CF93DF93CDB75E
:10099000DEB70E94C2058BE290E02BE230E0F90165
:1009A00020812F7BFC0120838EE140E061E00E94EA
:1009B0006B0E909357018093560181E00E94220FA5
:1009C000909359018093580181E00E94220F9093E7
:1009D0005B0180935A0180915601909157010E94CA
:1009E0004805E12CF12C04E020E030E045E550E042
:1009F0006CE371E085E690E00E940613E12CF12C97
:100A000002E020E030E045E550E063E471E088E199
:100A100091E00E940613E12CF12C03E020E030E08D
:100A200045E550E06BE471E088EC93E00E9406132A
:100A300084E394E00E945A050E945915FFCFCF939A
:100A4000DF9300D000D0CDB7DEB79B838A836C8361
:100A50008091600190916101892B99F019828091B8
:100A6000600190916101BE016C5F7F4F20E0AE019B
:100A70004F5F5F4F0E94F40F8981882311F00E941D
:100A8000370A0F900F900F900F90DF91CF9108953C
:100A9000CF93DF9300D0CDB7DEB79A838983898166
:100AA0009A8190936101809360010F900F90DF9184
:100AB000CF910895CF93DF9300D0CDB7DEB79A835F
:100AC000898389819A81909363018093620187E48D
:100AD00090E02AE0FC01208384E490E024E430E00C
:100AE000F90120812260FC0120838EE690E02EE651
:100AF00030E0F90120812260FC01208385E490E050
:100B000025E430E0F90120812560FC0120830F906D
:100B10000F90DF91CF9108951F920F9200905F0088
:100B20000F9211242F933F934F935F936F937F9373
:100B30008F939F93AF93BF93EF93FF93CF93DF93E5
:100B4000CDB7DEB78091620190916301892B31F0BE
:100B50008091620190916301FC010995DF91CF9131
:100B6000FF91EF91BF91AF919F918F917F916F9185
:100B70005F914F913F912F910F9000925F000F90E6
:100B80001F9018958F929F92AF92BF92CF92DF9253
:100B9000EF920F93CF93DF93CDB7DEB784E691E06A
:100BA0000E94540687E791E00E9454060F2EFFE151
:100BB0008F2EF5E09F2EF02D0F2EF7E7AF2EF1E0F0
:100BC000BF2EF02D0F2EF4E6CF2EF1E0DF2EF02D0C
:100BD000E12C00E023E040E052EC61E070E080E0D6
:100BE0000E94B20B90935F0180935E0188E290E0D7
:100BF00028E230E0F9012081236CFC0120838BE2A4
:100C000090E02BE230E0F90120812860FC01208394
:100C10008AE290E02AE230E0F90120812467FC01B9
:100C200020838BE290E02BE230E0F9012081206408
:100C3000FC01208381E290E0FC01808181E290E070
:100C40002FEFFC01208384E290E024E230E0F90100
:100C500020812360FC01208384E290E024E230E0E4
:100C6000F90120812C63FC012083DF91CF910F914A
:100C7000EF90DF90CF90BF90AF909F908F900895AE
:100C8000CF93DF931F92CDB7DEB789830F90DF91AB
:100C9000CF910895CF93DF931F92CDB7DEB78983AD
:100CA0000F90DF91CF910895CF93DF9300D0CDB710
:100CB000DEB79A83898389819A81FC01108A8981B0
:100CC0009A81FC01118A89819A81FC01128A0F9014
:100CD0000F90DF91CF910895CF93DF9300D000D094
:100CE000CDB7DEB79A8389837C836B8389819A81B0
:100CF000FC018289882381F189819A81FC018189A3
:100D0000882F90E029813A81820F931FFC01208176
:100D10008B819C81FC01208389819A81FC018189DE
:100D2000882F90E001968F709078992324F4019792
:100D3000806F9F6F0196282F89819A81FC01218BFA
:100D400089819A81FC0182892FEF280F89819A81FC
:100D5000FC01228B80E001C081E00F900F900F908A
:100D60000F90DF91CF910895CF93DF9300D01F9222
:100D7000CDB7DEB79A8389836B8389819A81FC0121
:100D80008289803168F589819A81FC018089882F68
:100D900090E029813A81820F931F2B81FC012083EF
:100DA00089819A81FC018089882F90E001968F705B
:100DB0009078992324F40197806F9F6F0196282FD4
:100DC00089819A81FC01208B89819A81FC01828929
:100DD00021E0280F89819A81FC01228B80E001C0EB
:100DE00082E00F900F900F90DF91CF910895CF93F5
:100DF000DF9300D0CDB7DEB79A83898389819A814A
:100E00009C012D5F3F4F89819A81FC0132832183B0
:100E100089819A812FEF3FEFFC01348323838981FD
:100E20009A819C012D5F3F4F89819A81FC01368315
:100E3000258389819A819C012D5F3F4F89819A8109
:100E4000FC013087278389819A81FC0110820F90F1
:100E50000F90DF91CF910895CF93DF9300D0CDB75E
:100E6000DEB79A83898389819A81FC011186108675
:100E70000F900F90DF91CF910895CF93DF9300D023
:100E800000D000D0CDB7DEB79C838B837E836D838B
:100E90008B819C81FC01818192819A8389838D81E0
:100EA0009E8129813A81FC013383228389819A8141
:100EB000FC01248135818D819E81FC013583248351
:100EC00089819A81FC01848195812D813E81FC017B
:100ED0003383228389819A812D813E81FC01358370
:100EE00024838D819E812B813C81FC013187208769
:100EF0008B819C81FC01808121E0280F8B819C816A
:100F0000FC01208326960FB6F894DEBF0FBECDBF3E
:100F1000DF91CF910895CF93DF93CDB7DEB72897B8
:100F20000FB6F894DEBF0FBECDBF9E838D8378874A
:100F30006F838F819885FC01808191819C838B8355
:100F40008B819C81019641F48D819E81FC0187817A
:100F500090859A8389831AC08D819E8103969A8396
:100F6000898307C089819A81FC01828193819A8358
:100F7000898389819A81FC0182819381FC0120818E
:100F800031818B819C818217930760F789819A81D7
:100F9000FC01228133818F819885FC013383228378
:100FA0008F819885FC01828193812F813885FC0196
:100FB000358324838F81988529813A81FC0135838B
:100FC000248389819A812F813885FC013383228390
:100FD0008F8198852D813E81FC01318720878D810D
:100FE0009E81FC01808121E0280F8D819E81FC0182
:100FF000208328960FB6F894DEBF0FBECDBFDF91D9
:10100000CF910895CF93DF9300D000D0CDB7DEB756
:101010009C838B838B819C81FC01808591859A8345
:1010200089838B819C81FC01828193812B813C810E
:10103000F90124813581FC01358324838B819C81D6
:10104000FC01848195812B813C81F90122813381CE
:10105000FC013383228389819A81FC0121813281C1
:101060008B819C812817390751F48B819C81FC016D
:101070002481358189819A81FC01328321838B818E
:101080009C81FC011186108689819A81FC018081F6
:101090002FEF280F89819A81FC01208389819A8111
:1010A000FC0180810F900F900F900F90DF91CF91F6
:1010B0000895CF93DF93CDB7DEB728970FB6F89496
:1010C000DEBF0FBECDBF9C838B837E836D8358872D
:1010D0004F838B819C8121E1FC0120838B819C814A
:1010E00001979C838B838B819C8122E2FC0120836E
:1010F0008B819C8101979C838B838B819C8123E3D3
:10110000FC0120838B819C8101979C838B838D8143
:101110009E819A83898329818B819C81FC01208314
:101120008B819C8101979C838B8389819A81892FF4
:1011300099279A83898329818B819C81FC01208353
:101140008B819C8101979C838B838B819C81FC018B
:1011500010828B819C8101979C838B838B819C81E6
:1011600020E8FC0120838B819C8101979C838B83E9
:101170008B819C81FC0110828B819C8101979C83D7
:101180008B838B819C8122E0FC0120838B819C815D
:1011900001979C838B838B819C8123E0FC012083BE
:1011A0008B819C8101979C838B838B819C8124E024
:1011B000FC0120838B819C8101979C838B838B8195
:1011C0009C8125E0FC0120838B819C8101979C837D
:1011D0008B838B819C8126E0FC0120838B819C8109
:1011E00001979C838B838B819C8127E0FC0120836A
:1011F0008B819C8101979C838B838B819C8128E0D0
:10120000FC0120838B819C8101979C838B838B8144
:101210009C8129E0FC0120838B819C8101979C8328
:101220008B838B819C8120E1FC0120838B819C81BD
:1012300001979C838B838B819C8121E1FC0120831E
:101240008B819C8101979C838B838B819C8122E184
:10125000FC0120838B819C8101979C838B838B81F4
:101260009C8123E1FC0120838B819C8101979C83DD
:101270008B838B819C8124E1FC0120838B819C8169
:1012800001979C838B838B819C8125E1FC012083CA
:101290008B819C8101979C838B838B819C8126E130
:1012A000FC0120838B819C8101979C838B838B81A4
:1012B0009C8127E1FC0120838B819C8101979C8389
:1012C0008B838B819C8128E1FC0120838B819C8115
:1012D00001979C838B838B819C8129E1FC01208376
:1012E0008B819C8101979C838B838B819C8120E2E5
:1012F000FC0120838B819C8101979C838B838B8154
:101300009C8121E2FC0120838B819C8101979C833D
:101310008B838B819C8122E2FC0120838B819C81C9
:1013200001979C838B838B819C8123E2FC0120832A
:101330008B819C8101979C838B838F8198859A8375
:10134000898329818B819C81FC0120838B819C81F5
:1013500001979C838B8389819A81892F99279A830E
:10136000898329818B819C81FC0120838B819C81D5
:1013700001979C838B838B819C8126E2FC012083D7
:101380008B819C8101979C838B838B819C8127E23D
:10139000FC0120838B819C8101979C838B838B81B3
:1013A0009C8128E2FC0120838B819C8101979C8396
:1013B0008B838B819C8129E2FC0120838B819C8122
:1013C00001979C838B838B819C8120E3FC0120838C
:1013D0008B819C8101979C838B838B819C8121E3F2
:1013E000FC0120838B819C8101979C838B838B8163
:1013F0009C8128960FB6F894DEBF0FBECDBFDF915B
:10140000CF910895CF93DF93CDB7DEB70E94ED0A59
:10141000A0917A05B0917B05CD91CDBFDD91DEBF66
:10142000FF91EF91DF91CF91BF91AF919F918F91FC
:101430007F916F915F914F913F912F911F910F91EC
:10144000FF90EF90DF90CF90BF90AF909F908F90E4
:101450007F906F905F904F903F902F901F900F90D4
:101460000FBE0F90089581E0DF91CF9108950F9204
:101470000FB6F8940F921F9211242F923F924F9221
:101480005F926F927F928F929F92AF92BF92CF9214
:10149000DF92EF92FF920F931F932F933F934F93FF
:1014A0005F936F937F938F939F93AF93BF93CF93EC
:1014B000DF93EF93FF93A0917A05B0917B050DB672
:1014C0000D920EB60D920E943317A0917A05B0913D
:1014D0007B05CD91CDBFDD91DEBFFF91EF91DF9117
:1014E000CF91BF91AF919F918F917F916F915F91BC
:1014F0004F913F912F911F910F91FF90EF90DF90AF
:10150000CF90BF90AF909F908F907F906F905F90A3
:101510004F903F902F901F900F900FBE0F90089507
:101520000F920FB6F8940F921F9211242F923F92B0
:101530004F925F926F927F928F929F92AF92BF92E3
:10154000CF92DF92EF92FF920F931F932F933F93CF
:101550004F935F936F937F938F939F93AF93BF93BB
:10156000CF93DF93EF93FF93A0917A05B0917B0522
:101570000DB60D920EB60D920E944716882311F0FB
:101580000E943317A0917A05B0917B05CD91CDBF14
:10159000DD91DEBFFF91EF91DF91CF91BF91AF91D0
:1015A0009F918F917F916F915F914F913F912F917B
:1015B0001F910F91FF90EF90DF90CF90BF90AF9071
:1015C0009F908F907F906F905F904F903F902F9063
:1015D0001F900F900FBE0F900895CF93DF9300D010
:1015E00000D000D0CDB7DEB789E999E3A0E0B0E044
:1015F00089839A83AB83BC8389819A81AB81BC81C7
:10160000689415F8B695A795979587951694D1F790
:1016100089839A83AB83BC8389819A81AB81BC81A6
:101620000197A109B10989839A83AB83BC8389811E
:101630008D8389819A81AB81BC81892F9A2FAB2FB1
:10164000BB2789839A83AB83BC8389818E8389E896
:1016500090E02E81FC01208388E890E02D81FC0140
:1016600020838BE08D8381E890E02D81FC01208335
:101670008FE690E0FC0180818D838D8182608D8377
:101680008FE690E02D81FC01208326960FB6F8941A
:10169000DEBF0FBECDBFDF91CF9108950E94900AAB
:1016A0001895CF93DF9300D000D0CDB7DEB79C83E1
:1016B0008B831A8219820E948D15809174059091F6
:1016C0007505892B31F48BE891E090937505809333
:1016D000740520917205309173058B819C81820F76
:1016E000931F873E934038F5209172053091730522
:1016F0008B819C81280F391F809172059091730511
:1017000082179307C0F4209174053091750580917C
:10171000720590917305820F931F9A83898320919C
:101720007205309173058B819C81820F931F90937A
:101730007305809372050E94991589819A810F9093
:101740000F900F900F90DF91CF910895CF93DF937B
:1017500000D0CDB7DEB79A8389830F900F90DF91C9
:10176000CF9108958F929F92AF92BF92CF92DF92C6
:10177000EF920F931F93CF93DF93CDB7DEB76597AB
:101780000FB6F894DEBF0FBECDBF8C834D835E8352
:101790006F83788729870A87EB86DD86CC86BF86AC
:1017A000AE86998A888A88E090E00E948D1B9A8391
:1017B00089838C81882F90E0880F991F8A589A4FCF
:1017C00029813A81FC01318320838C81882F90E02C
:1017D000880F991F885D9E4FFC012081318189818E
:1017E0009A81FC013183208389819A812E853F85EE
:1017F000FC013383228389819A812C853D85FC01FC
:101800003583248389819A8128893989FC0137832A
:1018100026838FE590E0FC0180818B83F894898199
:101820009A81FC0180819181069729813A81F90191
:101830002081318126503109F90120812260FC018B
:10184000208389819A81FC01808191818C010250E1
:1018500011098D819E81AF81B885880F991FAA1FBC
:10186000BB1F880F991FAA1FBB1F880F991FAA1F94
:10187000BB1F9C01AD0180E090E0A1EEB0E0BC0197
:10188000CD010E94511BDA01C9018150F80180830A
:1018900089819A81FC0180819181059728E9FC0169
:1018A000208389819A81FC0180819181049726E0BF
:1018B000FC0120838FE590E02B81FC01208389814E
:1018C0009A8165960FB6F894DEBF0FBECDBFDF914B
:1018D000CF911F910F91EF90DF90CF90BF90AF907D
:1018E0009F908F9008951F920F9200905F000F922B
:1018F00011242F933F934F935F936F937F938F9315
:101900009F93AF93BF93EF93FF93CF93DF931F9278
:10191000CDB7DEB78091760590917705892B31F1AF
:1019200086EC90E0FC01808189838091760590911E
:101930007705FC018481958169810E94B4068091BC
:10194000760590917705FC0186819781892B71F04E
:101950008091760590917705FC01268137818091F1
:101960007605909177056981F90109950F90DF91CE
:10197000CF91FF91EF91BF91AF919F918F917F9107
:101980006F915F914F913F912F910F9000925F0067
:101990000F901F9018951F920F9200905F000F926A
:1019A00011242F933F934F935F936F937F938F9364
:1019B0009F93AF93BF93EF93FF93CF93DF931F92C8
:1019C000CDB7DEB78091760590917705892BF9F038
:1019D0008091760590917705FC01828193819E012B
:1019E0002F5F3F4FB9010E946C06882331F486ECCB
:1019F00090E02981FC01208313C081EC90E021EC70
:101A000030E0F90120812F7DFC01208309C081ECA9
:101A100090E021EC30E0F90120812F7DFC01208352
:101A20000F90DF91CF91FF91EF91BF91AF919F9177
:101A30008F917F916F915F914F913F912F910F9077
:101A400000925F000F901F9018951F920F920090C8
:101A50005F000F9211242F933F934F935F936F93E7
:101A60007F938F939F93AF93BF93EF93FF93CF9306
:101A7000DF931F92CDB7DEB78091780590917905FD
:101A8000892B31F18EEC90E0FC018081898380917B
:101A9000780590917905FC018481958169810E9486
:101AA000B4068091780590917905FC018681978133
:101AB000892B71F08091780590917905FC01268140
:101AC000378180917805909179056981F9010995AF
:101AD0000F90DF91CF91FF91EF91BF91AF919F91C7
:101AE0008F917F916F915F914F913F912F910F90C7
:101AF00000925F000F901F9018951F920F92009018
:101B00005F000F9211242F933F934F935F936F9336
:101B10007F938F939F93AF93BF93EF93FF93CF9355
:101B2000DF931F92CDB7DEB780917805909179054C
:101B3000892BF9F08091780590917905FC018281DB
:101B400093819E012F5F3F4FB9010E946C0688234D
:101B500031F48EEC90E02981FC01208313C089ECE4
:101B600090E029EC30E0F90120812F7DFC012083F9
:101B700009C089EC90E029EC30E0F90120812F7D4B
:101B8000FC0120830F90DF91CF91FF91EF91BF91E6
:101B9000AF919F918F917F916F915F914F913F9105
:101BA0002F910F9000925F000F901F901895CF9388
:101BB000DF9300D000D01F92CDB7DEB79C838B831C
:101BC0006D838B819C819A8389830FB6F8940F92E1
:101BD00089819A81FC018081918129813A81F90171
:101BE000238D422F50E029813A81F901248D222F43
:101BF00030E0429FB001439F700D529F700D112441
:101C00009B01280F391F89819A81FC01338322832C
:101C100089819A81FC01128E89819A81FC0120813F
:101C2000318189819A81FC013583248389819A815C
:101C3000FC018081918129813A81F901238D222F34
:101C400030E0A9014150510929813A81F901248DDF
:101C5000222F30E0429FB001439F700D529F700DC4
:101C600011249B01280F391F89819A81FC01378338
:101C7000268389819A812FEFFC01258F89819A81A2
:101C80002FEFFC01268F8D81882381F489819A8131
:101C9000FC0180858823A1F089819A8108960E94A1
:101CA000DA17882369F00E94370A0AC089819A816D
:101CB00008960E94F70689819A8141960E94F7064C
:101CC0000F900FBE81E00F900F900F900F900F902C
:101CD000DF91CF9108950F931F93CF93DF93CDB7EB
:101CE000DEB729970FB6F894DEBF0FBECDBF8F8346
:101CF000688749878885882319F41A8219820FC05A
:101D00008F81482F50E08885282F30E0429FC00106
:101D1000439F900D529F900D11249A83898389814E
:101D20009A8181960E94510B9C838B838B819C812D
:101D3000892B81F08B819C8181969E838D832B8161
:101D40003C818D819E8189012985AC0168858F81C7
:101D50000E94B70E8B819C8129960FB6F894DEBF46
:101D60000FBECDBFDF91CF911F910F9108950F93BB
:101D70001F93CF93DF93CDB7DEB727970FB6F894B5
:101D8000DEBF0FBECDBF89836A835C834B832D8307
:101D90001F830E838A81882341F48E819F812E8147
:101DA0003F81FC013183208307C08E819F812B817D
:101DB0003C81FC01318320838E819F812981FC013C
:101DC000238F8E819F812A81FC01248F8E819F81A8
:101DD00061E00E94D70D8E819F812D81FC0120A39F
:101DE00027960FB6F894DEBF0FBECDBFDF91CF911F
:101DF0001F910F910895CF93DF9300D0CDB7DEB739
:101E00009A83898389819A81892BB9F089819A8102
:101E1000FC011382128289819A81FC011182108255
:101E200089819A81FC01168289819A8120E040E0B3
:101E300050E060E070E00E94420F0F900F90DF9141
:101E4000CF910895CF93DF9300D000D01F92CDB7EC
:101E5000DEB78D8381E089831A824D816A81898111
:101E60000E946B0E9C838B838B819C810E94FB0E56
:101E70008B819C810F900F900F900F900F90DF91AE
:101E8000CF910895CF93DF93CDB7DEB72E970FB6DE
:101E9000F894DEBF0FBECDBF998788877B876A879E
:101EA0005D874C872E871982888599859B838A83D5
:101EB0000FB6F8940F928A819B81FC01228D8A8152
:101EC0009B81FC01838D281718F08E85823011F5D7
:101ED0002A853B858A819B814E85B9010E944911E3
:101EE0008C838A819B81FC018189882351F08A81BE
:101EF0009B8141960E94DA17882341F00E94370A9D
:101F000005C08C81882311F00E94370A0F900FBE04
:101F100081E061C08C859D85892B21F40F900FBED7
:101F200080E059C08981882331F4CE0105960E9452
:101F3000471881E089830F900FBE0E948D150FB660
:101F4000F8940F928A819B81FC01858D8F3F21F44B
:101F50008A819B81FC01158E8A819B81FC01868D83
:101F60008F3F21F48A819B81FC01168E0F900FBE5A
:101F70009E01245F3F4FCE010596B9010E94621871
:101F8000882301F58A819B810E94E412882399F0BD
:101F90002C853D858A819B810896B9010E94B817DE
:101FA0008A819B810E9469120E949915882391F46D
:101FB0000E94370A0FC08A819B810E9469120E9489
:101FC000991576CF8A819B810E9469120E9499158A
:101FD00080E001C06DCF2E960FB6F894DEBF0FBE25
:101FE000CDBFDF91CF910895CF93DF93CDB7DEB70B
:101FF0002C970FB6F894DEBF0FBECDBF9F838E83A4
:10200000798768875B874A872C878E819F819B832E
:102010008A831C828A819B81FC01228D8A819B811B
:10202000FC01838D281718F08C85823089F58A8110
:102030009B81FC01868D8D83288539858A819B81D2
:102040004C85B9010E9449118D818F3FB9F48A8175
:102050009B81FC0181898823C1F08A819B81419603
:102060000E94DA17882389F08A859B85892B69F07D
:102070008A859B8521E0FC01208307C08D818F5FCD
:10208000282F8A819B81FC01268F81E0898301C0F2
:10209000198289812C960FB6F894DEBF0FBECDBF92
:1020A000DF91CF910895CF93DF93CDB7DEB76097DF
:1020B0000FB6F894DEBF0FBECDBF9B878A877D87A2
:1020C0006C875F874E87288B19828A859B859B83C7
:1020D0008A830FB6F8940F928A819B81FC01828DCE
:1020E0008C838C81882309F451C08A819B81FC01F7
:1020F000868197819E838D832C853D858A819B81F6
:10210000B9010E9419128889882331F58C812FEF3B
:10211000280F8A819B81FC01228F8A819B81FC018F
:1021200080819181892B41F40E94BC1A9C018A8193
:102130009B81FC01338322838A819B81FC01808502
:10214000882301F18A819B8108960E94DA178823EF
:10215000C9F00E94370A16C08A819B812D813E8179
:10216000FC01378326838A819B81FC018189882336
:1021700049F08A819B8141960E94DA17882311F0E9
:102180000E94370A0F900FBE81E07AC08E859F852E
:10219000892B21F40F900FBE80E072C089818823C3
:1021A00031F4CE0107960E94471881E089830F9091
:1021B0000FBE0E948D150FB6F8940F928A819B81F5
:1021C000FC01858D8F3F21F48A819B81FC01158E56
:1021D0008A819B81FC01868D8F3F21F48A819B81BE
:1021E000FC01168E0F900FBE9E01225F3F4FCE0165
:1021F0000796B9010E946218882399F58A819B810C
:102200000E94C612882331F18A819B81FC01808162
:102210009181892B61F40FB6F8940F928A819B818A
:10222000FC01828193810E94A8190F900FBE2E8518
:102230003F858A819B814196B9010E94B8178A81A6
:102240009B810E9469120E9499158823C1F40E9403
:10225000370A15C08A819B810E9469120E949915D4
:1022600038CF8A819B810E9469120E9499158A81C8
:102270009B810E94C612882311F080E001C029CF03
:1022800060960FB6F894DEBF0FBECDBFDF91CF9141
:102290000895CF93DF93CDB7DEB727970FB6F894A5
:1022A000DEBF0FBECDBF9C838B837E836D834F8348
:1022B00019828B819C81FC01828D8A838B819C8118
:1022C000FC01848D8823B1F48B819C81FC01808189
:1022D0009181892B09F09CC08B819C81FC018281BA
:1022E00093810E943F1A89838B819C81FC01138218
:1022F00012828EC08F818823D9F58B819C81FC014D
:10230000848D482F50E08B819C81FC0184819581D4
:102310002D813E81B9010E94161D8B819C81FC019B
:10232000248135818B819C81FC01848D882F90E0F4
:10233000280F391F8B819C81FC01358324838B817D
:102340009C81FC01248135818B819C81FC018281EF
:1023500093812817390708F45BC08B819C81FC01AD
:10236000208131818B819C81FC013583248350C085
:102370008B819C81FC01848D482F50E08B819C8156
:10238000FC01868197812D813E81B9010E94161D35
:102390008B819C81FC01268137818B819C81FC0192
:1023A000848D882F90E0919581959109280F391F90
:1023B0008B819C81FC01378326838B819C81FC016E
:1023C000268137818B819C81FC0180819181281736
:1023D0003907A8F48B819C81FC01228133818B8198
:1023E0009C81FC01848D882F90E0919581959109C5
:1023F000280F391F8B819C81FC01378326838F81B5
:10240000823031F48A81882319F08A8181508A834D
:102410008A8121E0280F8B819C81FC01228F898198
:1024200027960FB6F894DEBF0FBECDBFDF91CF91D8
:102430000895CF93DF9300D000D0CDB7DEB79A8355
:1024400089837C836B8389819A81FC01848D8823B5
:10245000C9F189819A81FC012681378189819A811C
:10246000FC01848D882F90E0280F391F89819A8183
:10247000FC013783268389819A81FC01268137817B
:1024800089819A81FC01828193812817390750F054
:1024900089819A81FC012081318189819A81FC01A5
:1024A0003783268389819A81FC01848D482F50E0EF
:1024B00089819A81FC01268137818B819C81B901B8
:1024C0000E94161D0F900F900F900F90DF91CF91EB
:1024D0000895CF93DF9300D000D0CDB7DEB79C83B3
:1024E0008B830FB6F8940F928B819C81FC01868DB3
:1024F000898314C08B819C81FC018189882351F0E0
:102500008B819C8141960E94DA17882321F00E94DA
:10251000CA1801C006C08981815089838981181633
:102520004CF38B819C812FEFFC01268F0F900FBE07
:102530000FB6F8940F928B819C81FC01858D8A8364
:1025400014C08B819C81FC018085882369F08B817C
:102550009C8108960E94DA17882311F00E94CA18FD
:102560008A8181508A8301C003C08A8118164CF386
:102570008B819C812FEFFC01258F0F900FBE0F9058
:102580000F900F900F90DF91CF910895CF93DF932D
:1025900000D01F92CDB7DEB79B838A830FB6F89425
:1025A0000F928A819B81FC01828D882319F481E03E
:1025B000898301C019820F900FBE89810F900F90FF
:1025C0000F90DF91CF910895CF93DF9300D01F92AA
:1025D000CDB7DEB79B838A830FB6F8940F928A81BA
:1025E0009B81FC01228D8A819B81FC01838D2817B0
:1025F00019F481E0898301C019820F900FBE89818F
:102600000F900F900F90DF91CF9108958F929F922E
:10261000AF92BF92CF92DF92EF92FF920F931F93F0
:10262000CF93DF93CDB7DEB760970FB6F894DEBFD8
:102630000FBECDBF9F838E83798768875B874A876C
:102640003D872C870E87F88AEF868A859B850E94B6
:10265000510B9D838C838C819D81892BB9F08CE2F9
:1026600090E00E94510B9A83898389819A81892BFA
:1026700041F089819A812C813D81FC01308F278B2B
:1026800007C08C819D810E94A60B02C01A8219820C
:1026900089819A81892B09F18A859B85CC01A0E0EB
:1026A000B0E009811A814F8558892C853D85688560
:1026B0007985EE81FF81812C912C58016A01EE848D
:1026C00089019C01AD01CF010E94831389819A8108
:1026D0000E945D1481E08B8302C08FEF8B838B811E
:1026E00060960FB6F894DEBF0FBECDBFDF91CF91DD
:1026F0001F910F91FF90EF90DF90CF90BF90AF9020
:102700009F908F9008958F929F92AF92BF92CF9299
:10271000DF92EF920F931F93CF93DF93CDB7DEB786
:1027200064970FB6F894DEBF0FBECDBF9D838C8338
:102730007F836E83288739874A875B871D870C874D
:10274000EE86D88ACF86BA8AA98A9C8A8B8A2885FF
:10275000398589899A89FC018789908DA90165EA63
:1027600070E00E941F1D89899A89FC012789308D9C
:10277000888599850197820F931F9B838A8319828D
:1027800022C08981882F90E02981222F30E04E815C
:102790005F81240F351FF901408129893A89820F11
:1027A000931F4996FC0140838981882F90E02E81F8
:1027B0003F81820F931FFC018081882309F406C0AA
:1027C00089818F5F898389818830D8F289899A8944
:1027D000FC0110A28E85843010F083E08E878989F9
:1027E0009A892E85FC01268B89899A892E85FC0180
:1027F00023A389899A89FC0114A289899A8902965E
:102800000E942C0789899A890C960E942C07898935
:102810009A8929893A89FC01318720878E85882FFA
:1028200090E024E030E0281B390B89899A89FC016B
:102830003587248789899A8929893A89FC01338BCC
:10284000228B89899A89FC0116A215A289899A8905
:10285000FC0117A210A611A612A689899A89FC016B
:1028600013A64C855D852C813D818A819B81B901B0
:102870000E9459089C0189899A89FC01318320832F
:102880008F859889892B39F08F85988929893A898C
:10289000FC013183208364960FB6F894DEBF0FBE2F
:1028A000CDBFDF91CF911F910F91EF90DF90CF902F
:1028B000BF90AF909F908F900895CF93DF9300D0FB
:1028C000CDB7DEB79A8389830FB6F8940F928091C3
:1028D000C9058F5F8093C90580917A0590917B052A
:1028E000892B69F489819A8190937B0580937A057D
:1028F0008091C9058130C9F40E94E61816C0809104
:10290000CD05882391F480917A0590917B05FC0197
:10291000268989819A81FC018689821730F0898114
:102920009A8190937B0580937A058091D1058F5F82
:102930008093D1052091D10589819A81FC0121A341
:1029400089819A81FC0196898091CC05891730F4A0
:1029500089819A81FC0186898093CC0589819A813D
:10296000AC014E5F5F4F89819A81FC018689282FD7
:1029700030E0C901880F991F880F991F880F991F90
:10298000820F931F84589A4FBA010E943D070F90FF
:102990000FBE8091CD05882371F080917A059091CA
:1029A0007B05FC01268989819A81FC01868928178B
:1029B00010F40E94370A0F900F90DF91CF91089585
:1029C000CF93DF93CDB7DEB72A970FB6F894DEBF6B
:1029D0000FBECDBF98878F837A87698719820E943F
:1029E0008D158091CA059091CB059B838A838F8139
:1029F0009885FC012081318189859A85820F931FFA
:102A00009D838C838F819885FC01208131818A810F
:102A10009B8182179307A0F48F819885FC01208108
:102A200031818C819D8182179307E8F42C813D814F
:102A30008A819B8182179307B0F481E0898313C058
:102A40008F819885FC01208131818C819D81821745
:102A5000930738F02C813D818A819B8182179307EF
:102A600010F481E089838F8198852C813D81FC0160
:102A7000318320838981882359F02C813D818A818B
:102A80009B81A901481B590BCA0160E00E94D61A1C
:102A90000E9499158E838E81882311F40E94370A33
:102AA0002A960FB6F894DEBF0FBECDBFDF91CF914F
:102AB0000895EF92FF920F93CF93DF931F92CDB7BC
:102AC000DEB70F2EF4EDEF2EF5E0FF2EF02D00E037
:102AD00020E030E045E550E060E571E084ED98E10C
:102AE0000E94061389838981813081F4F8948FEFE5
:102AF0009FEF9093D3058093D20581E08093CD051D
:102B00001092CB051092CA050E94020A0F90DF9125
:102B1000CF910F91FF90EF900895CF93DF93CDB7B2
:102B2000DEB78091D6058F5F8093D605DF91CF9178
:102B30000895CF93DF9300D000D0CDB7DEB71A82CF
:102B400019821B820FB6F8940F928091D60581509E
:102B50008093D6058091D605882309F077C08091AF
:102B6000C905882309F472C049C08091BB059091C2
:102B7000BC05FC01868197819A83898389819A812A
:102B80000C960E94020889819A8102960E9402088E
:102B900089819A81FC0196898091CC05891730F44E
:102BA00089819A81FC0186898093CC0589819A81EB
:102BB000AC014E5F5F4F89819A81FC018689282F85
:102BC00030E0C901880F991F880F991F880F991F3E
:102BD000820F931F84589A4FBA010E943D07898142
:102BE0009A81FC01268980917A0590917B05FC01F0
:102BF0008689281718F081E08093CF058091B6056B
:102C0000882309F0B2CF89819A81892B11F00E9423
:102C10007A198091CE058C838C81882379F00E946B
:102C20004716882319F081E08093CF058C8181506D
:102C30008C838C81882399F71092CE058091CF05E3
:102C4000882321F081E08B830E94370A0F900FBE0A
:102C50008B810F900F900F900F90DF91CF9108957F
:102C6000CF93DF9300D0CDB7DEB70FB6F8940F92B5
:102C70008091CA059091CB059A8389830F900FBEEE
:102C800089819A810F900F90DF91CF910895CF9312
:102C9000DF93CDB7DEB729970FB6F894DEBF0FBE2E
:102CA000CDBF19828091D605882309F0C7C08091D5
:102CB000CA059091CB0501969B838A838A819B816B
:102CC0009093CB058093CA058A819B81892BD9F487
:102CD0008091B2059091B3059D838C838091B4055A
:102CE0009091B5059093B3058093B2058C819D8139
:102CF0009093B5058093B4058091D0058F5F809344
:102D0000D0050E947A198091D2059091D3052A812D
:102D10003B812817390708F477C08091B20590915C
:102D2000B305FC018081882339F48FEF9FEF9093E6
:102D3000D3058093D20568C08091B2059091B30508
:102D4000FC0185819681FC01868197819F838E831A
:102D50008E819F81FC0182819381998788872A8156
:102D60003B81888599852817390738F488859985A6
:102D70009093D3058093D20547C08E819F810296A0
:102D80000E9402088E819F81FC0184899589892B8C
:102D900029F08E819F810C960E9402088E819F816E
:102DA000FC0196898091CC05891730F48E819F8132
:102DB000FC0186898093CC058E819F81AC014E5F9A
:102DC0005F4F8E819F81FC018689282F30E0C901E9
:102DD000880F991F880F991F880F991F820F931FC3
:102DE00084589A4FBA010E943D078E819F81FC0151
:102DF000268980917A0590917B05FC0186892817A8
:102E000010F081E0898389CF80917A0590917B05CC
:102E1000FC018689282F30E0C901880F991F880F8F
:102E2000991F880F991F820F931F84589A4FFC0196
:102E30008081823010F081E0898305C08091CE05C9
:102E40008F5F8093CE058091CF05882311F081E0BC
:102E50008983898129960FB6F894DEBF0FBECDBF56
:102E6000DF91CF910895CF93DF9300D01F92CDB71C
:102E7000DEB78091D605882321F081E08093CF05CD
:102E800071C01092CF0580917A0590917B05FC016D
:102E900085A196A10E944A068091CC05898303C032
:102EA0008981815089838981282F30E0C901880F69
:102EB000991F880F991F880F991F820F931F84589D
:102EC0009A4FFC018081882359F38981282F30E0B3
:102ED000C901880F991F880F991F880F991F820FAA
:102EE000931F84589A4F9B838A838A819B81FC011C
:102EF00081819281FC01228133818A819B81FC0145
:102F0000328321838A819B81FC01218132818A81E4
:102F10009B8103962817390769F48A819B81FC01FC
:102F200081819281FC01228133818A819B81FC0114
:102F3000328321838A819B81FC0181819281FC0102
:102F40008681978190937B0580937A058981809310
:102F5000CC0580917A0590917B05FC0185A196A115
:102F60000E9440060F900F900F90DF91CF9108952F
:102F7000CF93DF9300D000D0CDB7DEB79A8389839B
:102F80007C836B8380917A0590917B059C01245F03
:102F90003F4F89819A81B9010E948B078B819C8167
:102FA00061E00E94D61A0F900F900F900F90DF9162
:102FB000CF910895CF93DF9300D000D01F92CDB76B
:102FC000DEB79D838C838C819D81FC0185819681F8
:102FD000FC01868197819B838A838A819B810C96E1
:102FE0000E9402088091D605882369F58A819B8119
:102FF00002960E9402088A819B81FC019689809139
:10300000CC05891730F48A819B81FC0186898093E5
:10301000CC058A819B81AC014E5F5F4F8A819B8189
:10302000FC018689282F30E0C901880F991F880F7D
:10303000991F880F991F820F931F84589A4FBA01C6
:103040000E943D0708C08A819B810C96BC0186EBDB
:1030500095E00E943D078A819B81FC012689809131
:103060007A0590917B05FC018689821730F481E016
:10307000898381E08093CF0501C0198289810F90F7
:103080000F900F900F900F90DF91CF910895CF93F5
:10309000DF9300D0CDB7DEB79A8389832091D00526
:1030A00089819A81FC0120832091CA053091CB054A
:1030B00089819A81FC01328321830F900F90DF91E7
:1030C000CF910895CF93DF93CDB7DEB727970FB693
:1030D000F894DEBF0FBECDBF9D838C837F836E834C
:1030E0000FB6F8940F928091CA059091CB059B83FF
:1030F0008A838C819D81FC0190818091D0059817F5
:1031000069F08C819D81FC01218132818A819B81C2
:103110008217930718F081E0898330C08C819D81EC
:10312000FC01818192812A813B81281B390B8E8190
:103130009F81FC018081918128173907E8F48E81F5
:103140009F81FC01208131818C819D81FC01418125
:1031500052818A819B81BA01681B790BCB01280FB0
:10316000391F8E819F81FC01318320838C819D8159
:103170000E944718198202C081E089830F900FBE18
:10318000898127960FB6F894DEBF0FBECDBFDF91C1
:10319000CF910895CF93DF93CDB7DEB781E08093D1
:1031A000CF05DF91CF910895CF93DF9300D0CDB7B6
:1031B000DEB79A8389830E94231980917C0582302F
:1031C00010F00E94370A0E94BB04F5CFCF93DF9323
:1031D0001F92CDB7DEB7198213C08981282F30E046
:1031E000C901880F991F880F991F880F991F820F97
:1031F000931F84589A4F0E94F70689818F5F8983B5
:103200008981843050F380EA95E00E94F70689EACC
:1032100095E00E94F70686EB95E00E94F7068FEB9B
:1032200095E00E94F70680EA95E09093B3058093BD
:10323000B20589EA95E09093B5058093B4050F90A7
:10324000DF91CF910895CF93DF9300D01F92CDB738
:10325000DEB72FC00E948D159091BF0581E09923A4
:1032600009F080E089830E9499158981882309F5F6
:103270000FB6F8940F928091C4059091C505FC019A
:10328000868197819B838A838A819B8102960E9493
:1032900002088091C90581508093C9058091C805B5
:1032A00081508093C8050F900FBE8A819B810E9438
:1032B00063198091C805882369F60F900F900F90CD
:1032C000DF91CF910895CF93DF9300D0CDB7DEB7D4
:1032D0009A83898389819A81FC018789908D0E94D4
:1032E000A60B89819A810E94A60B0F900F90DF9107
:1032F000CF910895CF93DF9300D0CDB7DEB7809103
:10330000B2059091B305FC018081882339F48FEFD9
:103310009FEF9093D3058093D20515C08091B2059D
:103320009091B305FC0185819681FC01868197818E
:103330009A83898389819A81FC0182819381909308
:10334000D3058093D2050F900F90DF91CF91089510
:10335000CF93DF9300D000D0CDB7DEB79C838B83B3
:103360008B819C819A8389838B819C81892B09F431
:103370007FC089819A81FC01268980917A0590918C
:103380007B05FC018689281708F072C089819A8123
:10339000FC018485958599238CF080917A05909124
:1033A0007B05FC018689882F90E024E030E0281B13
:1033B000390B89819A81FC013587248789819A811B
:1033C000FC014285538589819A81FC018689282FD9
:1033D00030E0C901880F991F880F991F880F991F26
:1033E000820F931F84589A4F48175907B9F589815E
:1033F0009A8102960E94020880917A0590917B053D
:10340000FC01268989819A81FC01268B89819A8118
:10341000FC0196898091CC05891730F489819A81C5
:10342000FC0186898093CC0589819A81AC014E5F2D
:103430005F4F89819A81FC018689282F30E0C9017C
:10344000880F991F880F991F880F991F820F931F4C
:1034500084589A4FBA010E943D070AC080917A05AC
:1034600090917B05FC01268989819A81FC01268B3C
:103470000F900F900F900F90DF91CF910895CF9301
:10348000DF9300D000D01F92CDB7DEB79D838C8331
:103490008C819D819B838A8319828C819D81892B5C
:1034A00009F461C08A819B81FC0184A12FEF280F60
:1034B0008A819B81FC0124A38A819B81FC0126894E
:1034C0008A819B81FC0183A1281709F44CC08A8161
:1034D0009B81FC0184A1882309F045C08A819B81DE
:1034E00002960E9402088A819B81FC0123A18A81A5
:1034F0009B81FC01268B8A819B81FC018689882F18
:1035000090E024E030E0281B390B8A819B81FC018C
:10351000358724878A819B81FC0196898091CC051F
:10352000891730F48A819B81FC0186898093CC05C0
:103530008A819B81AC014E5F5F4F8A819B81FC0138
:103540008689282F30E0C901880F991F880F991F9D
:10355000880F991F820F931F84589A4FBA010E94B7
:103560003D0781E0898389810F900F900F900F9024
:103570000F90DF91CF910895CF93DF93CDB7DEB752
:1035800080917A0590917B05892B49F080917A058D
:1035900090917B05FC0124A12F5FFC0124A3809165
:1035A0007A0590917B05DF91CF910895CF93DF93BA
:1035B000CDB7DEB727970FB6F894DEBF0FBECDBFED
:1035C0009E838D836F838091CA059091CB059A83EA
:1035D000898380917A0590917B0502960E9402086A
:1035E00029813A818D819E81820F931F9C838B83D9
:1035F00080917A0590917B052B813C81FC0133837E
:1036000022832B813C8189819A812817390778F49C
:1036100080917A0590917B059C012E5F3F4F8091B0
:10362000B4059091B505B9010E948B071DC080912A
:103630007A0590917B059C012E5F3F4F8091B205EA
:103640009091B305B9010E948B078091D2059091AA
:10365000D3052B813C812817390730F48B819C815D
:103660009093D3058093D20527960FB6F894DEBFCA
:103670000FBECDBFDF91CF91089597FB072E16F4B3
:10368000009407D077FD09D00E94791B07FC05D074
:103690003EF4909581959F4F0895709561957F4F69
:1036A0000895A1E21A2EAA1BBB1BFD010DC0AA1F83
:1036B000BB1FEE1FFF1FA217B307E407F50720F09B
:1036C000A21BB30BE40BF50B661F771F881F991F16
:1036D0001A9469F760957095809590959B01AC015F
:1036E000BD01CF010895EE0FFF1F0590F491E02D6D
:1036F0000994AA1BBB1B51E107C0AA1FBB1FA61739
:10370000B70710F0A61BB70B881F991F5A95A9F78A
:1037100080959095BC01CD010895CF93DF938230C1
:10372000910510F482E090E0E091D905F091DA057E
:1037300020E030E0C0E0D0E0309711F140815181CD
:1037400048175907C0F04817590761F482819381DF
:10375000209719F09B838A832BC09093DA0580937E
:10376000D90526C02115310519F04217530718F461
:103770009A01BE01DF01EF010280F381E02DDCCF71
:103780002115310509F1281B390B2430310590F43E
:1037900012968D919C9113976115710521F0FB0193
:1037A0009383828304C09093DA058093D905FD0149
:1037B000329644C0FD01E20FF31F81939193225092
:1037C00031092D933C933AC02091D7053091D8050B
:1037D000232B41F420910201309103013093D8054D
:1037E0002093D70520910001309101012115310569
:1037F00041F42DB73EB74091040150910501241BBF
:10380000350BE091D705F091D805E217F307A0F446
:103810002E1B3F0B2817390778F0AC014E5F5F4F26
:103820002417350748F04E0F5F1F5093D80540937B
:10383000D7058193919302C0E0E0F0E0CF01DF91E2
:10384000CF9108950F931F93CF93DF93009709F4BF
:103850008CC0FC013297138212820091D90510911D
:10386000DA050115110581F420813181820F931F42
:103870002091D7053091D8052817390779F5F093AD
:10388000D805E093D70571C0D80140E050E0AE17ED
:10389000BF0750F412962D913C911397AD0121155D
:1038A000310509F1D901F3CF9D01DA013383228378
:1038B00060817181860F971F8217930769F4EC016D
:1038C00028813981260F371F2E5F3F4F3183208398
:1038D0008A819B8193838283452B29F4F093DA05B7
:1038E000E093D90542C01396FC93EE931297ED0135
:1038F000499159919E01240F351FE217F30771F486
:1039000080819181840F951F029611969C938E93CE
:103910008281938113969C938E931297E0E0F0E05E
:10392000D80112968D919C911397009719F0F80188
:103930008C01F6CF8D919C9198012E5F3F4F820FA5
:10394000931F2091D7053091D8052817390769F4BE
:10395000309729F41092DA051092D90502C013822B
:1039600012821093D8050093D705DF91CF911F9154
:103970000F9108958F929F92AF92BF92CF92DF9254
:10398000EF92FF92CF93DF93EC01688179818A8176
:103990009B81611571058105910521F464E279ED42
:1039A0008BE597E02DE133EF41E050E00E94261DCA
:1039B00049015A019B01AC01A7EAB1E40E94451DEF
:1039C0006B017C01ACEEB4EFA50194010E94531D84
:1039D000DC01CB018C0D9D1DAE1DBF1DB7FF03C0CB
:1039E0000197A109B04888839983AA83BB839F77F5
:1039F000DF91CF91FF90EF90DF90CF90BF90AF908D
:103A00009F908F9008950E94BA1C089586E091E0DF
:103A10000E94BA1C0895A0E0B0E080930601909344
:103A20000701A0930801B09309010895FB01DC018F
:103A300002C001900D9241505040D8F70895DC012A
:103A400001C06D9341505040E0F70895052E97FB5B
:103A50001EF400940E943D1D57FD07D00E94511B8B
:103A600007FC03D04EF40C943D1D509540953095C5
:103A700021953F4F4F4F5F4F0895909580957095DA
:103A800061957F4F8F4F9F4F08950E94581DA59FAE
:103A9000900DB49F900DA49F800D911D1124089549
:103AA000B7FF0C94451D0E94451D821B930B089582
:103AB000A29FB001B39FC001A39F700D811D11246F
:103AC000911DB29F700D811D1124911D0895F894D0
:023AD000FFCF26
:103AD2000000DB05200001000000040030000000AF
:103AE20000000000000000000000000000000000D4
:103AF2000000000000003000C600CE005468656E71
:103B0200207765205374617274210A0073657269AB
:103B1200616C006C706C617965720062616C6C0042
:063B220049444C4500007F
:00000001FF
