S01500004672656552544F532D546573742E7372656378
S11300000C943E000C945B000C945B000C945B001D
S11300100C945B000C945B000C945B000C945B00F0
S11300200C945B000C945B000C945B000C945B00E0
S11300300C945B000C9408080C945B000C945B001B
S11300400C942D020C945B000C945B000C945B00EC
S11300500C94A4090C94FC090C945B000C945B00B4
S11300600C945B000C945B000C945B000C945B00A0
S11300700C94560A0C94AE0A0C945B0011241FBE17
S1130080CFEFD8E0DEBFCDBF11E0A0E0B1E0E0EB00
S1130090FDE202C005900D92A634B107D9F723E022
S11300A0A6E4B1E001C01D92A23DB207E1F70E94AF
S11300B07E010C94D6160C940000CF93DF9300D0ED
S11300C01F92CDB7DEB79B838A83809146019091BE
S11300D04701892B09F44CC0809146019091470156
S11300E020E04AE050E0BE016F5F7F4F0E948B0C1E
S11300F089818136E9F5809146019091470120E09C
S11301004AE050E0BE016F5F7F4F0E948B0C2DC010
S11301108981813461F4809146019091470120E006
S11301204AE050E0BE016F5F7F4F0E948B0C61E09C
S1130130CE0101960E9463028981823651F4809136
S113014006019091070196958795909307018093F6
S11301500601809146019091470120E04AE050E079
S1130160BE016F5F7F4F0E948B0C8981813681F6BF
S1130170ACCFCF93DF9300D0CDB7DEB79A8389831A
S113018086E290E0FC018081882F90E080749927BA
S1130190892B81F48091060190910701049750F016
S11301A08091060190910701969587959093070198
S11301B08093060186E290E0FC018081882F90E024
S11301C081709927892B89F4809106019091070108
S11301D08115934050F48091060190910701880F96
S11301E0991F90930701809306018CE390E00E948D
S11301F0B610C6CFCF93DF93CDB7DEB78091480159
S1130200882349F48BE290E02BE230E0F90120816D
S11302102460FC0120838BE290E02BE230E0F901C2
S113022020812062FC0120838BE290E02BE230E00D
S1130230F90120812F7DFC0120838BE290E02BE2E9
S113024030E0F90120812061FC0120838BE290E001
S11302502BE230E0F90120812F7EFC01208382E231
S113026090E020914801222F30E0220F331F2A5FB3
S11302703E4FF901208131812095FC01208385E2E4
S113028090E025E230E0F90120812360FC01208325
S113029085E290E025E230E0F901408120914801B7
S11302A0222F30E0220F331F2A5F3E4FF9012081B5
S11302B03181232F3327237020952423FC012083AD
S11302C08BE290E02BE230E0F90120812B7FFC01EE
S11302D02083809148018F5F809348018091480179
S11302E08E3010F010924801DF91CF910895CF9392
S11302F0DF93CDB7DEB7DF91CF910895EF92FF92F0
S11303000F93CF93DF93CDB7DEB70E947C028BE2CD
S113031090E02BE230E0F90120812F7BFC01208367
S11303208EE140E061E00E949C0B90934701809332
S1130330460180914601909147010E94E901E12C18
S1130340F12C04E020E030E045E550E066E371E0A4
S11303508DE590E00E94E50EE12CF12C02E020E016
S113036030E045E550E06BE371E089EB90E00E94FA
S1130370E50E8AEF90E00E94FB010E94D810FFCFA7
S1130380CF93DF9300D000D0CDB7DEB79B838A83B1
S11303906C8380914B0190914C01892B99F01982C7
S11303A080914B0190914C01BE016C5F7F4F20E026
S11303B0AE014F5F5F4F0E942C0C8981882311F09E
S11303C00E94F1060F900F900F900F90DF91CF9144
S11303D00895CF93DF9300D0CDB7DEB79A83898396
S11303E089819A8190934C0180934B010F900F90D7
S11303F0DF91CF910895CF93DF9300D0CDB7DEB7CF
S11304009A83898389819A8190934E0180934D01C7
S113041087E490E02AE0FC01208384E490E024E473
S113042030E0F90120812260FC0120838EE690E017
S11304302EE630E0F90120812260FC01208385E46E
S113044090E025E430E0F90120812560FC0120835F
S11304500F900F90DF91CF9108951F920F9200900B
S11304605F000F9211242F933F934F935F936F93E9
S11304707F938F939F93AF93BF93EF93FF93CF9308
S1130480DF93CDB7DEB780914D0190914E01892B5A
S113049031F080914D0190914E01FC010995DF915D
S11304A0CF91FF91EF91BF91AF919F918F917F91E8
S11304B06F915F914F913F912F910F9000925F0048
S11304C00F901F901895CF93DF9300D01F92CDB754
S11304D0DEB79A8389836B838091490190914A01A5
S11304E029813A814B81B9010E9445090F900F90EF
S11304F00F90DF91CF9108958F929F92AF92BF9208
S1130500CF92DF92EF920F93CF93DF93CDB7DEB705
S11305108FE491E00E940E0382E691E00E940E03B4
S11305200F2EF0EC8F2EF1E09F2EF02D0F2EF2E621
S1130530AF2EF1E0BF2EF02D0F2EFFE4CF2EF1E011
S1130540DF2EF02DE12C00E023E040E052EC61E0EE
S113055070E080E00E94840890934A0180934901EE
S113056088E290E028E230E0F9012081236CFC016C
S113057020838BE290E02BE230E0F90120812860B7
S1130580FC0120838AE290E02AE230E0F901208134
S11305902467FC0120838BE290E02BE230E0F90138
S11305A020812064FC01208381E290E0FC018081B1
S11305B081E290E02FEFFC01208384E290E024E2CA
S11305C030E0F90120812360FC01208384E290E083
S11305D024E230E0F90120812C63FC012083DF91C7
S11305E0CF910F91EF90DF90CF90BF90AF909F90FD
S11305F08F900895CF93DF931F92CDB7DEB7898391
S11306000F90DF91CF910895CF93DF931F92CDB7D1
S1130610DEB789830F90DF91CF910895CF93DF9355
S113062000D0CDB7DEB79A83898389819A81FC0192
S1130630108A89819A81FC01118A89819A81FC013D
S1130640128A0F900F90DF91CF910895CF93DF938B
S113065000D000D0CDB7DEB79A8389837C836B83C7
S113066089819A81FC018289882381F189819A8117
S1130670FC018189882F90E029813A81820F931FA0
S1130680FC0120818B819C81FC01208389819A81DA
S1130690FC018189882F90E001968F7090789923CE
S11306A024F40197806F9F6F0196282F89819A8186
S11306B0FC01218B89819A81FC0182892FEF280F0B
S11306C089819A81FC01228B80E001C081E00F9036
S11306D00F900F900F90DF91CF910895CF93DF93F8
S11306E000D01F92CDB7DEB79A8389836B8389814B
S11306F09A81FC018289803168F589819A81FC01A3
S11307008089882F90E029813A81820F931F2B8161
S1130710FC01208389819A81FC018089882F90E0E3
S113072001968F709078992324F40197806F9F6FBE
S11307300196282F89819A81FC01208B89819A81D5
S1130740FC01828921E0280F89819A81FC01228B96
S113075080E001C082E00F900F900F90DF91CF9165
S11307600895CF93DF9300D0CDB7DEB79A83898302
S113077089819A819C012D5F3F4F89819A81FC0177
S11307803283218389819A812FEF3FEFFC013483E7
S1130790238389819A819C012D5F3F4F89819A81AE
S11307A0FC013683258389819A819C012D5F3F4F0B
S11307B089819A81FC013087278389819A81FC0190
S11307C010820F900F90DF91CF910895CF93DF9314
S11307D000D0CDB7DEB79A83898389819A81FC01E1
S11307E0118610860F900F90DF91CF910895CF93CB
S11307F0DF9300D000D000D0CDB7DEB79C838B83CD
S11308007E836D838B819C81FC01818192819A839B
S113081089838D819E8129813A81FC0133832283DE
S113082089819A81FC01248135818D819E81FC011D
S11308303583248389819A81FC01848195812D816A
S11308403E81FC013383228389819A812D813E81FB
S1130850FC01358324838D819E812B813C81FC01A5
S1130860318720878B819C81FC01808121E0280FC6
S11308708B819C81FC01208326960FB6F894DEBF01
S11308800FBECDBFDF91CF910895CF93DF93CDB746
S1130890DEB728970FB6F894DEBF0FBECDBF9E8398
S11308A08D8378876F838F819885FC018081918106
S11308B09C838B838B819C81019641F48D819E81E5
S11308C0FC01878190859A8389831AC08D819E81DA
S11308D003969A83898307C089819A81FC01828166
S11308E093819A83898389819A81FC01828193818E
S11308F0FC01208131818B819C818217930760F7F1
S113090089819A81FC01228133818F819885FC0140
S1130910338322838F819885FC01828193812F8187
S11309203885FC01358324838F81988529813A8118
S1130930FC013583248389819A812F813885FC01C8
S1130940338322838F8198852D813E81FC013187F9
S113095020878D819E81FC01808121E0280F8D817B
S11309609E81FC01208328960FB6F894DEBF0FBE4B
S1130970CDBFDF91CF910895CF93DF9300D000D006
S1130980CDB7DEB79C838B838B819C81FC018085F2
S113099091859A8389838B819C81FC0182819381D7
S11309A02B813C81F90124813581FC013583248329
S11309B08B819C81FC01848195812B813C81F9018F
S11309C022813381FC013383228389819A81FC0152
S11309D0218132818B819C812817390751F48B81C5
S11309E09C81FC012481358189819A81FC013283B7
S11309F021838B819C81FC011186108689819A81D7
S1130A00FC0180812FEF280F89819A81FC012083CA
S1130A1089819A81FC0180810F900F900F900F9033
S1130A20DF91CF910895CF93DF93CDB7DEB72897A9
S1130A300FB6F894DEBF0FBECDBF9C838B837E833D
S1130A406D8358874F838B819C8121E1FC01208336
S1130A508B819C8101979C838B838B819C8122E277
S1130A60FC0120838B819C8101979C838B838B81E8
S1130A709C8123E3FC0120838B819C8101979C83CF
S1130A808B838D819E819A83898329818B819C812B
S1130A90FC0120838B819C8101979C838B838981BA
S1130AA09A81892F99279A83898329818B819C81B3
S1130AB0FC0120838B819C8101979C838B838B8198
S1130AC09C81FC0110828B819C8101979C838B8388
S1130AD08B819C8120E8FC0120838B819C81019780
S1130AE09C838B838B819C81FC0110828B819C81F4
S1130AF001979C838B838B819C8122E0FC01208362
S1130B008B819C8101979C838B838B819C8123E0C7
S1130B10FC0120838B819C8101979C838B838B8137
S1130B209C8124E0FC0120838B819C8101979C8320
S1130B308B838B819C8125E0FC0120838B819C81AC
S1130B4001979C838B838B819C8126E0FC0120830D
S1130B508B819C8101979C838B838B819C8127E073
S1130B60FC0120838B819C8101979C838B838B81E7
S1130B709C8128E0FC0120838B819C8101979C83CC
S1130B808B838B819C8129E0FC0120838B819C8158
S1130B9001979C838B838B819C8120E1FC012083C2
S1130BA08B819C8101979C838B838B819C8121E128
S1130BB0FC0120838B819C8101979C838B838B8197
S1130BC09C8122E1FC0120838B819C8101979C8381
S1130BD08B838B819C8123E1FC0120838B819C810D
S1130BE001979C838B838B819C8124E1FC0120836E
S1130BF08B819C8101979C838B838B819C8125E1D4
S1130C00FC0120838B819C8101979C838B838B8146
S1130C109C8126E1FC0120838B819C8101979C832C
S1130C208B838B819C8127E1FC0120838B819C81B8
S1130C3001979C838B838B819C8128E1FC01208319
S1130C408B819C8101979C838B838B819C8129E17F
S1130C50FC0120838B819C8101979C838B838B81F6
S1130C609C8120E2FC0120838B819C8101979C83E1
S1130C708B838B819C8121E2FC0120838B819C816D
S1130C8001979C838B838B819C8122E2FC012083CE
S1130C908B819C8101979C838B838B819C8123E234
S1130CA0FC0120838B819C8101979C838B838F81A2
S1130CB098859A83898329818B819C81FC01208377
S1130CC08B819C8101979C838B8389819A81892F55
S1130CD099279A83898329818B819C81FC012083B4
S1130CE08B819C8101979C838B838B819C8126E2E1
S1130CF0FC0120838B819C8101979C838B838B8156
S1130D009C8127E2FC0120838B819C8101979C8339
S1130D108B838B819C8128E2FC0120838B819C81C5
S1130D2001979C838B838B819C8129E2FC01208326
S1130D308B819C8101979C838B838B819C8120E395
S1130D40FC0120838B819C8101979C838B838B8105
S1130D509C8121E3FC0120838B819C8101979C83EE
S1130D608B838B819C8128960FB6F894DEBF0FBECF
S1130D70CDBFDF91CF910895CF93DF93CDB7DEB789
S1130D800E94A707A0917103B0917203CD91CDBFCA
S1130D90DD91DEBFFF91EF91DF91CF91BF91AF91D4
S1130DA09F918F917F916F915F914F913F912F917F
S1130DB01F910F91FF90EF90DF90CF90BF90AF9075
S1130DC09F908F907F906F905F904F903F902F9067
S1130DD01F900F900FBE0F90089581E0DF91CF9187
S1130DE008950F920FB6F8940F921F9211242F9228
S1130DF03F924F925F926F927F928F929F92AF92A7
S1130E00BF92CF92DF92EF92FF920F931F932F9393
S1130E103F934F935F936F937F938F939F93AF937E
S1130E20BF93CF93DF93EF93FF93A0917103B0919E
S1130E3072030DB60D920EB60D920E949B12A091F4
S1130E407103B0917203CD91CDBFDD91DEBFFF91EF
S1130E50EF91DF91CF91BF91AF919F918F917F914E
S1130E606F915F914F913F912F911F910F91FF903F
S1130E70EF90DF90CF90BF90AF909F908F907F9036
S1130E806F905F904F903F902F901F900F900FBEE8
S1130E900F9008950F920FB6F8940F921F92112499
S1130EA02F923F924F925F926F927F928F929F9276
S1130EB0AF92BF92CF92DF92EF92FF920F931F9364
S1130EC02F933F934F935F936F937F938F939F934E
S1130ED0AF93BF93CF93DF93EF93FF93A0917103ED
S1130EE0B09172030DB60D920EB60D920E94AF1121
S1130EF0882311F00E949B12A0917103B091720398
S1130F00CD91CDBFDD91DEBFFF91EF91DF91CF9108
S1130F10BF91AF919F918F917F916F915F914F910D
S1130F203F912F911F910F91FF90EF90DF90CF9001
S1130F30BF90AF909F908F907F906F905F904F90F5
S1130F403F902F901F900F900FBE0F900895CF9356
S1130F50DF9300D000D000D0CDB7DEB789E999E3A4
S1130F60A0E0B0E089839A83AB83BC8389819A81B2
S1130F70AB81BC81689415F8B695A795979587952C
S1130F801694D1F789839A83AB83BC8389819A8130
S1130F90AB81BC810197A109B10989839A83AB8391
S1130FA0BC8389818D8389819A81AB81BC81892F9E
S1130FB09A2FAB2FBB2789839A83AB83BC83898108
S1130FC08E8389E890E02E81FC01208388E890E0FC
S1130FD02D81FC0120838BE08D8381E890E02D81BD
S1130FE0FC0120838FE690E0FC0180818D838D815C
S1130FF082608D838FE690E02D81FC01208326960C
S11310000FB6F894DEBF0FBECDBFDF91CF91089528
S11310100E944A071895CF93DF9300D000D0CDB734
S1131020DEB79C838B831A8219820E940C118091F3
S11310306B0390916C03892B31F486E791E09093D4
S11310406C0380936B032091690330916A038B8155
S11310509C81820F931F833F914038F5209169034F
S113106030916A038B819C81280F391F8091690319
S113107090916A0382179307C0F420916B03309117
S11310806C038091690390916A03820F931F9A8382
S113109089832091690330916A038B819C81820F3B
S11310A0931F90936A03809369030E9418118981A6
S11310B09A810F900F900F900F90DF91CF91089528
S11310C0CF93DF9300D0CDB7DEB79A8389830F9097
S11310D00F90DF91CF910895CF93DF9300D0CDB7D8
S11310E0DEB79A83898389819A81059729813A8118
S11310F025503109F90120812062FC0120830F90E1
S11311000F90DF91CF9108958F929F92AF92BF92EB
S1131110CF92DF92EF920F931F93CF93DF93CDB7CC
S1131120DEB765970FB6F894DEBF0FBECDBF8C83D4
S11311304D835E836F83788729870A87EB86DD86F4
S1131140CC86BF86AE86998A888A88E090E00E9421
S113115099159A8389838C81882F90E0880F991F31
S113116083599C4F29813A81FC01318320838C81EE
S1131170882F90E0880F991F8E5D9E4FFC0120817F
S1131180318189819A81FC013183208389819A810B
S11311902E853F85FC013383228389819A812C85A6
S11311A03D85FC013583248389819A812889398985
S11311B0FC01378326838FE590E0FC0180818B83DB
S11311C0F89489819A81FC01808191810697298113
S11311D03A81F9012081318126503109F9012081B8
S11311E02260FC01208389819A81FC0180819181A4
S11311F08C01025011098D819E81AF81B885880FC1
S1131200991FAA1FBB1F880F991FAA1FBB1F880FF6
S1131210991FAA1FBB1F9C01AD0180E090E0A1EEC5
S1131220B0E0BC01CD010E947715DA01C9018150FB
S1131230F801808389819A81FC01808191810597DD
S113124028E9FC01208389819A81FC0180819181B4
S1131250049726E0FC0120838FE590E02B81FC01BC
S1131260208389819A8165960FB6F894DEBF0FBEFC
S1131270CDBFDF91CF911F910F91EF90DF90CF9071
S1131280BF90AF909F908F900895CF93DF9300D03D
S113129000D000D0CDB7DEB79B838A837D836C8377
S11312A04E838A819B81FC0182819381892BA9F0E1
S11312B08E81282F30E08A819B81FC018281938179
S11312C0FC018289882F90E040E150E0BA01681B5C
S11312D0790BCB018217930754F08A819B81FC011F
S11312E082819381892B29F48E81823010F082E0EF
S11312F022C0198214C08981882F90E02C813D81FD
S1131300820F931FFC0120818A819B81FC018281D1
S11313109381622F0E946E0389818F5F89839981F3
S11313208E81981740F38A819B81FC018081918191
S11313300E946C0880E026960FB6F894DEBF0FBEBC
S1131340CDBFDF91CF9108951F920F9200905F005F
S11313500F9211242F933F934F935F936F937F9337
S11313608F939F93AF93BF93EF93FF93CF93DF93A9
S11313701F92CDB7DEB780916D0390916E03892BD8
S113138031F186EC90E0FC018081898380916D03CA
S113139090916E03FC018481958169810E946E03A2
S11313A080916D0390916E03FC0186819781892B56
S11313B071F080916D0390916E03FC012681378159
S11313C080916D0390916E036981F90109950F90E5
S11313D0DF91CF91FF91EF91BF91AF919F918F9149
S11313E07F916F915F914F913F912F910F90009258
S11313F05F000F901F9018951F920F9200905F004E
S11314000F9211242F933F934F935F936F937F9386
S11314108F939F93AF93BF93EF93FF93CF93DF93F8
S11314201F92CDB7DEB780916D0390916E03892B27
S1131430F9F080916D0390916E03FC018281938198
S11314409E012F5F3F4FB9010E942603882331F488
S113145086EC90E02981FC01208313C081EC90E0AC
S113146021EC30E0F90120812F7DFC01208309C0AB
S113147081EC90E021EC30E0F90120812F7DFC012A
S113148020830F90DF91CF91FF91EF91BF91AF91A6
S11314909F918F917F916F915F914F913F912F9188
S11314A00F9000925F000F901F9018951F920F925B
S11314B000905F000F9211242F933F934F935F93FB
S11314C06F937F938F939F93AF93BF93EF93FF9308
S11314D0CF93DF931F92CDB7DEB780916F039091C6
S11314E07003892B31F18EEC90E0FC0180818983BB
S11314F080916F0390917003FC01848195816981CF
S11315000E946E0380916F0390917003FC018681A9
S11315109781892B71F080916F0390917003FC0186
S11315202681378180916F03909170036981F9015D
S113153009950F90DF91CF91FF91EF91BF91AF91FA
S11315409F918F917F916F915F914F913F912F91D7
S11315500F9000925F000F901F9018951F920F92AA
S113156000905F000F9211242F933F934F935F934A
S11315706F937F938F939F93AF93BF93EF93FF9357
S1131580CF93DF931F92CDB7DEB780916F03909115
S11315907003892BF9F080916F0390917003FC0123
S11315A0828193819E012F5F3F4FB9010E942603E0
S11315B0882331F48EEC90E02981FC01208313C050
S11315C089EC90E029EC30E0F90120812F7DFC01C9
S11315D0208309C089EC90E029EC30E0F9012081F6
S11315E02F7DFC0120830F90DF91CF91FF91EF912C
S11315F0BF91AF919F918F917F916F915F914F9127
S11316003F912F910F9000925F000F901F901895BB
S1131610CF93DF9300D000D01F92CDB7DEB79C8369
S11316208B836D838B819C819A8389830FB6F89415
S11316300F9289819A81FC018081918129813A816B
S1131640F901238D422F50E029813A81F901248D3B
S1131650222F30E0429FB001439F700D529F700DC6
S113166011249B01280F391F89819A81FC0133833E
S1131670228389819A81FC01128E89819A81FC01DD
S11316802081318189819A81FC0135832483898178
S11316909A81FC018081918129813A81F901238D0C
S11316A0222F30E0A9014150510929813A81F901E1
S11316B0248D222F30E0429FB001439F700D529F32
S11316C0700D11249B01280F391F89819A81FC0117
S11316D03783268389819A812FEFFC01258F8981A5
S11316E09A812FEFFC01268F8D81882381F48981D3
S11316F09A81FC0180858823A1F089819A810896CA
S11317000E944213882369F00E94F1060AC089816D
S11317109A8108960E94B10389819A8141960E9418
S1131720B1030F900FBE81E00F900F900F900F90B8
S11317300F90DF91CF9108950F931F93CF93DF9371
S1131740CDB7DEB729970FB6F894DEBF0FBECDBF75
S11317508F83688749878885882319F41A821982B8
S11317600FC08F81482F50E08885282F30E0429F9A
S1131770C001439F900D529F900D11249A83898339
S113178089819A8181960E940B089C838B838B812B
S11317909C81892B81F08B819C8181969E838D8392
S11317A02B813C818D819E8189012985AC016885CD
S11317B08F810E94E80B8B819C8129960FB6F89447
S11317C0DEBF0FBECDBFDF91CF911F910F91089562
S11317D00F931F93CF93DF93CDB7DEB727970FB641
S11317E0F894DEBF0FBECDBF89836A835C834B83CD
S11317F02D831F830E838A81882341F48E819F81E8
S11318002E813F81FC013183208307C08E819F811B
S11318102B813C81FC01318320838E819F8129812E
S1131820FC01238F8E819F812A81FC01248F8E816C
S11318309F8161E00E94080B8E819F812D81FC01B4
S113184020A327960FB6F894DEBF0FBECDBFDF915D
S1131850CF911F910F910895CF93DF93CDB7DEB74A
S11318602C970FB6F894DEBF0FBECDBF9F838E8337
S1131870798768875B874A872C878E819F819B83C2
S11318808A831C828A819B81FC01228D8A819B81AF
S1131890FC01838D281718F08C85823089F58A81A4
S11318A09B81FC01868D8D83288539858A819B8166
S11318B04C85B9010E945F0D8D818F3FB9F48A81F7
S11318C09B81FC0181898823C1F08A819B81419697
S11318D00E944213882389F08A859B85892B69F0AD
S11318E08A859B8521E0FC01208307C08D818F5F61
S11318F0282F8A819B81FC01268F81E0898301C086
S1131900198289812C960FB6F894DEBF0FBECDBF25
S1131910DF91CF910895CF93DF93CDB7DEB7609772
S11319200FB6F894DEBF0FBECDBF9B878A877D8735
S11319306C875F874E87288B19828A859B859B835A
S11319408A830FB6F8940F928A819B81FC01828D61
S11319508C838C81882309F442C08A819B81FC0199
S1131960868197819E838D832C853D858A819B8189
S1131970B9010E941A0E88898823B9F48C812FEF4B
S1131980280F8A819B81FC01228F8A819B81FC0123
S11319908085882301F18A819B8108960E944213E5
S11319A08823C9F00E94F10616C08A819B812D818B
S11319B03E81FC01378326838A819B81FC018189D6
S11319C0882349F08A819B8141960E94421388238F
S11319D011F00E94F1060F900FBE81E067C08E8562
S11319E09F85892B21F40F900FBE80E05FC0898111
S11319F0882331F4CE0107960E94AF1381E08983D6
S1131A000F900FBE0E940C110FB6F8940F928A81AA
S1131A109B81FC01858D8F3F21F48A819B81FC0190
S1131A20158E8A819B81FC01868D8F3F21F48A81EA
S1131A309B81FC01168E0F900FBE9E01225F3F4FCB
S1131A40CE010796B9010E94CA13882301F58A8141
S1131A509B810E94C70E882399F02E853F858A8139
S1131A609B814196B9010E9420138A819B810E9427
S1131A706A0E0E9418118823C1F40E94F10615C051
S1131A808A819B810E946A0E0E9418115ACF8A8112
S1131A909B810E946A0E0E9418118A819B810E9478
S1131AA0C70E882311F080E001C04BCF60960FB6BB
S1131AB0F894DEBF0FBECDBFDF91CF910895CF93D1
S1131AC0DF93CDB7DEB727970FB6F894DEBF0FBE0E
S1131AD0CDBF9C838B837E836D834F831A828B81DE
S1131AE09C81FC01828D89838B819C81FC01848D86
S1131AF0882309F48EC08F818823D9F58B819C813A
S1131B00FC01848D482F50E08B819C81FC018481F1
S1131B1095812D813E81B9010E94C6168B819C81DD
S1131B20FC01248135818B819C81FC01848D882F6B
S1131B3090E0280F391F8B819C81FC01358324831D
S1131B408B819C81FC01248135818B819C81FC01EA
S1131B50828193812817390708F45BC08B819C81AB
S1131B60FC01208131818B819C81FC01358324839C
S1131B7050C08B819C81FC01848D482F50E08B8167
S1131B809C81FC01868197812D813E81B9010E944F
S1131B90C6168B819C81FC01268137818B819C81B7
S1131BA0FC01848D882F90E0919581959109280FEF
S1131BB0391F8B819C81FC01378326838B819C8117
S1131BC0FC01268137818B819C81FC01808191817C
S1131BD028173907A8F48B819C81FC012281338169
S1131BE08B819C81FC01848D882F90E09195819557
S1131BF09109280F391F8B819C81FC01378326832F
S1131C008F81823031F48981882319F08981815050
S1131C108983898121E0280F8B819C81FC01228F9B
S1131C208A8127960FB6F894DEBF0FBECDBFDF9131
S1131C30CF910895CF93DF9300D000D0CDB7DEB716
S1131C409A8389837C836B8389819A81FC01848D47
S1131C508823C9F189819A81FC0126813781898190
S1131C609A81FC01848D882F90E0280F391F898187
S1131C709A81FC013783268389819A81FC0126811C
S1131C80378189819A81FC018281938128173907E0
S1131C9050F089819A81FC012081318189819A8166
S1131CA0FC013783268389819A81FC01848D482F26
S1131CB050E089819A81FC01268137818B819C8146
S1131CC0B9010E94C6160F900F900F900F90DF91EC
S1131CD0CF910895CF93DF9300D000D0CDB7DEB776
S1131CE09C838B830FB6F8940F928B819C81FC01AB
S1131CF0868D898314C08B819C81FC018189882312
S1131D0051F08B819C8141960E944213882321F0DB
S1131D100E94321401C006C089818150898389815F
S1131D2018164CF38B819C812FEFFC01268F0F90AA
S1131D300FBE0FB6F8940F928B819C81FC01858DA8
S1131D408A8314C08B819C81FC018085882369F07F
S1131D508B819C8108960E944213882311F00E9473
S1131D6032148A8181508A8301C003C08A81181683
S1131D704CF38B819C812FEFFC01258F0F900FBEBC
S1131D800F900F900F900F90DF91CF910895CF9304
S1131D90DF9300D01F92CDB7DEB79B838A830FB643
S1131DA0F8940F928A819B81FC01828D882319F417
S1131DB081E0898301C019820F900FBE89810F9041
S1131DC00F900F90DF91CF9108958F929F92AF92D1
S1131DD0BF92CF92DF92EF92FF920F931F93CF9314
S1131DE0DF93CDB7DEB760970FB6F894DEBF0FBEB2
S1131DF0CDBF9F838E83798768875B874A873D87BA
S1131E002C870E87F88AEF868A859B850E940B08AB
S1131E109D838C838C819D81892BB9F08AE290E02B
S1131E200E940B089A83898389819A81892B41F0C6
S1131E3089819A812C813D81FC01308F278B07C0D9
S1131E408C819D810E94600802C01A821982898156
S1131E509A81892B09F18A859B85CC01A0E0B0E0A9
S1131E6009811A814F8558892C853D856885798536
S1131E70EE81FF81812C912C58016A01EE84890145
S1131E809C01AD01CF010E94620F89819A810E9459
S1131E90331081E08B8302C08FEF8B838B8160963C
S1131EA00FB6F894DEBF0FBECDBFDF91CF911F9167
S1131EB00F91FF90EF90DF90CF90BF90AF909F90E5
S1131EC08F9008958F929F92AF92BF92CF92DF929C
S1131ED0EF920F931F93CF93DF93CDB7DEB7649741
S1131EE00FB6F894DEBF0FBECDBF9D838C837F8376
S1131EF06E83288739874A875B871D870C87EE8620
S1131F00D88ACF86BA8AA98A9C8A8B8A28853985F9
S1131F1089899A89FC018789908DA90165EA70E015
S1131F200E94CF1689899A89FC012789308D88857A
S1131F3099850197820F931F9B838A83198222C0FC
S1131F408981882F90E02981222F30E04E815F81A2
S1131F50240F351FF901408129893A89820F931F83
S1131F604996FC0140838981882F90E02E813F812E
S1131F70820F931FFC018081882309F406C08981A4
S1131F808F5F898389818830D8F289899A89FC0195
S1131F9010A28E85843010F083E08E8789899A8917
S1131FA02E85FC01268B89899A8902960E94E60374
S1131FB089899A890C960E94E60389899A892989D4
S1131FC03A89FC01318720878E85882F90E024E0B0
S1131FD030E0281B390B89899A89FC0135872487CD
S1131FE089899A8929893A89FC01338B228B8989C9
S1131FF09A89FC0114A213A289899A89FC0115A269
S113200016A217A210A689899A89FC0111A64C85EB
S11320105D852C813D818A819B81B9010E941305D4
S11320209C0189899A89FC01318320838F85988951
S1132030892B39F08F85988929893A89FC01318364
S1132040208364960FB6F894DEBF0FBECDBFDF9138
S1132050CF911F910F91EF90DF90CF90BF90AF90F1
S11320609F908F900895CF93DF9300D0CDB7DEB7C4
S11320709A8389830FB6F8940F928091C0038F5F7F
S11320808093C0038091710390917203892B69F44A
S113209089819A8190937203809371038091C00324
S11320A08130C9F40E944E1416C08091C403882361
S11320B091F48091710390917203FC0126898981C6
S11320C09A81FC018689821730F089819A819093E4
S11320D07203809371038091C8038F5F8093C80358
S11320E02091C80389819A81FC0121A389819A8165
S11320F0FC0196898091C303891730F489819A8100
S1132100FC0186898093C30389819A81AC014E5F67
S11321105F4F89819A81FC018689282F30E0C901AB
S1132120880F991F880F991F880F991F820F931F7B
S11321308D589C4FBA010E94F7030F900FBE8091F7
S1132140C403882371F08091710390917203FC01A0
S1132150268989819A81FC018689281710F40E94B6
S1132160F1060F900F90DF91CF910895CF93DF93F5
S113217000D01F92CDB7DEB79B838A8319828A81F0
S11321809B81892B51F00E940C118A819B8160E014
S11321900E9410150E94181189838981882311F4E3
S11321A00E94F1060F900F900F90DF91CF91089548
S11321B0EF92FF920F93CF93DF931F92CDB7DEB7C9
S11321C00F2EFBECEF2EF3E0FF2EF02D00E020E0CD
S11321D030E045E550E060E471E08CE394E10E9476
S11321E0E50E89838981813081F4F8948FEF9FEF24
S11321F09093CA038093C90381E08093C40310922F
S1132200C2031092C1030E94BC060F90DF91CF91CC
S11322100F91FF90EF900895CF93DF93CDB7DEB782
S11322208091CD038F5F8093CD03DF91CF9108958B
S1132230CF93DF9300D000D0CDB7DEB71A821982D6
S11322401B820FB6F8940F928091CD038150809336
S1132250CD038091CD03882309F077C08091C0031A
S1132260882309F472C049C08091B2039091B303EA
S1132270FC01868197819A83898389819A810C964E
S11322800E94BC0489819A8102960E94BC048981BF
S11322909A81FC0196898091C303891730F489815E
S11322A09A81FC0186898093C30389819A81AC0158
S11322B04E5F5F4F89819A81FC018689282F30E027
S11322C0C901880F991F880F991F880F991F820FC2
S11322D0931F8D589C4FBA010E94F70389819A81FC
S11322E0FC0126898091710390917203FC01868917
S11322F0281718F081E08093C6038091AD038823EA
S113230009F0B2CF89819A81892B11F00E94E214DD
S11323108091C5038C838C81882379F00E94AF114E
S1132320882319F081E08093C6038C8181508C83CB
S11323308C81882399F71092C5038091C603882362
S113234021F081E08B830E94F1060F900FBE8B81F8
S11323500F900F900F900F90DF91CF910895CF932E
S1132360DF93CDB7DEB729970FB6F894DEBF0FBE63
S1132370CDBF19828091CD03882309F0C7C0809115
S1132380C1039091C20301969B838A838A819B81B6
S11323909093C2038093C1038A819B81892BD9F4D2
S11323A08091A9039091AA039D838C838091AB03B0
S11323B09091AC039093AA038093A9038C819D818F
S11323C09093AC038093AB038091C7038F5F80939A
S11323D0C7030E94E2148091C9039091CA032A8121
S11323E03B812817390708F477C08091A90390919D
S11323F0AA03FC018081882339F48FEF9FEF909327
S1132400CA038093C90368C08091A9039091AA0369
S1132410FC0185819681FC01868197819F838E834F
S11324208E819F81FC0182819381998788872A818B
S11324303B81888599852817390738F488859985DB
S11324409093CA038093C90347C08E819F810296EB
S11324500E94BC048E819F81FC0184899589892B0B
S113246029F08E819F810C960E94BC048E819F81ED
S1132470FC0196898091C303891730F48E819F8172
S1132480FC0186898093C3038E819F81AC014E5FDA
S11324905F4F8E819F81FC018689282F30E0C9011E
S11324A0880F991F880F991F880F991F820F931FF8
S11324B08D589C4FBA010E94F7038E819F81FC01C5
S11324C026898091710390917203FC0186892817F3
S11324D010F081E0898389CF809171039091720318
S11324E0FC018689282F30E0C901880F991F880FC5
S11324F0991F880F991F820F931F8D589C4FFC01C1
S11325008081823010F081E0898305C08091C50309
S11325108F5F8093C5038091C603882311F081E007
S11325208983898129960FB6F894DEBF0FBECDBF8B
S1132530DF91CF910895CF93DF9300D01F92CDB751
S1132540DEB78091CD03882321F081E08093C60318
S113255071C01092C6038091710390917203FC01C3
S113256083A194A10E9404038091C303898303C0BF
S11325708981815089838981282F30E0C901880F9E
S1132580991F880F991F880F991F820F931F8D58C9
S11325909C4FFC018081882359F38981282F30E0E6
S11325A0C901880F991F880F991F880F991F820FDF
S11325B0931F8D589C4F9B838A838A819B81FC0146
S11325C081819281FC01228133818A819B81FC017A
S11325D0328321838A819B81FC01218132818A811A
S11325E09B8103962817390769F48A819B81FC0132
S11325F081819281FC01228133818A819B81FC014A
S1132600328321838A819B81FC0181819281FC0137
S1132610868197819093720380937103898180935B
S1132620C3038091710390917203FC0183A194A16F
S11326300E94FA020F900F900F90DF91CF910895AE
S1132640CF93DF9300D000D0CDB7DEB79A838983D0
S11326507C836B8380917103909172039C01245F4E
S11326603F4F89819A81B9010E9445048B819C81E5
S113267061E00E9410150F900F900F900F90DF9162
S1132680CF910895CF93DF9300D000D01F92CDB7A0
S1132690DEB79D838C838C819D81FC01858196812D
S11326A0FC01868197819B838A838A819B810C9616
S11326B00E94BC048091CD03882369F58A819B81A3
S11326C002960E94BC048A819B81FC0196898091B8
S11326D0C303891730F48A819B81FC018689809326
S11326E0C3038A819B81AC014E5F5F4F8A819B81CA
S11326F0FC018689282F30E0C901880F991F880FB3
S1132700991F880F991F820F931F8D589C4FBA01F0
S11327100E94F70308C08A819B810C96BC018DEA54
S113272093E00E94F7038A819B81FC0126898091B2
S1132730710390917203FC018689821730F481E061
S1132740898381E08093C60301C0198289810F9037
S11327500F900F900F900F90DF91CF910895CF932A
S1132760DF9300D0CDB7DEB79A8389832091C70366
S113277089819A81FC0120832091C1033091C20395
S113278089819A81FC01328321830F900F90DF911C
S1132790CF910895CF93DF93CDB7DEB727970FB6C8
S11327A0F894DEBF0FBECDBF9D838C837F836E8381
S11327B00FB6F8940F928091C1039091C2039B834A
S11327C08A838C819D81FC0190818091C703981735
S11327D069F08C819D81FC01218132818A819B81F8
S11327E08217930718F081E0898330C08C819D8122
S11327F0FC01818192812A813B81281B390B8E81C6
S11328009F81FC018081918128173907E8F48E812A
S11328109F81FC01208131818C819D81FC0141815A
S113282052818A819B81BA01681B790BCB01280FE5
S1132830391F8E819F81FC01318320838C819D818E
S11328400E94AF13198202C081E089830F900FBEEA
S1132850898127960FB6F894DEBF0FBECDBFDF91F6
S1132860CF910895CF93DF93CDB7DEB781E0809306
S1132870C603DF91CF910895CF93DF9300D0CDB7F6
S1132880DEB79A8389830E948B148091730382300C
S113289010F00E94F1060E947701F5CFCF93DF93E9
S11328A01F92CDB7DEB7198213C08981282F30E07B
S11328B0C901880F991F880F991F880F991F820FCC
S11328C0931F8D589C4F0E94B10389818F5F898328
S11328D08981843050F387E993E00E94B10380EA50
S11328E093E00E94B1038DEA93E00E94B10386EB6A
S11328F093E00E94B10387E993E09093AA03809345
S1132900A90380EA93E09093AC038093AB030F9008
S1132910DF91CF910895CF93DF9300D01F92CDB76D
S1132920DEB72FC00E940C119091B60381E0992369
S113293009F080E089830E9418118981882309F5B0
S11329400FB6F8940F928091BB039091BC03FC01E5
S1132950868197819B838A838A819B8102960E94C8
S1132960BC048091C00381508093C0038091BF0355
S113297081508093BF030F900FBE8A819B810E9478
S1132980CB148091BF03882369F60F900F900F90AA
S1132990DF91CF910895CF93DF9300D0CDB7DEB709
S11329A09A83898389819A81FC018789908D0E9409
S11329B0600889819A810E9460080F900F90DF91CE
S11329C0CF910895CF93DF9300D0CDB7DEB7809138
S11329D0A9039091AA03FC018081882339F48FEF25
S11329E09FEF9093CA038093C90315C08091A903F4
S11329F09091AA03FC0185819681FC0186819781CF
S1132A009A83898389819A81FC018281938190933D
S1132A10CA038093C9030F900F90DF91CF9108955B
S1132A20CF93DF93CDB7DEB727970FB6F894DEBF09
S1132A300FBECDBF9E838D836F838091C103909120
S1132A40C2039A83898380917103909172030296E1
S1132A500E94BC0429813A818D819E81820F931F3B
S1132A609C838B8380917103909172032B813C81B1
S1132A70FC01338322832B813C8189819A8128172D
S1132A80390778F480917103909172039C012E5F51
S1132A903F4F8091AB039091AC03B9010E94450470
S1132AA01DC080917103909172039C012E5F3F4F72
S1132AB08091A9039091AA03B9010E9445048091D1
S1132AC0C9039091CA032B813C812817390730F43C
S1132AD08B819C819093CA038093C90327960FB678
S1132AE0F894DEBF0FBECDBFDF91CF910895A1E270
S1132AF01A2EAA1BBB1BFD010DC0AA1FBB1FEE1F74
S1132B00FF1FA217B307E407F50720F0A21BB30BBE
S1132B10E40BF50B661F771F881F991F1A9469F73A
S1132B2060957095809590959B01AC01BD01CF0196
S1132B300895CF93DF938230910510F482E090E002
S1132B40E091D003F091D10320E030E0C0E0D0E088
S1132B50309711F14081518148175907C0F0481747
S1132B60590761F482819381209719F09B838A83AA
S1132B702BC09093D1038093D00326C02115310537
S1132B8019F04217530718F49A01BE01DF01EF014F
S1132B900280F381E02DDCCF2115310509F1281BDA
S1132BA0390B2430310590F412968D919C91139732
S1132BB06115710521F0FB019383828304C0909316
S1132BC0D1038093D003FD01329644C0FD01E20F8E
S1132BD0F31F81939193225031092D933C933AC072
S1132BE02091CE033091CF03232B41F42091020195
S1132BF0309103013093CF032093CE032091000141
S1132C00309101012115310541F42DB73EB74091B2
S1132C10040150910501241B350BE091CE03F09182
S1132C20CF03E217F307A0F42E1B3F0B2817390735
S1132C3078F0AC014E5F5F4F2417350748F04E0F14
S1132C405F1F5093CF034093CE038193919302C0AF
S1132C50E0E0F0E0CF01DF91CF9108950F931F934F
S1132C60CF93DF93009709F48CC0FC013297138251
S1132C7012820091D0031091D1030115110581F442
S1132C8020813181820F931F2091CE033091CF0395
S1132C902817390779F5F093CF03E093CE0371C079
S1132CA0D80140E050E0AE17BF0750F412962D91C2
S1132CB03C911397AD012115310509F1D901F3CFE9
S1132CC09D01DA013383228360817181860F971F0E
S1132CD08217930769F4EC0128813981260F371F85
S1132CE02E5F3F4F318320838A819B81938382832C
S1132CF0452B29F4F093D103E093D00342C01396FB
S1132D00FC93EE931297ED01499159919E01240F82
S1132D10351FE217F30771F480819181840F951FA9
S1132D20029611969C938E938281938113969C9321
S1132D308E931297E0E0F0E0D80112968D919C9169
S1132D401397009719F0F8018C01F6CF8D919C919F
S1132D5098012E5F3F4F820F931F2091CE03309135
S1132D60CF032817390769F4309729F41092D10357
S1132D701092D00302C0138212821093CF030093E7
S1132D80CE03DF91CF911F910F910895FB01DC01D8
S1132D9002C001900D9241505040D8F70895DC01D3
S1132DA001C06D9341505040E0F70895F894FFCF6F
S1132DB00000D203200030000000000000000000EA
S1132DC000000000000000000000000000000000FF
S1132DD03000C600CE005468656E207765205374B9
S1132DE0617274210A006563686F0067616D650034
S1092DF049444C450000BB
S9030000FC
